{
  "_format": "hh-sol-artifact-1",
  "contractName": "StakingFacet",
  "sourceName": "contracts/facets/StakingFacet.sol",
  "abi": [
    {
      "anonymous": false,
      "inputs": [
        {
          "indexed": true,
          "internalType": "address",
          "name": "_operator",
          "type": "address"
        },
        {
          "indexed": true,
          "internalType": "address",
          "name": "_from",
          "type": "address"
        },
        {
          "indexed": true,
          "internalType": "address",
          "name": "_to",
          "type": "address"
        },
        {
          "indexed": false,
          "internalType": "uint256[]",
          "name": "_ids",
          "type": "uint256[]"
        },
        {
          "indexed": false,
          "internalType": "uint256[]",
          "name": "_values",
          "type": "uint256[]"
        }
      ],
      "name": "TransferBatch",
      "type": "event"
    },
    {
      "inputs": [
        {
          "internalType": "address[]",
          "name": "_accounts",
          "type": "address[]"
        }
      ],
      "name": "bulkFrens",
      "outputs": [
        {
          "internalType": "uint256[]",
          "name": "frens_",
          "type": "uint256[]"
        }
      ],
      "stateMutability": "view",
      "type": "function"
    },
    {
      "inputs": [
        {
          "internalType": "uint256[]",
          "name": "_ids",
          "type": "uint256[]"
        },
        {
          "internalType": "uint256[]",
          "name": "_values",
          "type": "uint256[]"
        }
      ],
      "name": "claimTickets",
      "outputs": [],
      "stateMutability": "nonpayable",
      "type": "function"
    },
    {
      "inputs": [
        {
          "internalType": "address",
          "name": "_account",
          "type": "address"
        }
      ],
      "name": "frens",
      "outputs": [
        {
          "internalType": "uint256",
          "name": "frens_",
          "type": "uint256"
        }
      ],
      "stateMutability": "view",
      "type": "function"
    },
    {
      "inputs": [
        {
          "internalType": "address[]",
          "name": "_stakers",
          "type": "address[]"
        },
        {
          "internalType": "uint256[]",
          "name": "_frens",
          "type": "uint256[]"
        }
      ],
      "name": "migrateFrens",
      "outputs": [],
      "stateMutability": "nonpayable",
      "type": "function"
    },
    {
      "inputs": [
        {
          "internalType": "uint256",
          "name": "_ghstValue",
          "type": "uint256"
        }
      ],
      "name": "stakeGhst",
      "outputs": [],
      "stateMutability": "nonpayable",
      "type": "function"
    },
    {
      "inputs": [
        {
          "internalType": "uint256",
          "name": "_uniV2PoolTokens",
          "type": "uint256"
        }
      ],
      "name": "stakeUniV2PoolTokens",
      "outputs": [],
      "stateMutability": "nonpayable",
      "type": "function"
    },
    {
      "inputs": [
        {
          "internalType": "address",
          "name": "_account",
          "type": "address"
        }
      ],
      "name": "staked",
      "outputs": [
        {
          "internalType": "uint256",
          "name": "ghst_",
          "type": "uint256"
        },
        {
          "internalType": "uint256",
          "name": "uniV2PoolTokens_",
          "type": "uint256"
        }
      ],
      "stateMutability": "view",
      "type": "function"
    },
    {
      "inputs": [
        {
          "internalType": "uint256",
          "name": "_id",
          "type": "uint256"
        }
      ],
      "name": "ticketCost",
      "outputs": [
        {
          "internalType": "uint256",
          "name": "_frensCost",
          "type": "uint256"
        }
      ],
      "stateMutability": "pure",
      "type": "function"
    },
    {
      "inputs": [],
      "name": "withdrawGhstStake",
      "outputs": [],
      "stateMutability": "nonpayable",
      "type": "function"
    },
    {
      "inputs": [
        {
          "internalType": "uint256",
          "name": "_ghstValue",
          "type": "uint256"
        }
      ],
      "name": "withdrawGhstStake",
      "outputs": [],
      "stateMutability": "nonpayable",
      "type": "function"
    },
    {
      "inputs": [],
      "name": "withdrawUniV2PoolStake",
      "outputs": [],
      "stateMutability": "nonpayable",
      "type": "function"
    },
    {
      "inputs": [
        {
          "internalType": "uint256",
          "name": "_uniV2PoolTokens",
          "type": "uint256"
        }
      ],
      "name": "withdrawUniV2PoolStake",
      "outputs": [],
      "stateMutability": "nonpayable",
      "type": "function"
    }
  ],
  "bytecode": "0x608060405234801561001057600080fd5b50611829806100206000396000f3fe608060405234801561001057600080fd5b50600436106100d45760003560e01c80639c0dfa0111610081578063d097298e1161005b578063d097298e14610357578063eb74726014610417578063f8a6103f14610434576100d4565b80639c0dfa0114610270578063aa061d091461028d578063c51c02ed1461034f576100d4565b806388fa5b04116100b257806388fa5b04146101ff5780639119f1501461021c57806398807d8414610224576100d4565b80630fe6ed26146100d9578063338d88ca1461019d5780634b334ef6146101ba575b600080fd5b61019b600480360360408110156100ef57600080fd5b81019060208101813564010000000081111561010a57600080fd5b82018360208201111561011c57600080fd5b8035906020019184602083028401116401000000008311171561013e57600080fd5b91939092909160208101903564010000000081111561015c57600080fd5b82018360208201111561016e57600080fd5b8035906020019184602083028401116401000000008311171561019057600080fd5b509092509050610451565b005b61019b600480360360208110156101b357600080fd5b503561059e565b6101ed600480360360208110156101d057600080fd5b503573ffffffffffffffffffffffffffffffffffffffff166105f6565b60408051918252519081900360200190f35b61019b6004803603602081101561021557600080fd5b503561066c565b61019b6106ea565b6102576004803603602081101561023a57600080fd5b503573ffffffffffffffffffffffffffffffffffffffff16610762565b6040805192835260208301919091528051918290030190f35b61019b6004803603602081101561028657600080fd5b50356107a4565b61019b600480360360408110156102a357600080fd5b8101906020810181356401000000008111156102be57600080fd5b8201836020820111156102d057600080fd5b803590602001918460208302840111640100000000831117156102f257600080fd5b91939092909160208101903564010000000081111561031057600080fd5b82018360208201111561032257600080fd5b8035906020019184602083028401116401000000008311171561034457600080fd5b50909250905061089a565b61019b610e20565b6103c76004803603602081101561036d57600080fd5b81019060208101813564010000000081111561038857600080fd5b82018360208201111561039a57600080fd5b803590602001918460208302840111640100000000831117156103bc57600080fd5b509092509050610e65565b60408051602080825283518183015283519192839290830191858101910280838360005b838110156104035781810151838201526020016103eb565b505050509050019250505060405180910390f35b61019b6004803603602081101561042d57600080fd5b5035610f0d565b6101ed6004803603602081101561044a57600080fd5b5035610fcd565b6104596110cf565b8281146104b1576040517f08c379a000000000000000000000000000000000000000000000000000000000815260040180806020018281038252602e815260200180611724602e913960400191505060405180910390fd5b60005b8381101561059757600080808787858181106104cc57fe5b9050602002013573ffffffffffffffffffffffffffffffffffffffff1673ffffffffffffffffffffffffffffffffffffffff1673ffffffffffffffffffffffffffffffffffffffff168152602001908152602001600020905083838381811061053157fe5b60200291909101356cffffffffffffffffffffffffff1660058301555060020180547fffffffffffffffffffffffffffffff0000000000ffffffffffffffffffffffff166c010000000000000000000000004264ffffffffff16021790556001016104b4565b5050505050565b6105a6611134565b33600081815260208190526040902060040180546bffffffffffffffffffffffff84160190556003546105f39173ffffffffffffffffffffffffffffffffffffffff909116903084611195565b50565b73ffffffffffffffffffffffffffffffffffffffff166000908152602081905260409020600281015460058201546004909201546201518064ffffffffff6c0100000000000000000000000084041642039182026064028190049093016bffffffffffffffffffffffff90921602919091040190565b610674611134565b336000818152602081905260409020600290810180546bffffffffffffffffffffffff8082168601167fffffffffffffffffffffffffffffffffffffffff000000000000000000000000909116179055546105f39173ffffffffffffffffffffffffffffffffffffffff91909116903084611195565b6106f2611134565b336000818152602081905260409020600290810180547fffffffffffffffffffffffffffffffffffffffff000000000000000000000000811690915590546bffffffffffffffffffffffff909116916105f39173ffffffffffffffffffffffffffffffffffffffff169083611356565b73ffffffffffffffffffffffffffffffffffffffff16600090815260208190526040902060028101546004909101546bffffffffffffffffffffffff90911691565b6107ac611134565b336000908152602081905260409020600201546bffffffffffffffffffffffff1681811015610826576040517f08c379a00000000000000000000000000000000000000000000000000000000081526004018080602001828103825260288152602001806117a66028913960400191505060405180910390fd5b336000818152602081905260409020600290810180547fffffffffffffffffffffffffffffffffffffffff000000000000000000000000168585036bffffffffffffffffffffffff16179055546108969173ffffffffffffffffffffffffffffffffffffffff9091169084611356565b5050565b8281146108f2576040517f08c379a000000000000000000000000000000000000000000000000000000000815260040180806020018281038252602c81526020018061177a602c913960400191505060405180910390fd5b6108fa611134565b33600090815260208190526040812060050154905b84811015610aa757600086868381811061092557fe5b905060200201359050600085858481811061093c57fe5b905060200201359050600682106109b457604080517f08c379a000000000000000000000000000000000000000000000000000000000815260206004820152601960248201527f5374616b696e673a205469636b6574206e6f7420666f756e6400000000000000604482015290519081900360640190fd5b6000816109c084610fcd565b02905080851015610a3257604080517f08c379a000000000000000000000000000000000000000000000000000000000815260206004820181905260248201527f5374616b696e673a204e6f7420656e6f756768206672656e7320706f696e7473604482015290519081900360640190fd5b6000838152600160208181526040808420338552808352908420805487019055959092529081905292830180547fffffffffffffffffffffffffffffffffffffffff00000000000000000000000081166bffffffffffffffffffffffff9182169094011692909217909155909203910161090f565b50336000818152602081815260408083206cffffffffffffffffffffffffff8616600590910155805181815290810188905283917f4a39dc06d4c0dbc64b70af90fd698a233a518aa5d07e595d983b8c0526c8f7fb918a918a918a918a919081908181019060608301908890880280828437600083820152601f017fffffffffffffffffffffffffffffffffffffffffffffffffffffffffffffffe0169091018481038352858152602090810191508690860280828437600083820152604051601f9091017fffffffffffffffffffffffffffffffffffffffffffffffffffffffffffffffe0169092018290039850909650505050505050a433803b908115610e17573363bc197c818160008a8a8a8a846040519080825280601f01601f191660200182016040528015610be2576020820181803683370190505b506040518863ffffffff1660e01b8152600401808873ffffffffffffffffffffffffffffffffffffffff1681526020018773ffffffffffffffffffffffffffffffffffffffff1681526020018060200180602001806020018481038452898982818152602001925060200280828437600083820152601f017fffffffffffffffffffffffffffffffffffffffffffffffffffffffffffffffe01690910185810384528781526020908101915088908802808284376000838201819052601f9091017fffffffffffffffffffffffffffffffffffffffffffffffffffffffffffffffe01690920186810384528751815287516020918201939189019250908190849084905b83811015610cfe578181015183820152602001610ce6565b50505050905090810190601f168015610d2b5780820380516001836020036101000a031916815260200191505b509a5050505050505050505050602060405180830381600087803b158015610d5257600080fd5b505af1158015610d66573d6000803e3d6000fd5b505050506040513d6020811015610d7c57600080fd5b50517fffffffff00000000000000000000000000000000000000000000000000000000167fbc197c810000000000000000000000000000000000000000000000000000000014610e17576040517f08c379a00000000000000000000000000000000000000000000000000000000081526004018080602001828103825260288152602001806117526028913960400191505060405180910390fd5b50505050505050565b610e28611134565b336000818152602081905260408120600401805491905560035490916105f39173ffffffffffffffffffffffffffffffffffffffff169083611356565b60608167ffffffffffffffff81118015610e7e57600080fd5b50604051908082528060200260200182016040528015610ea8578160200160208202803683370190505b50905060005b82811015610f0657610ee7848483818110610ec557fe5b9050602002013573ffffffffffffffffffffffffffffffffffffffff166105f6565b828281518110610ef357fe5b6020908102919091010152600101610eae565b5092915050565b610f15611134565b3360009081526020819052604090206004015481811015610f81576040517f08c379a00000000000000000000000000000000000000000000000000000000081526004018080602001828103825260288152602001806117a66028913960400191505060405180910390fd5b3360008181526020819052604090208383036bffffffffffffffffffffffff166004909101556003546108969173ffffffffffffffffffffffffffffffffffffffff9091169084611356565b600081610fe457506802b5e3af16b18800006110ca565b8160011415610ffd5750680d8d726b7177a800006110ca565b81600214156110165750681b1ae4d6e2ef5000006110ca565b816003141561102f575068878678326eac9000006110ca565b8160041415611049575069021e19e0c9bab24000006110ca565b81600514156110635750690a968163f0a57b4000006110ca565b604080517f08c379a000000000000000000000000000000000000000000000000000000000815260206004820152601b60248201527f5374616b696e673a205f696420646f6573206e6f742065786973740000000000604482015290519081900360640190fd5b919050565b6110d7611517565b6004015473ffffffffffffffffffffffffffffffffffffffff163314611132576040517f08c379a0000000000000000000000000000000000000000000000000000000008152600401611129906116c6565b60405180910390fd5b565b3360008181526020819052604090209061114d906105f6565b600582015560020180547fffffffffffffffffffffffffffffff0000000000ffffffffffffffffffffffff166c010000000000000000000000004264ffffffffff1602179055565b833b8061120357604080517f08c379a000000000000000000000000000000000000000000000000000000000815260206004820152601d60248201527f4c696245524332303a204164647265737320686173206e6f20636f6465000000604482015290519081900360640190fd5b6040805173ffffffffffffffffffffffffffffffffffffffff86811660248301528581166044830152606480830186905283518084039091018152608490920183526020820180517bffffffffffffffffffffffffffffffffffffffffffffffffffffffff167f23b872dd00000000000000000000000000000000000000000000000000000000178152925182516000948594938b169392918291908083835b602083106112e057805182527fffffffffffffffffffffffffffffffffffffffffffffffffffffffffffffffe090920191602091820191016112a3565b6001836020036101000a0380198251168184511680821785525050505050509050019150506000604051808303816000865af19150503d8060008114611342576040519150601f19603f3d011682016040523d82523d6000602084013e611347565b606091505b5091509150610e17828261153b565b823b806113c457604080517f08c379a000000000000000000000000000000000000000000000000000000000815260206004820152601d60248201527f4c696245524332303a204164647265737320686173206e6f20636f6465000000604482015290519081900360640190fd5b6040805173ffffffffffffffffffffffffffffffffffffffff8581166024830152604480830186905283518084039091018152606490920183526020820180517bffffffffffffffffffffffffffffffffffffffffffffffffffffffff167fa9059cbb00000000000000000000000000000000000000000000000000000000178152925182516000948594938a169392918291908083835b6020831061149957805182527fffffffffffffffffffffffffffffffffffffffffffffffffffffffffffffffe0909201916020918201910161145c565b6001836020036101000a0380198251168184511680821785525050505050509050019150506000604051808303816000865af19150503d80600081146114fb576040519150601f19603f3d011682016040523d82523d6000602084013e611500565b606091505b509150915061150f828261153b565b505050505050565b7fc8fcad8db84d3cc18b4c41d551ea0ee66dd599cde068d998e57d5e09332c131c90565b81156115b9578051156115b45780806020019051602081101561155d57600080fd5b50516115b4576040517f08c379a00000000000000000000000000000000000000000000000000000000081526004018080602001828103825260268152602001806117ce6026913960400191505060405180910390fd5b610896565b80511561165f57806040517f08c379a00000000000000000000000000000000000000000000000000000000081526004018080602001828103825283818151815260200191508051906020019080838360005b8381101561162457818101518382015260200161160c565b50505050905090810190601f1680156116515780820380516001836020036101000a031916815260200191505b509250505060405180910390fd5b604080517f08c379a000000000000000000000000000000000000000000000000000000000815260206004820181905260248201527f4c696245524332303a20636f6e74726163742063616c6c207265766572746564604482015290519081900360640190fd5b60208082526022908201527f4c69624469616d6f6e643a204d75737420626520636f6e7472616374206f776e60408201527f657200000000000000000000000000000000000000000000000000000000000060608201526080019056fe5374616b696e6746616365743a207374616b657273206e6f742073616d65206c656e677468206173206672656e735374616b696e673a205469636b6574207472616e736665722072656a65637465642f6661696c65645374616b696e673a205f696473206e6f74207468652073616d65206c656e677468206173205f76616c7565735374616b696e673a2043616e2774207769746864726177206d6f7265207468616e207374616b65644c696245524332303a20636f6e74726163742063616c6c2072657475726e65642066616c7365a2646970667358221220ac3ab5fa193999a77180e4dc1f1f24c543af377b79c40ac981b3ebaa7a6a113c64736f6c63430007060033",
  "linkReferences": {},
  "deployedLinkReferences": {}
}