{
  "_format": "hh-sol-artifact-1",
  "contractName": "StakingFacet",
  "sourceName": "contracts/facets/StakingFacet.sol",
  "abi": [
    {
      "anonymous": false,
      "inputs": [
        {
          "indexed": true,
          "internalType": "address",
          "name": "_from",
          "type": "address"
        },
        {
          "indexed": true,
          "internalType": "address",
          "name": "_to",
          "type": "address"
        },
        {
          "indexed": false,
          "internalType": "uint256",
          "name": "_value",
          "type": "uint256"
        }
      ],
      "name": "Transfer",
      "type": "event"
    },
    {
      "anonymous": false,
      "inputs": [
        {
          "indexed": true,
          "internalType": "address",
          "name": "_operator",
          "type": "address"
        },
        {
          "indexed": true,
          "internalType": "address",
          "name": "_from",
          "type": "address"
        },
        {
          "indexed": true,
          "internalType": "address",
          "name": "_to",
          "type": "address"
        },
        {
          "indexed": false,
          "internalType": "uint256[]",
          "name": "_ids",
          "type": "uint256[]"
        },
        {
          "indexed": false,
          "internalType": "uint256[]",
          "name": "_values",
          "type": "uint256[]"
        }
      ],
      "name": "TransferBatch",
      "type": "event"
    },
    {
      "inputs": [
        {
          "internalType": "address[]",
          "name": "_accounts",
          "type": "address[]"
        }
      ],
      "name": "bulkFrens",
      "outputs": [
        {
          "internalType": "uint256[]",
          "name": "frens_",
          "type": "uint256[]"
        }
      ],
      "stateMutability": "view",
      "type": "function"
    },
    {
      "inputs": [
        {
          "internalType": "uint256[]",
          "name": "_ids",
          "type": "uint256[]"
        },
        {
          "internalType": "uint256[]",
          "name": "_values",
          "type": "uint256[]"
        }
      ],
      "name": "claimTickets",
      "outputs": [],
      "stateMutability": "nonpayable",
      "type": "function"
    },
    {
      "inputs": [
        {
          "internalType": "address",
          "name": "_account",
          "type": "address"
        }
      ],
      "name": "frens",
      "outputs": [
        {
          "internalType": "uint256",
          "name": "frens_",
          "type": "uint256"
        }
      ],
      "stateMutability": "view",
      "type": "function"
    },
    {
      "inputs": [
        {
          "internalType": "address[]",
          "name": "_stakers",
          "type": "address[]"
        },
        {
          "internalType": "uint256[]",
          "name": "_frens",
          "type": "uint256[]"
        }
      ],
      "name": "migrateFrens",
      "outputs": [],
      "stateMutability": "nonpayable",
      "type": "function"
    },
    {
      "inputs": [
        {
          "internalType": "uint256",
          "name": "_ghstValue",
          "type": "uint256"
        }
      ],
      "name": "stakeGhst",
      "outputs": [],
      "stateMutability": "nonpayable",
      "type": "function"
    },
    {
      "inputs": [
        {
          "internalType": "uint256",
          "name": "_poolTokens",
          "type": "uint256"
        }
      ],
      "name": "stakePoolTokens",
      "outputs": [],
      "stateMutability": "nonpayable",
      "type": "function"
    },
    {
      "inputs": [
        {
          "internalType": "address",
          "name": "_account",
          "type": "address"
        }
      ],
      "name": "staked",
      "outputs": [
        {
          "internalType": "uint256",
          "name": "ghst_",
          "type": "uint256"
        },
        {
          "internalType": "uint256",
          "name": "poolTokens_",
          "type": "uint256"
        }
      ],
      "stateMutability": "view",
      "type": "function"
    },
    {
      "inputs": [
        {
          "internalType": "uint256",
          "name": "_id",
          "type": "uint256"
        }
      ],
      "name": "ticketCost",
      "outputs": [
        {
          "internalType": "uint256",
          "name": "_frensCost",
          "type": "uint256"
        }
      ],
      "stateMutability": "pure",
      "type": "function"
    },
    {
      "inputs": [],
      "name": "withdrawGhstStake",
      "outputs": [],
      "stateMutability": "nonpayable",
      "type": "function"
    },
    {
      "inputs": [
        {
          "internalType": "uint256",
          "name": "_ghstValue",
          "type": "uint256"
        }
      ],
      "name": "withdrawGhstStake",
      "outputs": [],
      "stateMutability": "nonpayable",
      "type": "function"
    },
    {
      "inputs": [],
      "name": "withdrawPoolStake",
      "outputs": [],
      "stateMutability": "nonpayable",
      "type": "function"
    },
    {
      "inputs": [
        {
          "internalType": "uint256",
          "name": "_poolTokens",
          "type": "uint256"
        }
      ],
      "name": "withdrawPoolStake",
      "outputs": [],
      "stateMutability": "nonpayable",
      "type": "function"
    }
  ],
  "bytecode": "0x608060405234801561001057600080fd5b50611947806100206000396000f3fe608060405234801561001057600080fd5b50600436106100d45760003560e01c80639119f15011610081578063aa061d091161005b578063aa061d09146102b2578063d097298e14610374578063f8a6103f14610434576100d4565b80639119f1501461024157806398807d84146102495780639c0dfa0114610295576100d4565b80634b334ef6116100b25780634b334ef6146101c25780637cee37951461020757806388fa5b0414610224576100d4565b80630fe6ed26146100d957806326064b6d1461019d578063379483c1146101a5575b600080fd5b61019b600480360360408110156100ef57600080fd5b81019060208101813564010000000081111561010a57600080fd5b82018360208201111561011c57600080fd5b8035906020019184602083028401116401000000008311171561013e57600080fd5b91939092909160208101903564010000000081111561015c57600080fd5b82018360208201111561016e57600080fd5b8035906020019184602083028401116401000000008311171561019057600080fd5b509092509050610451565b005b61019b61059e565b61019b600480360360208110156101bb57600080fd5b5035610681565b6101f5600480360360208110156101d857600080fd5b503573ffffffffffffffffffffffffffffffffffffffff16610774565b60408051918252519081900360200190f35b61019b6004803603602081101561021d57600080fd5b50356107ea565b61019b6004803603602081101561023a57600080fd5b503561086c565b61019b6108ea565b61027c6004803603602081101561025f57600080fd5b503573ffffffffffffffffffffffffffffffffffffffff16610962565b6040805192835260208301919091528051918290030190f35b61019b600480360360208110156102ab57600080fd5b50356109a4565b61019b600480360360408110156102c857600080fd5b8101906020810181356401000000008111156102e357600080fd5b8201836020820111156102f557600080fd5b8035906020019184602083028401116401000000008311171561031757600080fd5b91939092909160208101903564010000000081111561033557600080fd5b82018360208201111561034757600080fd5b8035906020019184602083028401116401000000008311171561036957600080fd5b509092509050610a96565b6103e46004803603602081101561038a57600080fd5b8101906020810181356401000000008111156103a557600080fd5b8201836020820111156103b757600080fd5b803590602001918460208302840111640100000000831117156103d957600080fd5b50909250905061101c565b60408051602080825283518183015283519192839290830191858101910280838360005b83811015610420578181015183820152602001610408565b505050509050019250505060405180910390f35b6101f56004803603602081101561044a57600080fd5b50356110c4565b6104596111c6565b8281146104b1576040517f08c379a000000000000000000000000000000000000000000000000000000000815260040180806020018281038252602e81526020018061181b602e913960400191505060405180910390fd5b60005b8381101561059757600080808787858181106104cc57fe5b9050602002013573ffffffffffffffffffffffffffffffffffffffff1673ffffffffffffffffffffffffffffffffffffffff1673ffffffffffffffffffffffffffffffffffffffff168152602001908152602001600020905083838381811061053157fe5b60200291909101356cffffffffffffffffffffffffff1660048301555060020180547fffffffffffffffffffffffffffffff0000000000ffffffffffffffffffffffff166c010000000000000000000000004264ffffffffff16021790556001016104b4565b5050505050565b6105a661122b565b336000908152602081905260409020600301548061060f576040517f08c379a00000000000000000000000000000000000000000000000000000000081526004018080602001828103825260278152602001806118c56027913960400191505060405180910390fd5b33600081815260208181526040808320600301839055805185815290519293927fddf252ad1be2c89b69c2b068fc378daa952ba7f163c4a11628f55a4df523b3ef929181900390910190a360035461067e9073ffffffffffffffffffffffffffffffffffffffff16338361128c565b50565b61068961122b565b33600090815260208190526040902060030154818110156106f5576040517f08c379a000000000000000000000000000000000000000000000000000000000815260040180806020018281038252602881526020018061189d6028913960400191505060405180910390fd5b33600081815260208181526040808320868603600390910155600580548790039055805186815290519293927fddf252ad1be2c89b69c2b068fc378daa952ba7f163c4a11628f55a4df523b3ef929181900390910190a36003546107709073ffffffffffffffffffffffffffffffffffffffff16338461128c565b5050565b73ffffffffffffffffffffffffffffffffffffffff166000908152602081905260409020600281015460048201546003909201546201518064ffffffffff6c0100000000000000000000000084041642039182026064028190049093016bffffffffffffffffffffffff90921602919091040190565b6107f261122b565b3360008181526020818152604080832060038101805487019055600580548701905581518681529151909493927fddf252ad1be2c89b69c2b068fc378daa952ba7f163c4a11628f55a4df523b3ef928290030190a36003546107709073ffffffffffffffffffffffffffffffffffffffff1633308561144d565b61087461122b565b336000818152602081905260409020600290810180546bffffffffffffffffffffffff8082168601167fffffffffffffffffffffffffffffffffffffffff0000000000000000000000009091161790555461067e9173ffffffffffffffffffffffffffffffffffffffff9190911690308461144d565b6108f261122b565b336000818152602081905260409020600290810180547fffffffffffffffffffffffffffffffffffffffff000000000000000000000000811690915590546bffffffffffffffffffffffff9091169161067e9173ffffffffffffffffffffffffffffffffffffffff16908361128c565b73ffffffffffffffffffffffffffffffffffffffff16600090815260208190526040902060028101546003909101546bffffffffffffffffffffffff90911691565b6109ac61122b565b336000908152602081905260409020600201546bffffffffffffffffffffffff1681811015610a26576040517f08c379a000000000000000000000000000000000000000000000000000000000815260040180806020018281038252602881526020018061189d6028913960400191505060405180910390fd5b336000818152602081905260409020600290810180547fffffffffffffffffffffffffffffffffffffffff000000000000000000000000168585036bffffffffffffffffffffffff16179055546107709173ffffffffffffffffffffffffffffffffffffffff909116908461128c565b828114610aee576040517f08c379a000000000000000000000000000000000000000000000000000000000815260040180806020018281038252602c815260200180611871602c913960400191505060405180910390fd5b610af661122b565b33600090815260208190526040812060040154905b84811015610ca3576000868683818110610b2157fe5b9050602002013590506000858584818110610b3857fe5b90506020020135905060068210610bb057604080517f08c379a000000000000000000000000000000000000000000000000000000000815260206004820152601960248201527f5374616b696e673a205469636b6574206e6f7420666f756e6400000000000000604482015290519081900360640190fd5b600081610bbc846110c4565b02905080851015610c2e57604080517f08c379a000000000000000000000000000000000000000000000000000000000815260206004820181905260248201527f5374616b696e673a204e6f7420656e6f756768206672656e7320706f696e7473604482015290519081900360640190fd5b6000838152600160208181526040808420338552808352908420805487019055959092529081905292830180547fffffffffffffffffffffffffffffffffffffffff00000000000000000000000081166bffffffffffffffffffffffff91821690940116929092179091559092039101610b0b565b50336000818152602081815260408083206cffffffffffffffffffffffffff8616600490910155805181815290810188905283917f4a39dc06d4c0dbc64b70af90fd698a233a518aa5d07e595d983b8c0526c8f7fb918a918a918a918a919081908181019060608301908890880280828437600083820152601f017fffffffffffffffffffffffffffffffffffffffffffffffffffffffffffffffe0169091018481038352858152602090810191508690860280828437600083820152604051601f9091017fffffffffffffffffffffffffffffffffffffffffffffffffffffffffffffffe0169092018290039850909650505050505050a433803b908115611013573363bc197c818160008a8a8a8a846040519080825280601f01601f191660200182016040528015610dde576020820181803683370190505b506040518863ffffffff1660e01b8152600401808873ffffffffffffffffffffffffffffffffffffffff1681526020018773ffffffffffffffffffffffffffffffffffffffff1681526020018060200180602001806020018481038452898982818152602001925060200280828437600083820152601f017fffffffffffffffffffffffffffffffffffffffffffffffffffffffffffffffe01690910185810384528781526020908101915088908802808284376000838201819052601f9091017fffffffffffffffffffffffffffffffffffffffffffffffffffffffffffffffe01690920186810384528751815287516020918201939189019250908190849084905b83811015610efa578181015183820152602001610ee2565b50505050905090810190601f168015610f275780820380516001836020036101000a031916815260200191505b509a5050505050505050505050602060405180830381600087803b158015610f4e57600080fd5b505af1158015610f62573d6000803e3d6000fd5b505050506040513d6020811015610f7857600080fd5b50517fffffffff00000000000000000000000000000000000000000000000000000000167fbc197c810000000000000000000000000000000000000000000000000000000014611013576040517f08c379a00000000000000000000000000000000000000000000000000000000081526004018080602001828103825260288152602001806118496028913960400191505060405180910390fd5b50505050505050565b60608167ffffffffffffffff8111801561103557600080fd5b5060405190808252806020026020018201604052801561105f578160200160208202803683370190505b50905060005b828110156110bd5761109e84848381811061107c57fe5b9050602002013573ffffffffffffffffffffffffffffffffffffffff16610774565b8282815181106110aa57fe5b6020908102919091010152600101611065565b5092915050565b6000816110db57506802b5e3af16b18800006111c1565b81600114156110f45750680d8d726b7177a800006111c1565b816002141561110d5750681b1ae4d6e2ef5000006111c1565b8160031415611126575068878678326eac9000006111c1565b8160041415611140575069021e19e0c9bab24000006111c1565b816005141561115a5750690a968163f0a57b4000006111c1565b604080517f08c379a000000000000000000000000000000000000000000000000000000000815260206004820152601b60248201527f5374616b696e673a205f696420646f6573206e6f742065786973740000000000604482015290519081900360640190fd5b919050565b6111ce61160e565b6004015473ffffffffffffffffffffffffffffffffffffffff163314611229576040517f08c379a0000000000000000000000000000000000000000000000000000000008152600401611220906117bd565b60405180910390fd5b565b3360008181526020819052604090209061124490610774565b600482015560020180547fffffffffffffffffffffffffffffff0000000000ffffffffffffffffffffffff166c010000000000000000000000004264ffffffffff1602179055565b823b806112fa57604080517f08c379a000000000000000000000000000000000000000000000000000000000815260206004820152601d60248201527f4c696245524332303a204164647265737320686173206e6f20636f6465000000604482015290519081900360640190fd5b6040805173ffffffffffffffffffffffffffffffffffffffff8581166024830152604480830186905283518084039091018152606490920183526020820180517bffffffffffffffffffffffffffffffffffffffffffffffffffffffff167fa9059cbb00000000000000000000000000000000000000000000000000000000178152925182516000948594938a169392918291908083835b602083106113cf57805182527fffffffffffffffffffffffffffffffffffffffffffffffffffffffffffffffe09092019160209182019101611392565b6001836020036101000a0380198251168184511680821785525050505050509050019150506000604051808303816000865af19150503d8060008114611431576040519150601f19603f3d011682016040523d82523d6000602084013e611436565b606091505b50915091506114458282611632565b505050505050565b833b806114bb57604080517f08c379a000000000000000000000000000000000000000000000000000000000815260206004820152601d60248201527f4c696245524332303a204164647265737320686173206e6f20636f6465000000604482015290519081900360640190fd5b6040805173ffffffffffffffffffffffffffffffffffffffff86811660248301528581166044830152606480830186905283518084039091018152608490920183526020820180517bffffffffffffffffffffffffffffffffffffffffffffffffffffffff167f23b872dd00000000000000000000000000000000000000000000000000000000178152925182516000948594938b169392918291908083835b6020831061159857805182527fffffffffffffffffffffffffffffffffffffffffffffffffffffffffffffffe0909201916020918201910161155b565b6001836020036101000a0380198251168184511680821785525050505050509050019150506000604051808303816000865af19150503d80600081146115fa576040519150601f19603f3d011682016040523d82523d6000602084013e6115ff565b606091505b50915091506110138282611632565b7fc8fcad8db84d3cc18b4c41d551ea0ee66dd599cde068d998e57d5e09332c131c90565b81156116b0578051156116ab5780806020019051602081101561165457600080fd5b50516116ab576040517f08c379a00000000000000000000000000000000000000000000000000000000081526004018080602001828103825260268152602001806118ec6026913960400191505060405180910390fd5b610770565b80511561175657806040517f08c379a00000000000000000000000000000000000000000000000000000000081526004018080602001828103825283818151815260200191508051906020019080838360005b8381101561171b578181015183820152602001611703565b50505050905090810190601f1680156117485780820380516001836020036101000a031916815260200191505b509250505060405180910390fd5b604080517f08c379a000000000000000000000000000000000000000000000000000000000815260206004820181905260248201527f4c696245524332303a20636f6e74726163742063616c6c207265766572746564604482015290519081900360640190fd5b60208082526022908201527f4c69624469616d6f6e643a204d75737420626520636f6e7472616374206f776e60408201527f657200000000000000000000000000000000000000000000000000000000000060608201526080019056fe5374616b696e6746616365743a207374616b657273206e6f742073616d65206c656e677468206173206672656e735374616b696e673a205469636b6574207472616e736665722072656a65637465642f6661696c65645374616b696e673a205f696473206e6f74207468652073616d65206c656e677468206173205f76616c7565735374616b696e673a2043616e2774207769746864726177206d6f7265207468616e207374616b656443616e6e6f74207769746864726177207a65726f20706f6f6c207374616b652062616c616e63654c696245524332303a20636f6e74726163742063616c6c2072657475726e65642066616c7365a264697066735822122063113da872ba3ea8845da06417a7aa7d93a3eab6261df9423a0d2a7eea4a6c2064736f6c63430007060033",
  "linkReferences": {},
  "deployedLinkReferences": {}
}