{
  "_format": "hh-sol-artifact-1",
  "contractName": "StakingFacet",
  "sourceName": "contracts/facets/StakingFacet.sol",
  "abi": [
    {
      "anonymous": false,
      "inputs": [
        {
          "indexed": true,
          "internalType": "uint256",
          "name": "_newEpoch",
          "type": "uint256"
        }
      ],
      "name": "EpochIncreased",
      "type": "event"
    },
    {
      "anonymous": false,
      "inputs": [
        {
          "indexed": false,
          "internalType": "uint256",
          "name": "_newRate",
          "type": "uint256"
        }
      ],
      "name": "GhstUsdcRate",
      "type": "event"
    },
    {
      "anonymous": false,
      "inputs": [
        {
          "indexed": false,
          "internalType": "uint256",
          "name": "_newRate",
          "type": "uint256"
        }
      ],
      "name": "GhstWethRate",
      "type": "event"
    },
    {
      "anonymous": false,
      "inputs": [
        {
          "indexed": true,
          "internalType": "address",
          "name": "_poolAddress",
          "type": "address"
        },
        {
          "indexed": true,
          "internalType": "uint256",
          "name": "_epoch",
          "type": "uint256"
        }
      ],
      "name": "PoolAddedInEpoch",
      "type": "event"
    },
    {
      "anonymous": false,
      "inputs": [
        {
          "indexed": false,
          "internalType": "uint256",
          "name": "_newRate",
          "type": "uint256"
        }
      ],
      "name": "PoolTokensRate",
      "type": "event"
    },
    {
      "anonymous": false,
      "inputs": [
        {
          "indexed": true,
          "internalType": "address",
          "name": "rateManager_",
          "type": "address"
        }
      ],
      "name": "RateManagerAdded",
      "type": "event"
    },
    {
      "anonymous": false,
      "inputs": [
        {
          "indexed": true,
          "internalType": "address",
          "name": "rateManager_",
          "type": "address"
        }
      ],
      "name": "RateManagerRemoved",
      "type": "event"
    },
    {
      "anonymous": false,
      "inputs": [
        {
          "indexed": true,
          "internalType": "address",
          "name": "_account",
          "type": "address"
        },
        {
          "indexed": true,
          "internalType": "address",
          "name": "_poolAddress",
          "type": "address"
        },
        {
          "indexed": true,
          "internalType": "uint256",
          "name": "_epoch",
          "type": "uint256"
        },
        {
          "indexed": false,
          "internalType": "uint256",
          "name": "_amount",
          "type": "uint256"
        }
      ],
      "name": "StakeInEpoch",
      "type": "event"
    },
    {
      "anonymous": false,
      "inputs": [
        {
          "indexed": true,
          "internalType": "address",
          "name": "_from",
          "type": "address"
        },
        {
          "indexed": true,
          "internalType": "address",
          "name": "_to",
          "type": "address"
        },
        {
          "indexed": false,
          "internalType": "uint256",
          "name": "_value",
          "type": "uint256"
        }
      ],
      "name": "Transfer",
      "type": "event"
    },
    {
      "anonymous": false,
      "inputs": [
        {
          "indexed": true,
          "internalType": "address",
          "name": "_operator",
          "type": "address"
        },
        {
          "indexed": true,
          "internalType": "address",
          "name": "_from",
          "type": "address"
        },
        {
          "indexed": true,
          "internalType": "address",
          "name": "_to",
          "type": "address"
        },
        {
          "indexed": false,
          "internalType": "uint256[]",
          "name": "_ids",
          "type": "uint256[]"
        },
        {
          "indexed": false,
          "internalType": "uint256[]",
          "name": "_values",
          "type": "uint256[]"
        }
      ],
      "name": "TransferBatch",
      "type": "event"
    },
    {
      "anonymous": false,
      "inputs": [
        {
          "indexed": true,
          "internalType": "address",
          "name": "_account",
          "type": "address"
        }
      ],
      "name": "UserMigrated",
      "type": "event"
    },
    {
      "anonymous": false,
      "inputs": [
        {
          "indexed": true,
          "internalType": "address",
          "name": "_account",
          "type": "address"
        },
        {
          "indexed": true,
          "internalType": "address",
          "name": "_poolAddress",
          "type": "address"
        },
        {
          "indexed": true,
          "internalType": "uint256",
          "name": "_epoch",
          "type": "uint256"
        },
        {
          "indexed": false,
          "internalType": "uint256",
          "name": "_amount",
          "type": "uint256"
        }
      ],
      "name": "WithdrawInEpoch",
      "type": "event"
    },
    {
      "inputs": [
        {
          "internalType": "address[]",
          "name": "rateManagers_",
          "type": "address[]"
        }
      ],
      "name": "addRateManagers",
      "outputs": [],
      "stateMutability": "nonpayable",
      "type": "function"
    },
    {
      "inputs": [
        {
          "internalType": "address[]",
          "name": "_stakers",
          "type": "address[]"
        },
        {
          "internalType": "uint256[]",
          "name": "_frens",
          "type": "uint256[]"
        }
      ],
      "name": "adjustFrens",
      "outputs": [],
      "stateMutability": "nonpayable",
      "type": "function"
    },
    {
      "inputs": [
        {
          "internalType": "address[]",
          "name": "_stakers",
          "type": "address[]"
        },
        {
          "internalType": "uint256[]",
          "name": "_amounts",
          "type": "uint256[]"
        }
      ],
      "name": "adjustFrensDown",
      "outputs": [],
      "stateMutability": "nonpayable",
      "type": "function"
    },
    {
      "inputs": [
        {
          "internalType": "address[]",
          "name": "_accounts",
          "type": "address[]"
        }
      ],
      "name": "bulkFrens",
      "outputs": [
        {
          "internalType": "uint256[]",
          "name": "frens_",
          "type": "uint256[]"
        }
      ],
      "stateMutability": "view",
      "type": "function"
    },
    {
      "inputs": [
        {
          "internalType": "address",
          "name": "_account",
          "type": "address"
        },
        {
          "internalType": "uint256",
          "name": "_epoch",
          "type": "uint256"
        }
      ],
      "name": "bumpEpoch",
      "outputs": [],
      "stateMutability": "nonpayable",
      "type": "function"
    },
    {
      "inputs": [
        {
          "internalType": "uint256[]",
          "name": "_ids",
          "type": "uint256[]"
        },
        {
          "internalType": "uint256[]",
          "name": "_values",
          "type": "uint256[]"
        }
      ],
      "name": "claimTickets",
      "outputs": [],
      "stateMutability": "nonpayable",
      "type": "function"
    },
    {
      "inputs": [
        {
          "internalType": "uint256[]",
          "name": "_ids",
          "type": "uint256[]"
        },
        {
          "internalType": "uint256[]",
          "name": "_values",
          "type": "uint256[]"
        }
      ],
      "name": "convertTickets",
      "outputs": [],
      "stateMutability": "nonpayable",
      "type": "function"
    },
    {
      "inputs": [],
      "name": "currentEpoch",
      "outputs": [
        {
          "internalType": "uint256",
          "name": "",
          "type": "uint256"
        }
      ],
      "stateMutability": "view",
      "type": "function"
    },
    {
      "inputs": [
        {
          "internalType": "address",
          "name": "_account",
          "type": "address"
        }
      ],
      "name": "deprecatedFrens",
      "outputs": [
        {
          "internalType": "uint256",
          "name": "frens_",
          "type": "uint256"
        }
      ],
      "stateMutability": "view",
      "type": "function"
    },
    {
      "inputs": [
        {
          "internalType": "address",
          "name": "_account",
          "type": "address"
        }
      ],
      "name": "frens",
      "outputs": [
        {
          "internalType": "uint256",
          "name": "frens_",
          "type": "uint256"
        }
      ],
      "stateMutability": "view",
      "type": "function"
    },
    {
      "inputs": [
        {
          "internalType": "address",
          "name": "_poolAddress",
          "type": "address"
        },
        {
          "internalType": "uint256",
          "name": "_epoch",
          "type": "uint256"
        }
      ],
      "name": "getPoolInfo",
      "outputs": [
        {
          "components": [
            {
              "internalType": "address",
              "name": "_poolAddress",
              "type": "address"
            },
            {
              "internalType": "address",
              "name": "_poolReceiptToken",
              "type": "address"
            },
            {
              "internalType": "uint256",
              "name": "_rate",
              "type": "uint256"
            },
            {
              "internalType": "string",
              "name": "_poolName",
              "type": "string"
            },
            {
              "internalType": "string",
              "name": "_poolUrl",
              "type": "string"
            }
          ],
          "internalType": "struct StakingFacet.PoolInput",
          "name": "_poolInfo",
          "type": "tuple"
        }
      ],
      "stateMutability": "view",
      "type": "function"
    },
    {
      "inputs": [],
      "name": "getStkGhstUsdcToken",
      "outputs": [
        {
          "internalType": "address",
          "name": "",
          "type": "address"
        }
      ],
      "stateMutability": "view",
      "type": "function"
    },
    {
      "inputs": [
        {
          "internalType": "address",
          "name": "_account",
          "type": "address"
        },
        {
          "internalType": "address",
          "name": "_poolAddress",
          "type": "address"
        }
      ],
      "name": "getUserStake",
      "outputs": [
        {
          "internalType": "uint256",
          "name": "",
          "type": "uint256"
        }
      ],
      "stateMutability": "view",
      "type": "function"
    },
    {
      "inputs": [
        {
          "internalType": "address",
          "name": "_account",
          "type": "address"
        }
      ],
      "name": "hasMigrated",
      "outputs": [
        {
          "internalType": "bool",
          "name": "",
          "type": "bool"
        }
      ],
      "stateMutability": "view",
      "type": "function"
    },
    {
      "inputs": [
        {
          "components": [
            {
              "internalType": "address",
              "name": "_poolAddress",
              "type": "address"
            },
            {
              "internalType": "address",
              "name": "_poolReceiptToken",
              "type": "address"
            },
            {
              "internalType": "uint256",
              "name": "_rate",
              "type": "uint256"
            },
            {
              "internalType": "string",
              "name": "_poolName",
              "type": "string"
            },
            {
              "internalType": "string",
              "name": "_poolUrl",
              "type": "string"
            }
          ],
          "internalType": "struct StakingFacet.PoolInput[]",
          "name": "_pools",
          "type": "tuple[]"
        }
      ],
      "name": "initiateEpoch",
      "outputs": [],
      "stateMutability": "nonpayable",
      "type": "function"
    },
    {
      "inputs": [
        {
          "internalType": "address",
          "name": "account",
          "type": "address"
        }
      ],
      "name": "isRateManager",
      "outputs": [
        {
          "internalType": "bool",
          "name": "",
          "type": "bool"
        }
      ],
      "stateMutability": "view",
      "type": "function"
    },
    {
      "inputs": [
        {
          "internalType": "address[]",
          "name": "_accounts",
          "type": "address[]"
        }
      ],
      "name": "migrateToV2",
      "outputs": [],
      "stateMutability": "nonpayable",
      "type": "function"
    },
    {
      "inputs": [
        {
          "internalType": "uint256",
          "name": "_epoch",
          "type": "uint256"
        }
      ],
      "name": "poolRatesInEpoch",
      "outputs": [
        {
          "components": [
            {
              "internalType": "address",
              "name": "poolAddress",
              "type": "address"
            },
            {
              "internalType": "string",
              "name": "poolName",
              "type": "string"
            },
            {
              "internalType": "string",
              "name": "poolUrl",
              "type": "string"
            },
            {
              "internalType": "uint256",
              "name": "rate",
              "type": "uint256"
            },
            {
              "internalType": "uint256",
              "name": "amount",
              "type": "uint256"
            }
          ],
          "internalType": "struct StakingFacet.PoolStakedOutput[]",
          "name": "_rates",
          "type": "tuple[]"
        }
      ],
      "stateMutability": "view",
      "type": "function"
    },
    {
      "inputs": [
        {
          "internalType": "address[]",
          "name": "rateManagers_",
          "type": "address[]"
        }
      ],
      "name": "removeRateManagers",
      "outputs": [],
      "stateMutability": "nonpayable",
      "type": "function"
    },
    {
      "inputs": [
        {
          "internalType": "uint256",
          "name": "_ghstValue",
          "type": "uint256"
        }
      ],
      "name": "stakeGhst",
      "outputs": [],
      "stateMutability": "nonpayable",
      "type": "function"
    },
    {
      "inputs": [
        {
          "internalType": "uint256",
          "name": "_poolTokens",
          "type": "uint256"
        }
      ],
      "name": "stakeGhstUsdcPoolTokens",
      "outputs": [],
      "stateMutability": "nonpayable",
      "type": "function"
    },
    {
      "inputs": [
        {
          "internalType": "uint256",
          "name": "_poolTokens",
          "type": "uint256"
        }
      ],
      "name": "stakeGhstWethPoolTokens",
      "outputs": [],
      "stateMutability": "nonpayable",
      "type": "function"
    },
    {
      "inputs": [
        {
          "internalType": "address",
          "name": "_poolContractAddress",
          "type": "address"
        },
        {
          "internalType": "uint256",
          "name": "_amount",
          "type": "uint256"
        }
      ],
      "name": "stakeIntoPool",
      "outputs": [],
      "stateMutability": "nonpayable",
      "type": "function"
    },
    {
      "inputs": [
        {
          "internalType": "address",
          "name": "_poolContractAddress",
          "type": "address"
        },
        {
          "internalType": "uint256",
          "name": "_amount",
          "type": "uint256"
        },
        {
          "internalType": "address",
          "name": "_sender",
          "type": "address"
        }
      ],
      "name": "stakeIntoPoolForUser",
      "outputs": [],
      "stateMutability": "nonpayable",
      "type": "function"
    },
    {
      "inputs": [
        {
          "internalType": "uint256",
          "name": "_poolTokens",
          "type": "uint256"
        }
      ],
      "name": "stakePoolTokens",
      "outputs": [],
      "stateMutability": "nonpayable",
      "type": "function"
    },
    {
      "inputs": [
        {
          "internalType": "address",
          "name": "_account",
          "type": "address"
        }
      ],
      "name": "staked",
      "outputs": [
        {
          "internalType": "uint256",
          "name": "ghst_",
          "type": "uint256"
        },
        {
          "internalType": "uint256",
          "name": "poolTokens_",
          "type": "uint256"
        },
        {
          "internalType": "uint256",
          "name": "ghstUsdcPoolToken_",
          "type": "uint256"
        },
        {
          "internalType": "uint256",
          "name": "ghstWethPoolToken_",
          "type": "uint256"
        }
      ],
      "stateMutability": "view",
      "type": "function"
    },
    {
      "inputs": [
        {
          "internalType": "address",
          "name": "_account",
          "type": "address"
        }
      ],
      "name": "stakedInCurrentEpoch",
      "outputs": [
        {
          "components": [
            {
              "internalType": "address",
              "name": "poolAddress",
              "type": "address"
            },
            {
              "internalType": "string",
              "name": "poolName",
              "type": "string"
            },
            {
              "internalType": "string",
              "name": "poolUrl",
              "type": "string"
            },
            {
              "internalType": "uint256",
              "name": "rate",
              "type": "uint256"
            },
            {
              "internalType": "uint256",
              "name": "amount",
              "type": "uint256"
            }
          ],
          "internalType": "struct StakingFacet.PoolStakedOutput[]",
          "name": "_staked",
          "type": "tuple[]"
        }
      ],
      "stateMutability": "view",
      "type": "function"
    },
    {
      "inputs": [
        {
          "internalType": "address",
          "name": "_account",
          "type": "address"
        },
        {
          "internalType": "uint256",
          "name": "_epoch",
          "type": "uint256"
        }
      ],
      "name": "stakedInEpoch",
      "outputs": [
        {
          "components": [
            {
              "internalType": "address",
              "name": "poolAddress",
              "type": "address"
            },
            {
              "internalType": "string",
              "name": "poolName",
              "type": "string"
            },
            {
              "internalType": "string",
              "name": "poolUrl",
              "type": "string"
            },
            {
              "internalType": "uint256",
              "name": "rate",
              "type": "uint256"
            },
            {
              "internalType": "uint256",
              "name": "amount",
              "type": "uint256"
            }
          ],
          "internalType": "struct StakingFacet.PoolStakedOutput[]",
          "name": "_staked",
          "type": "tuple[]"
        }
      ],
      "stateMutability": "view",
      "type": "function"
    },
    {
      "inputs": [
        {
          "components": [
            {
              "internalType": "address",
              "name": "_poolAddress",
              "type": "address"
            },
            {
              "internalType": "address",
              "name": "_poolReceiptToken",
              "type": "address"
            },
            {
              "internalType": "uint256",
              "name": "_rate",
              "type": "uint256"
            },
            {
              "internalType": "string",
              "name": "_poolName",
              "type": "string"
            },
            {
              "internalType": "string",
              "name": "_poolUrl",
              "type": "string"
            }
          ],
          "internalType": "struct StakingFacet.PoolInput[]",
          "name": "_newPools",
          "type": "tuple[]"
        }
      ],
      "name": "sunsetFrens",
      "outputs": [],
      "stateMutability": "nonpayable",
      "type": "function"
    },
    {
      "inputs": [
        {
          "internalType": "uint256",
          "name": "_id",
          "type": "uint256"
        }
      ],
      "name": "ticketCost",
      "outputs": [
        {
          "internalType": "uint256",
          "name": "_frensCost",
          "type": "uint256"
        }
      ],
      "stateMutability": "pure",
      "type": "function"
    },
    {
      "inputs": [],
      "name": "togglePauseTickets",
      "outputs": [],
      "stateMutability": "nonpayable",
      "type": "function"
    },
    {
      "inputs": [
        {
          "internalType": "uint256",
          "name": "_currentEpoch",
          "type": "uint256"
        },
        {
          "components": [
            {
              "internalType": "address",
              "name": "_poolAddress",
              "type": "address"
            },
            {
              "internalType": "address",
              "name": "_poolReceiptToken",
              "type": "address"
            },
            {
              "internalType": "uint256",
              "name": "_rate",
              "type": "uint256"
            },
            {
              "internalType": "string",
              "name": "_poolName",
              "type": "string"
            },
            {
              "internalType": "string",
              "name": "_poolUrl",
              "type": "string"
            }
          ],
          "internalType": "struct StakingFacet.PoolInput[]",
          "name": "_newPools",
          "type": "tuple[]"
        }
      ],
      "name": "updateRates",
      "outputs": [],
      "stateMutability": "nonpayable",
      "type": "function"
    },
    {
      "inputs": [
        {
          "internalType": "address",
          "name": "_poolAddress",
          "type": "address"
        },
        {
          "internalType": "address",
          "name": "_tokenAddress",
          "type": "address"
        }
      ],
      "name": "updateReceiptToken",
      "outputs": [],
      "stateMutability": "nonpayable",
      "type": "function"
    },
    {
      "inputs": [
        {
          "internalType": "address",
          "name": "_account",
          "type": "address"
        }
      ],
      "name": "userEpoch",
      "outputs": [
        {
          "internalType": "uint256",
          "name": "",
          "type": "uint256"
        }
      ],
      "stateMutability": "view",
      "type": "function"
    },
    {
      "inputs": [
        {
          "internalType": "address",
          "name": "_poolContractAddress",
          "type": "address"
        },
        {
          "internalType": "uint256",
          "name": "_amount",
          "type": "uint256"
        }
      ],
      "name": "withdrawFromPool",
      "outputs": [],
      "stateMutability": "nonpayable",
      "type": "function"
    },
    {
      "inputs": [
        {
          "internalType": "address",
          "name": "_poolContractAddress",
          "type": "address"
        },
        {
          "internalType": "uint256",
          "name": "_amount",
          "type": "uint256"
        },
        {
          "internalType": "address",
          "name": "_sender",
          "type": "address"
        }
      ],
      "name": "withdrawFromPoolForUser",
      "outputs": [],
      "stateMutability": "nonpayable",
      "type": "function"
    },
    {
      "inputs": [
        {
          "internalType": "uint256",
          "name": "_ghstValue",
          "type": "uint256"
        }
      ],
      "name": "withdrawGhstStake",
      "outputs": [],
      "stateMutability": "nonpayable",
      "type": "function"
    },
    {
      "inputs": [
        {
          "internalType": "uint256",
          "name": "_poolTokens",
          "type": "uint256"
        }
      ],
      "name": "withdrawGhstUsdcPoolStake",
      "outputs": [],
      "stateMutability": "nonpayable",
      "type": "function"
    },
    {
      "inputs": [
        {
          "internalType": "uint256",
          "name": "_poolTokens",
          "type": "uint256"
        }
      ],
      "name": "withdrawGhstWethPoolStake",
      "outputs": [],
      "stateMutability": "nonpayable",
      "type": "function"
    },
    {
      "inputs": [
        {
          "internalType": "uint256",
          "name": "_poolTokens",
          "type": "uint256"
        }
      ],
      "name": "withdrawPoolStake",
      "outputs": [],
      "stateMutability": "nonpayable",
      "type": "function"
    }
  ],
  "bytecode": "0x608060405234801561001057600080fd5b506141f8806100206000396000f3fe608060405234801561001057600080fd5b50600436106102485760003560e01c806388fa5b041161013b578063cd88662d116100b8578063e6b843751161007c578063e6b843751461052e578063e96d503314610541578063f8a6103f14610554578063fb97142314610567578063fcc7a2bf1461057a57610248565b8063cd88662d146104c2578063d097298e146104d5578063d196eae3146104f5578063d7625c8814610508578063e37ecc3c1461051b57610248565b8063a4d46d41116100ff578063a4d46d4114610463578063aa061d0914610476578063af2c9df114610489578063c1bf9e581461049c578063cb03623a146104af57610248565b806388fa5b04146103f45780639392e9921461040757806398807d841461041a5780639c0dfa011461043d578063a488eeba1461045057610248565b8063495d3c0f116101c95780637838bd711161018d5780637838bd71146103865780637cee3795146103a65780637d1c2f92146103b957806381b62f5b146103d9578063830c8c86146103e157610248565b8063495d3c0f146103325780634b334ef614610345578063564e3a53146103585780635be947691461036b578063766718081461037e57610248565b80633d55abf4116102105780633d55abf4146102d157806340bf49d9146102e657806344ca37c8146102f95780634770dc751461030c57806348e2dcab1461031f57610248565b8063203b2cd01461024d5780632a3bc871146102625780632eb9b135146102755780633710d4c71461029e578063379483c1146102be575b600080fd5b61026061025b36600461348e565b61058d565b005b61026061027036600461348e565b6105a6565b61028861028336600461322a565b6105bc565b6040516102959190613804565b60405180910390f35b6102b16102ac36600461324b565b6105de565b604051610295919061404e565b6102606102cc36600461348e565b61060d565b6102d9610623565b60405161029591906135c0565b6102606102f436600461324b565b610633565b610260610307366004613320565b610669565b61026061031a3660046132a6565b61071d565b61026061032d3660046132e1565b6109cd565b6102606103403660046132e1565b610a91565b6102b161035336600461322a565b610aab565b61026061036636600461348e565b610ae8565b6102606103793660046134be565b610afe565b6102b1610b6b565b61039961039436600461348e565b610b71565b60405161029591906136e4565b6102606103b436600461348e565b610dd0565b6103cc6103c736600461327d565b610de6565b6040516102959190613feb565b610260610f62565b6102606103ef366004613388565b610f7e565b61026061040236600461348e565b610fb2565b610260610415366004613417565b610fc8565b61042d61042836600461322a565b61145e565b6040516102959493929190614057565b61026061044b36600461348e565b611514565b61026061045e366004613320565b61152a565b61039961047136600461327d565b6115cf565b610260610484366004613417565b6116c5565b61026061049736600461327d565b6119a4565b6102606104aa36600461327d565b611a34565b6102b16104bd36600461322a565b611a41565b6103996104d036600461322a565b611a5f565b6104e86104e33660046132e1565b611bb6565b60405161029591906137c3565b6102606105033660046132e1565b611c50565b61028861051636600461322a565b611d2d565b6102b161052936600461322a565b611d4e565b61026061053c3660046132a6565b611d59565b61026061054f3660046132e1565b61202f565b6102b161056236600461348e565b6120ef565b61026061057536600461348e565b6121b7565b61026061058836600461327d565b6121cd565b600e546105a3906001600160a01b031682611a34565b50565b600e546105a3906001600160a01b0316826121cd565b6001600160a01b0381166000908152600d602052604090205460ff165b919050565b6001600160a01b038083166000908152602081815260408083209385168352600a909301905220545b92915050565b6003546105a3906001600160a01b031682611a34565b6009546001600160a01b03165b90565b61063b6121da565b6001600160a01b03918216600090815260126020526040902080546001600160a01b03191691909216179055565b6106716121da565b8281146106995760405162461bcd60e51b815260040161069090613e0d565b60405180910390fd5b60005b8381101561071657600080808787858181106106b457fe5b90506020020160208101906106c9919061322a565b6001600160a01b03166001600160a01b0316815260200190815260200160002090508383838181106106f757fe5b600590930180546020909402929092013590920390555060010161069c565b5050505050565b806001600160a01b031661072f61220f565b6001600160a01b0316148061074c5750326001600160a01b038216145b6107685760405162461bcd60e51b815260040161069090613d55565b6107718361226b565b15156001146107925760405162461bcd60e51b815260040161069090613c34565b6040516370a0823160e01b815282906001600160a01b038516906370a08231906107c09085906004016135c0565b60206040518083038186803b1580156107d857600080fd5b505afa1580156107ec573d6000803e3d6000fd5b505050506040513d601f19601f8201168201806040525081019061081091906134a6565b101561082e5760405162461bcd60e51b81526004016106909061392f565b6108378161235b565b6001600160a01b03808216600090815260208181526040808320878516808552600a90910190925290912080548501905560025490911614156108795761096b565b6003546001600160a01b03848116911614156108f4576001600160a01b0381166000818152602081905260408082206003018054860190556005805486019055517fddf252ad1be2c89b69c2b068fc378daa952ba7f163c4a11628f55a4df523b3ef906108e790869061404e565b60405180910390a361096b565b6001600160a01b03808416600090815260126020526040908190205490516340c10f1960e01b815291169081906340c10f199061093790859087906004016136cb565b600060405180830381600087803b15801561095157600080fd5b505af1158015610965573d6000803e3d6000fd5b50505050505b61097783823085612386565b600060110154836001600160a01b0316826001600160a01b03167f145a02ce7e56dfa666c4256c2ac5409623eaed75a9c2d5e70aeded820073863e856040516109c0919061404e565b60405180910390a4505050565b6109d56121da565b60005b81811015610a8c576000600d818585858181106109f157fe5b9050602002016020810190610a06919061322a565b6001600160a01b031681526020810191909152604001600020805460ff1916911515919091179055828282818110610a3a57fe5b9050602002016020810190610a4f919061322a565b6001600160a01b03167faa3ef0fa5e8a2029110126fd2024f70a9721e3879492b04a3788b1476e67fbb960405160405180910390a26001016109d8565b505050565b610a996121da565b610aa382826124d4565b505042601555565b6001600160a01b03811660009081526020819052604081206008015460ff1615610adf57610ad88261253f565b90506105d9565b610ad8826125a9565b6008546105a3906001600160a01b0316826121cd565b610b07336105bc565b610b235760405162461bcd60e51b815260040161069090613a8f565b80610b405760405162461bcd60e51b815260040161069090613d0c565b6011548314610b615760405162461bcd60e51b815260040161069090613cc9565b610a8c82826124d4565b60115490565b60008181526013602052604090206002810154606091906001600160401b0381118015610b9d57600080fd5b50604051908082528060200260200182016040528015610bd757816020015b610bc461304d565b815260200190600190039081610bbc5790505b50915060005b6002820154811015610dc9576000826002018281548110610bfa57fe5b60009182526020808320909101546001600160a01b0316808352601280835260408085208a865260038101855281862054848752928552600190810180548351601f600260001995841615610100029590950190921693909304908101879004870283018701909352828252939650919493919291830182828015610cc05780601f10610c9557610100808354040283529160200191610cc0565b820191906000526020600020905b815481529060010190602001808311610ca357829003601f168201915b505050506001600160a01b03851660009081526012602090815260408083206002908101805483516001821615610100026000190190911692909204601f8101859004850283018501909352828252959650929492935090830182828015610d695780601f10610d3e57610100808354040283529160200191610d69565b820191906000526020600020905b815481529060010190602001808311610d4c57829003601f168201915b505050505090506040518060a00160405280856001600160a01b031681526020018381526020018281526020018481526020016000815250878681518110610dad57fe5b6020026020010181905250505050508080600101915050610bdd565b5050919050565b6003546105a3906001600160a01b0316826121cd565b610dee613085565b6001600160a01b038381166000818152601260209081526040808320815160a081018352948552805490951684830152868352600385018252918290205483830152600180850180548451600261010094831615949094026000190190911692909204601f810184900484028301840190945283825260608501939192909190830182828015610ebf5780601f10610e9457610100808354040283529160200191610ebf565b820191906000526020600020905b815481529060010190602001808311610ea257829003601f168201915b5050509183525050600283810180546040805160206001841615610100026000190190931694909404601f81018390048302850183019091528084529381019390830182828015610f515780601f10610f2657610100808354040283529160200191610f51565b820191906000526020600020905b815481529060010190602001808311610f3457829003601f168201915b505050505081525091505092915050565b610f6a6121da565b6014805460ff19811660ff90911615179055565b60005b8151811015610fae57610fa6828281518110610f9957fe5b6020026020010151612654565b600101610f81565b5050565b6002546105a3906001600160a01b0316826121cd565b828114610fe75760405162461bcd60e51b815260040161069090613a43565b6000610ff161220f565b90506000600681611001826120ef565b905060005b8781101561113b57600089898381811061101c57fe5b905060200201359050600088888481811061103357fe5b9050602002013590508482141561105c5760405162461bcd60e51b815260040161069090613a00565b6000611067836120ef565b90508181028282828161107657fe5b04146110945760405162461bcd60e51b815260040161069090613b65565b60008481526001602090815260408083206001600160a01b038d1684529091529020548311156110d65760405162461bcd60e51b815260040161069090613b23565b60008481526001602081815260408084206001600160a01b038e16855280835290842080548890039055969092529081905293840180546001600160601b031981166001600160601b0391821695909503169390931790925550949094019301611006565b506000831161115c5760405162461bcd60e51b815260040161069090613f0e565b80838161116557fe5b06156111835760405162461bcd60e51b815260040161069090613f9d565b60006001600160a01b0316846001600160a01b0316856001600160a01b03167f4a39dc06d4c0dbc64b70af90fd698a233a518aa5d07e595d983b8c0526c8f7fb8b8b8b8b6040516111d79493929190613791565b60405180910390a460008184816111ea57fe5b6040805160018082528183019092529290910492506000919060208083019080368337019050509050838160008151811061122157fe5b6020908102919091010152604080516001808252818301909252600091816020016020820280368337019050509050828160008151811061125e57fe5b6020908102919091018101919091526000868152600180835260408083206001600160a01b03808d16855281865291842080548901905592899052928190520180546001600160601b038082168701166001600160601b0319909116179055600c54161561132f57600c5460405163fac43c8560e01b81526001600160a01b039091169063fac43c85906112fc9030908f908f908d90600401613694565b600060405180830381600087803b15801561131657600080fd5b505af115801561132a573d6000803e3d6000fd5b505050505b866001600160a01b031660006001600160a01b0316886001600160a01b03167f4a39dc06d4c0dbc64b70af90fd698a233a518aa5d07e595d983b8c0526c8f7fb858560405161137f9291906137d6565b60405180910390a4863b801561145057604080516000808252602082019283905263bc197c8160e01b9092526001600160a01b038a169163bc197c81916113cf918c918890889060248101613636565b602060405180830381600087803b1580156113e957600080fd5b505af11580156113fd573d6000803e3d6000fd5b505050506040513d601f19601f820116820180604052508101906114219190613466565b6001600160e01b03191663bc197c8160e01b146114505760405162461bcd60e51b8152600401610690906138e7565b505050505050505050505050565b60008060008061146d85611d2d565b156114cd57505050506001600160a01b0381811660009081526020818152604080832060025485168452600a019091528082205460035484168352818320546008548516845282842054600e54909516845291909220549192909161150d565b5050506001600160a01b03821660009081526020819052604090206002810154600482015460068301546007909301546001600160601b03909216935091905b9193509193565b6002546105a3906001600160a01b031682611a34565b6115326121da565b8281146115515760405162461bcd60e51b815260040161069090613e0d565b60005b83811015610716576000808087878581811061156c57fe5b9050602002016020810190611581919061322a565b6001600160a01b03166001600160a01b0316815260200190815260200160002090508383838181106115af57fe5b600590930180546020909402929092013592909201905550600101611554565b60008181526013602052604090206002810154606091906001600160401b03811180156115fb57600080fd5b5060405190808252806020026020018201604052801561163557816020015b61162261304d565b81526020019060019003908161161a5790505b50915060005b60028201548110156116bd57600082600201828154811061165857fe5b60009182526020808320909101546001600160a01b038981168452838352604080852091909216808552600a9091019092529091205490915061169c82878361276c565b8584815181106116a857fe5b6020908102919091010152505060010161163b565b505092915050565b60145460ff16156116e85760405162461bcd60e51b815260040161069090613bee565b8281146117075760405162461bcd60e51b815260040161069090613a43565b600061171161220f565b905061172281600060110154612913565b6001600160a01b038116600090815260208190526040812060050154905b8581101561185057600087878381811061175657fe5b905060200201359050600086868481811061176d57fe5b905060200201359050600782106117965760405162461bcd60e51b815260040161069090613ea0565b60006117a1836120ef565b9050818102828282816117b057fe5b04146117ce5760405162461bcd60e51b815260040161069090613b65565b808610156117ee5760405162461bcd60e51b815260040161069090613977565b60008481526001602081815260408084206001600160a01b038c168552808352908420805488019055969092529081905293840180546001600160601b031981166001600160601b039182169095011693909317909255509092039101611740565b506001600160a01b0382166000818152602081905260408082206005018490555182907f4a39dc06d4c0dbc64b70af90fd698a233a518aa5d07e595d983b8c0526c8f7fb906118a6908b908b908b908b90613791565b60405180910390a4813b801561199b576001600160a01b03831663bc197c818460008a8a8a8a846040519080825280601f01601f1916602001820160405280156118f7576020820181803683370190505b506040518863ffffffff1660e01b815260040161191a97969594939291906135d4565b602060405180830381600087803b15801561193457600080fd5b505af1158015611948573d6000803e3d6000fd5b505050506040513d601f19601f8201168201806040525081019061196c9190613466565b6001600160e01b03191663bc197c8160e01b1461199b5760405162461bcd60e51b8152600401610690906138e7565b50505050505050565b6001600160a01b0382166000908152602081905260409020600881015460ff1615156001146119e55760405162461bcd60e51b815260040161069090613f54565b80600901548211611a085760405162461bcd60e51b815260040161069090613851565b601154821115611a2a5760405162461bcd60e51b8152600401610690906139ac565b610a8c8383612913565b610fae828261053c61220f565b6001600160a01b031660009081526020819052604090206009015490565b6060611a6a82611d2d565b611ba7576001600160a01b038216600090815260208190526040908190208151600480825260a082019093529091816020015b611aa561304d565b815260200190600190039081611a9d5750506002805460115491840154929450611ae4926001600160a01b0390911691906001600160601b031661276c565b82600081518110611af157fe5b60209081029190910101526003546011546004830154611b1b926001600160a01b0316919061276c565b82600181518110611b2857fe5b60209081029190910101526008546011546006830154611b52926001600160a01b0316919061276c565b82600281518110611b5f57fe5b6020908102919091010152600e546011546007830154611b89926001600160a01b0316919061276c565b82600381518110611b9657fe5b6020026020010181905250506105d9565b610ad8826000601101546115cf565b6060816001600160401b0381118015611bce57600080fd5b50604051908082528060200260200182016040528015611bf8578160200160208202803683370190505b50905060005b82811015611c4957611c2a848483818110611c1557fe5b9050602002016020810190610353919061322a565b828281518110611c3657fe5b6020908102919091010152600101611bfe565b5092915050565b611c586121da565b6000805260136020527f8fa6efc3be94b5b348b21fea823fe8d100408cee9b7f90524494500445d8ff6e5415611ca05760405162461bcd60e51b815260040161069090613e51565b80611cbd5760405162461bcd60e51b815260040161069090613d0c565b600080526013602052427f8fa6efc3be94b5b348b21fea823fe8d100408cee9b7f90524494500445d8ff6c908155611cfd611cf883856140b2565b61297a565b6040516000907f1078209d72d13a12719f5d47ed2b10c66d5a715b483655e70b3b7498c60a0aec908290a2505050565b6001600160a01b031660009081526020819052604090206008015460ff1690565b6000610607826125a9565b806001600160a01b0316611d6b61220f565b6001600160a01b03161480611d885750326001600160a01b038216145b611da45760405162461bcd60e51b815260040161069090613d55565b611dad8161235b565b6001600160a01b038084166000818152601260209081526040808320548686168452838352818420948452600a9094019091529020549116908115611e88576040516370a0823160e01b815284906001600160a01b038416906370a0823190611e1a9087906004016135c0565b60206040518083038186803b158015611e3257600080fd5b505afa158015611e46573d6000803e3d6000fd5b505050506040513d601f19601f82011682018060405250810190611e6a91906134a6565b1015611e885760405162461bcd60e51b815260040161069090613c81565b83811015611ea85760405162461bcd60e51b815260040161069090613b9a565b6001600160a01b03808416600090815260208181526040808320898516808552600a909101909252909120805487900390556002549091161415611eeb57611fcc565b6003546001600160a01b0386811691161415611f6b576001600160a01b03831660008181526020819052604080822060030180548890039055600580548890039055519091907fddf252ad1be2c89b69c2b068fc378daa952ba7f163c4a11628f55a4df523b3ef90611f5e90889061404e565b60405180910390a3611fcc565b604051632770a7eb60e21b81526001600160a01b03831690639dc29fac90611f9990869088906004016136cb565b600060405180830381600087803b158015611fb357600080fd5b505af1158015611fc7573d6000803e3d6000fd5b505050505b611fd7858486612ba7565b600060110154856001600160a01b0316846001600160a01b03167f326cf08213a03174eec935730c864cc43e2f31219166428bb0321810e31948c587604051612020919061404e565b60405180910390a45050505050565b6120376121da565b60005b81811015610a8c576001600d600085858581811061205457fe5b9050602002016020810190612069919061322a565b6001600160a01b031681526020810191909152604001600020805460ff191691151591909117905582828281811061209d57fe5b90506020020160208101906120b2919061322a565b6001600160a01b03167f6a2533847dd14704134ab953fc33e44547199f2f4e2e59a6d6f956b19a8b44ab60405160405180910390a260010161203a565b60008161210657506802b5e3af16b18800006105d9565b816001141561211f5750680d8d726b7177a800006105d9565b81600214156121385750681b1ae4d6e2ef5000006105d9565b8160031415612151575068878678326eac9000006105d9565b816004141561216b575069021e19e0c9bab24000006105d9565b81600514156121855750690a968163f0a57b4000006105d9565b816006141561219f575069021e19e0c9bab24000006105d9565b60405162461bcd60e51b815260040161069090613dd6565b6008546105a3906001600160a01b031682611a34565b610fae828261031a61220f565b6121e2612cf5565b600401546001600160a01b0316331461220d5760405162461bcd60e51b81526004016106909061380f565b565b60003330141561226657600080368080601f0160208091040260200160405190810160405280939291908181526020018383808284376000920191909152505050503601516001600160a01b031691506106309050565b503390565b60115460009081526013602090815260408083208151606081018352815481526001820154818501526002820180548451818702810187018652818152879687969495948601939192908301828280156122ee57602002820191906000526020600020905b81546001600160a01b031681526001909101906020018083116122d0575b505050505081525050905060005b8160400151518110156123525760008260400151828151811061231b57fe5b60200260200101519050806001600160a01b0316866001600160a01b03161415612349576001935050612352565b506001016122fc565b50909392505050565b61236481611d2d565b1561237d5761237881600060110154612913565b6105a3565b6105a381612654565b833b806123da576040805162461bcd60e51b815260206004820152601d60248201527f4c696245524332303a204164647265737320686173206e6f20636f6465000000604482015290519081900360640190fd5b604080516001600160a01b0386811660248301528581166044830152606480830186905283518084039091018152608490920183526020820180516001600160e01b03166323b872dd60e01b178152925182516000948594938b169392918291908083835b6020831061245e5780518252601f19909201916020918201910161243f565b6001836020036101000a0380198251168184511680821785525050505050509050019150506000604051808303816000865af19150503d80600081146124c0576040519150601f19603f3d011682016040523d82523d6000602084013e6124c5565b606091505b509150915061199b8282612d19565b601180546000908152601360205260408082204260018083018290558554019485905593835291209182559061250d611cf884866140b2565b6011546040517f1078209d72d13a12719f5d47ed2b10c66d5a715b483655e70b3b7498c60a0aec90600090a250505050565b6001600160a01b03811660009081526020819052604090206005810154600982015460115491929190810390612576908590612e56565b9092019160015b8181116125a1576011548190036125948682612e56565b909401935060010161257d565b505050919050565b6001600160a01b0381166000908152602081905260409020600281015460058201546006546004840154919392600160601b900464ffffffffff16420391620151809102820204830192506201518081600060070154846006015402028161260d57fe5b6002840154919004939093019262015180906001600160601b0316820204830192506201518081600060100154846007015402028161264857fe5b04830192505050919050565b6001600160a01b03811660009081526020819052604090206008015460ff16156126905760405162461bcd60e51b815260040161069090613ed7565b6001600160a01b03818116600090815260208181526040808320600280820154600483015460068401546007850154935489168852600a9094019095528386206001600160601b03909116908190556003548716865283862085905560085487168652838620839055600e54909616855291909320819055601154919291612719908690612913565b6001600160a01b038516600081815260208190526040808220600801805460ff19166001179055517fbcc1c8056f7649ba87d2b5fc8b42a1a5264feb82b432abad911d745a185519429190a25050505050565b61277461304d565b6040805160a0810182526001600160a01b03861680825260009081526012602090815290839020600190810180548551600293821615610100026000190190911692909204601f810184900484028301840190955284825292938285019391928301828280156128255780601f106127fa57610100808354040283529160200191612825565b820191906000526020600020905b81548152906001019060200180831161280857829003601f168201915b50505091835250506001600160a01b0386166000908152601260209081526040918290206002908101805484516001821615610100026000190190911692909204601f810184900484028301840190945283825293820193909290918301828280156128d25780601f106128a7576101008083540402835291602001916128d2565b820191906000526020600020905b8154815290600101906020018083116128b557829003601f168201915b50505091835250506001600160a01b038616600090815260126020908152604080832088845260030182529182902054908301520183905290509392505050565b6001600160a01b038216600090815260208190526040902061293483610aab565b6005820155600201805464ffffffffff60601b1916600160601b4264ffffffffff16021790556001600160a01b0391909116600090815260208190526040902060090155565b60005b8151811015610fae57600082828151811061299457fe5b60209081029190910101518051600254919250906001600160a01b038083169116146129e45760208201516001600160a01b03166129e45760405162461bcd60e51b815260040161069090613d8c565b6002546001600160a01b0382811691161415612a255760208201516001600160a01b031615612a255760405162461bcd60e51b815260040161069090613ad1565b6001600160a01b03818116600090815260126020526040902054161580612a6e57506001600160a01b038082166000908152601260209081526040909120549084015182169116145b612a8a5760405162461bcd60e51b815260040161069090613899565b60608201516001600160a01b03821660009081526012602090815260409091208251612abf93600190920192909101906130c6565b506020828101516001600160a01b0383811660008181526012808652604080832080546001600160a01b031916959096169490941785558388015160115483526003860187529382209390935560808701519190529083528051612b2d9360029093019291909101906130c6565b50601180546000908152601360209081526040808320600201805460018101825590845291832090910180546001600160a01b0319166001600160a01b038616908117909155925490519092917fe9b3330d914ec7b9c0f1fe3bb2b71a4617791c7ae244426a48877b1022a0b89591a3505060010161297d565b823b80612bfb576040805162461bcd60e51b815260206004820152601d60248201527f4c696245524332303a204164647265737320686173206e6f20636f6465000000604482015290519081900360640190fd5b604080516001600160a01b038581166024830152604480830186905283518084039091018152606490920183526020820180516001600160e01b031663a9059cbb60e01b178152925182516000948594938a169392918291908083835b60208310612c775780518252601f199092019160209182019101612c58565b6001836020036101000a0380198251168184511680821785525050505050509050019150506000604051808303816000865af19150503d8060008114612cd9576040519150601f19603f3d011682016040523d82523d6000602084013e612cde565b606091505b5091509150612ced8282612d19565b505050505050565b7fc8fcad8db84d3cc18b4c41d551ea0ee66dd599cde068d998e57d5e09332c131c90565b8115612d7d57805115612d7857808060200190516020811015612d3b57600080fd5b5051612d785760405162461bcd60e51b815260040180806020018281038252602681526020018061419d6026913960400191505060405180910390fd5b610fae565b805115612e09578060405162461bcd60e51b81526004018080602001828103825283818151815260200191508051906020019080838360005b83811015612dce578181015183820152602001612db6565b50505050905090810190601f168015612dfb5780820380516001836020036101000a031916815260200191505b509250505060405180910390fd5b6040805162461bcd60e51b815260206004820181905260248201527f4c696245524332303a20636f6e74726163742063616c6c207265766572746564604482015290519081900360640190fd5b600081612e6557506000610607565b6000828152601360209081526040808320815160608101835281548152600182015481850152600282018054845181870281018701865281815292959394860193830182828015612edf57602002820191906000526020600020905b81546001600160a01b03168152600190910190602001808311612ec1575b505050919092525050506040818101516001600160a01b0387166000908152602081815292812060020154601554938501519495509193600160601b90920464ffffffffff169092039190612f4b57835160155403808311612f415782612f43565b805b915050612f69565b835160208501510380831115612f6357809150612f67565b8291505b505b6000805b8451811015613041576000858281518110612f8457fe5b602002602001015190506000806012016000836001600160a01b03166001600160a01b0316815260200190815260200160002060030160008b815260200190815260200160002054905060008060000160008d6001600160a01b03166001600160a01b03168152602001908152602001600020600a016000846001600160a01b03166001600160a01b031681526020019081526020016000205490506201518086838302028161303057fe5b049490940193505050600101612f6d565b50979650505050505050565b6040518060a0016040528060006001600160a01b03168152602001606081526020016060815260200160008152602001600081525090565b6040518060a0016040528060006001600160a01b0316815260200160006001600160a01b031681526020016000815260200160608152602001606081525090565b828054600181600116156101000203166002900490600052602060002090601f0160209004810192826130fc5760008555613142565b82601f1061311557805160ff1916838001178555613142565b82800160010185558215613142579182015b82811115613142578251825591602001919060010190613127565b5061314e929150613152565b5090565b5b8082111561314e5760008155600101613153565b80356001600160a01b03811681146105d957600080fd5b60008083601f84011261318f578182fd5b5081356001600160401b038111156131a5578182fd5b60208301915083602080830285010111156131bf57600080fd5b9250929050565b600082601f8301126131d6578081fd5b81356001600160401b038111156131e957fe5b6131fc601f8201601f1916602001614072565b818152846020838601011115613210578283fd5b816020850160208301379081016020019190915292915050565b60006020828403121561323b578081fd5b61324482613167565b9392505050565b6000806040838503121561325d578081fd5b61326683613167565b915061327460208401613167565b90509250929050565b6000806040838503121561328f578182fd5b61329883613167565b946020939093013593505050565b6000806000606084860312156132ba578081fd5b6132c384613167565b9250602084013591506132d860408501613167565b90509250925092565b600080602083850312156132f3578182fd5b82356001600160401b03811115613308578283fd5b6133148582860161317e565b90969095509350505050565b60008060008060408587031215613335578081fd5b84356001600160401b038082111561334b578283fd5b6133578883890161317e565b9096509450602087013591508082111561336f578283fd5b5061337c8782880161317e565b95989497509550505050565b6000602080838503121561339a578182fd5b82356001600160401b038111156133af578283fd5b8301601f810185136133bf578283fd5b80356133d26133cd82614095565b614072565b81815283810190838501858402850186018910156133ee578687fd5b8694505b838510156130415761340381613167565b8352600194909401939185019185016133f2565b6000806000806040858703121561342c578384fd5b84356001600160401b0380821115613442578586fd5b61344e8883890161317e565b9096509450602087013591508082111561336f578384fd5b600060208284031215613477578081fd5b81516001600160e01b031981168114613244578182fd5b60006020828403121561349f578081fd5b5035919050565b6000602082840312156134b7578081fd5b5051919050565b6000806000604084860312156134d2578081fd5b8335925060208401356001600160401b038111156134ee578182fd5b6134fa8682870161317e565b9497909650939450505050565b81835260006001600160fb1b0383111561351f578081fd5b6020830280836020870137939093016020019283525090919050565b6000815180845260208085019450808401835b8381101561356a5781518752958201959082019060010161354e565b509495945050505050565b60008151808452815b8181101561359a5760208185018101518683018201520161357e565b818111156135ab5782602083870101525b50601f01601f19169290920160200192915050565b6001600160a01b0391909116815260200190565b6001600160a01b0388811682528716602082015260a0604082018190526000906136019083018789613507565b8281036060840152613614818688613507565b905082810360808401526136288185613575565b9a9950505050505050505050565b6001600160a01b0386811682528516602082015260a0604082018190526000906136629083018661353b565b8281036060840152613674818661353b565b905082810360808401526136888185613575565b98975050505050505050565b600060018060a01b038087168352606060208401526136b7606084018688613507565b915080841660408401525095945050505050565b6001600160a01b03929092168252602082015260400190565b60208082528251828201819052600091906040908185019080840286018301878501865b8381101561378357888303603f19018552815180516001600160a01b031684528781015160a08986018190529061374182870182613575565b91505087820151858203898701526137598282613575565b60608481015190880152608093840151939096019290925250509386019390860190600101613708565b509098975050505050505050565b6000604082526137a5604083018688613507565b82810360208401526137b8818587613507565b979650505050505050565b600060208252613244602083018461353b565b6000604082526137e9604083018561353b565b82810360208401526137fb818561353b565b95945050505050565b901515815260200190565b60208082526022908201527f4c69624469616d6f6e643a204d75737420626520636f6e7472616374206f776e60408201526132b960f11b606082015260800190565b60208082526028908201527f5374616b696e6746616365743a2043616e6e6f742062756d7020746f206c6f776040820152670cae440cae0dec6d60c31b606082015260800190565b6020808252602e908201527f5374616b696e6746616365743a2043616e6e6f74206f7665727269646520706f60408201526d37b62932b1b2b4b83a2a37b5b2b760911b606082015260800190565b60208082526028908201527f5374616b696e673a205469636b6574207472616e736665722072656a65637465604082015267190bd9985a5b195960c21b606082015260800190565b60208082526028908201527f5374616b696e6746616365743a20496e73756666696369656e7420746f6b656e6040820152672062616c616e636560c01b606082015260800190565b6020808252818101527f5374616b696e673a204e6f7420656e6f756768206672656e7320706f696e7473604082015260600190565b60208082526034908201527f5374616b696e6746616365743a2045706f6368206d757374206265206c6f77656040820152730e440e8d0c2dc40c6eae4e4cadce840cae0dec6d60631b606082015260800190565b60208082526023908201527f5374616b696e673a2043616e6e6f7420636f6e766572742044726f70205469636040820152621ad95d60ea1b606082015260800190565b6020808252602c908201527f5374616b696e673a205f696473206e6f74207468652073616d65206c656e677460408201526b68206173205f76616c75657360a01b606082015260800190565b60208082526022908201527f5374616b696e6746616365743a204d7573742062652072617465206d616e616760408201526132b960f11b606082015260800190565b60208082526032908201527f5374616b696e6746616365743a204748535420746f6b656e2063616e6e6f74206040820152713430bb32903932b1b2b4b83a103a37b5b2b760711b606082015260800190565b60208082526022908201527f5374616b696e673a204e6f7420656e6f756768205469636b65742062616c616e604082015261636560f01b606082015260800190565b6020808252818101527f5374616b696e673a206d756c7469706c69636174696f6e206f766572666c6f77604082015260600190565b60208082526034908201527f5374616b696e6746616365743a2043616e2774207769746864726177206d6f7260408201527319481d1bdad95b9cc81d1a185b881cdd185ad95960621b606082015260800190565b60208082526026908201527f5469636b65747320627579696e672069732070617573656420617420746865206040820152651b5bdb595b9d60d21b606082015260800190565b6020808252602d908201527f5374616b696e6746616365743a20506f6f6c206973206e6f742076616c69642060408201526c0d2dc40e8d0d2e640cae0dec6d609b1b606082015260800190565b60208082526028908201527f5374616b696e6746616365743a205265636569707420746f6b656e20696e737560408201526719999a58da595b9d60c21b606082015260800190565b60208082526023908201527f5374616b696e6746616365743a20496e636f72726563742065706f63682067696040820152623b32b760e91b606082015260800190565b60208082526029908201527f5374616b696e6746616365743a20506f6f6c73206c656e6774682063616e6e6f60408201526874206265207a65726f60b81b606082015260800190565b6020808252601c908201527f5374616b696e6746616365743a204e6f7420617574686f72697a656400000000604082015260600190565b6020808252602a908201527f5374616b696e6746616365743a20506f6f6c206d75737420686176652072656360408201526932b4b83a103a37b5b2b760b11b606082015260800190565b6020808252601b908201527f5374616b696e673a205f696420646f6573206e6f742065786973740000000000604082015260600190565b60208082526024908201527f5374616b696e6746616365743a20496e636f7272656374206172726179206c656040820152630dccee8d60e31b606082015260800190565b6020808252602f908201527f5374616b696e6746616365743a2043616e206f6e6c792062652063616c6c656460408201526e040dedc40ccd2e4e6e840cae0dec6d608b1b606082015260800190565b60208082526019908201527f5374616b696e673a205469636b6574206e6f7420666f756e6400000000000000604082015260600190565b6020808252601e908201527f5374616b696e6746616365743a20416c7265616479206d696772617465640000604082015260600190565b60208082526026908201527f5374616b696e673a20496e76616c6964205469636b65742049647320616e642060408201526556616c75657360d01b606082015260800190565b60208082526029908201527f5374616b696e6746616365743a2043616e206f6e6c792062756d70206d69677260408201526830ba32b2103ab9b2b960b91b606082015260800190565b6020808252602e908201527f5374616b696e673a2043616e6e6f74207061727469616c6c7920636f6e76657260408201526d742044726f70205469636b65747360901b606082015260800190565b60006020825260018060a01b038084511660208401528060208501511660408401525060408301516060830152606083015160a0608084015261403160c0840182613575565b90506080840151601f198483030160a08501526137fb8282613575565b90815260200190565b93845260208401929092526040830152606082015260800190565b6040518181016001600160401b038111828210171561408d57fe5b604052919050565b60006001600160401b038211156140a857fe5b5060209081020190565b60006140c06133cd84614095565b8381526020808201919084845b87811015614190578135870160a08082360312156140e9578788fd5b60408051918201916001600160401b03808411828510171561410757fe5b83835261411385613167565b8252614120888601613167565b8883015282850135838301526060935083850135925080831115614142578a8bfd5b61414e368487016131c6565b848301526080935083850135925080831115614168578a8bfd5b50614175368386016131c6565b928101929092525086525093820193908201906001016140cd565b5091969550505050505056fe4c696245524332303a20636f6e74726163742063616c6c2072657475726e65642066616c7365a26469706673582212207749280222cc2127e64d9c1f0b6dfa8a180d86e4e7c88180a384ad8a6d2c75a764736f6c63430007060033",
  "linkReferences": {},
  "deployedLinkReferences": {}
}