{
  "_format": "hh-sol-artifact-1",
  "contractName": "StakingFacet",
  "sourceName": "contracts/facets/StakingFacet.sol",
  "abi": [
    {
      "anonymous": false,
      "inputs": [
        {
          "indexed": true,
          "internalType": "address",
          "name": "_from",
          "type": "address"
        },
        {
          "indexed": true,
          "internalType": "address",
          "name": "_to",
          "type": "address"
        },
        {
          "indexed": false,
          "internalType": "uint256",
          "name": "_value",
          "type": "uint256"
        }
      ],
      "name": "Transfer",
      "type": "event"
    },
    {
      "anonymous": false,
      "inputs": [
        {
          "indexed": true,
          "internalType": "address",
          "name": "_operator",
          "type": "address"
        },
        {
          "indexed": true,
          "internalType": "address",
          "name": "_from",
          "type": "address"
        },
        {
          "indexed": true,
          "internalType": "address",
          "name": "_to",
          "type": "address"
        },
        {
          "indexed": false,
          "internalType": "uint256[]",
          "name": "_ids",
          "type": "uint256[]"
        },
        {
          "indexed": false,
          "internalType": "uint256[]",
          "name": "_values",
          "type": "uint256[]"
        }
      ],
      "name": "TransferBatch",
      "type": "event"
    },
    {
      "inputs": [
        {
          "internalType": "address[]",
          "name": "_accounts",
          "type": "address[]"
        }
      ],
      "name": "bulkFrens",
      "outputs": [
        {
          "internalType": "uint256[]",
          "name": "frens_",
          "type": "uint256[]"
        }
      ],
      "stateMutability": "view",
      "type": "function"
    },
    {
      "inputs": [
        {
          "internalType": "uint256[]",
          "name": "_ids",
          "type": "uint256[]"
        },
        {
          "internalType": "uint256[]",
          "name": "_values",
          "type": "uint256[]"
        }
      ],
      "name": "claimTickets",
      "outputs": [],
      "stateMutability": "nonpayable",
      "type": "function"
    },
    {
      "inputs": [
        {
          "internalType": "address",
          "name": "_account",
          "type": "address"
        }
      ],
      "name": "frens",
      "outputs": [
        {
          "internalType": "uint256",
          "name": "frens_",
          "type": "uint256"
        }
      ],
      "stateMutability": "view",
      "type": "function"
    },
    {
      "inputs": [
        {
          "internalType": "address[]",
          "name": "_stakers",
          "type": "address[]"
        },
        {
          "internalType": "uint256[]",
          "name": "_frens",
          "type": "uint256[]"
        }
      ],
      "name": "migrateFrens",
      "outputs": [],
      "stateMutability": "nonpayable",
      "type": "function"
    },
    {
      "inputs": [
        {
          "internalType": "uint256",
          "name": "_ghstValue",
          "type": "uint256"
        }
      ],
      "name": "stakeGhst",
      "outputs": [],
      "stateMutability": "nonpayable",
      "type": "function"
    },
    {
      "inputs": [
        {
          "internalType": "uint256",
          "name": "_poolTokens",
          "type": "uint256"
        }
      ],
      "name": "stakePoolTokens",
      "outputs": [],
      "stateMutability": "nonpayable",
      "type": "function"
    },
    {
      "inputs": [
        {
          "internalType": "address",
          "name": "_account",
          "type": "address"
        }
      ],
      "name": "staked",
      "outputs": [
        {
          "internalType": "uint256",
          "name": "ghst_",
          "type": "uint256"
        },
        {
          "internalType": "uint256",
          "name": "poolTokens_",
          "type": "uint256"
        }
      ],
      "stateMutability": "view",
      "type": "function"
    },
    {
      "inputs": [
        {
          "internalType": "uint256",
          "name": "_id",
          "type": "uint256"
        }
      ],
      "name": "ticketCost",
      "outputs": [
        {
          "internalType": "uint256",
          "name": "_frensCost",
          "type": "uint256"
        }
      ],
      "stateMutability": "pure",
      "type": "function"
    },
    {
      "inputs": [],
      "name": "withdrawGhstStake",
      "outputs": [],
      "stateMutability": "nonpayable",
      "type": "function"
    },
    {
      "inputs": [
        {
          "internalType": "uint256",
          "name": "_ghstValue",
          "type": "uint256"
        }
      ],
      "name": "withdrawGhstStake",
      "outputs": [],
      "stateMutability": "nonpayable",
      "type": "function"
    },
    {
      "inputs": [],
      "name": "withdrawPoolStake",
      "outputs": [],
      "stateMutability": "nonpayable",
      "type": "function"
    },
    {
      "inputs": [
        {
          "internalType": "uint256",
          "name": "_poolTokens",
          "type": "uint256"
        }
      ],
      "name": "withdrawPoolStake",
      "outputs": [],
      "stateMutability": "nonpayable",
      "type": "function"
    }
  ],
  "bytecode": "0x608060405234801561001057600080fd5b50611a8f806100206000396000f3fe608060405234801561001057600080fd5b50600436106100d45760003560e01c80639119f15011610081578063aa061d091161005b578063aa061d09146102b2578063d097298e14610374578063f8a6103f14610434576100d4565b80639119f1501461024157806398807d84146102495780639c0dfa0114610295576100d4565b80634b334ef6116100b25780634b334ef6146101c25780637cee37951461020757806388fa5b0414610224576100d4565b80630fe6ed26146100d957806326064b6d1461019d578063379483c1146101a5575b600080fd5b61019b600480360360408110156100ef57600080fd5b81019060208101813564010000000081111561010a57600080fd5b82018360208201111561011c57600080fd5b8035906020019184602083028401116401000000008311171561013e57600080fd5b91939092909160208101903564010000000081111561015c57600080fd5b82018360208201111561016e57600080fd5b8035906020019184602083028401116401000000008311171561019057600080fd5b509092509050610451565b005b61019b61059e565b61019b600480360360208110156101bb57600080fd5b50356106f9565b6101f5600480360360208110156101d857600080fd5b503573ffffffffffffffffffffffffffffffffffffffff16610861565b60408051918252519081900360200190f35b61019b6004803603602081101561021d57600080fd5b50356108d7565b61019b6004803603602081101561023a57600080fd5b5035610963565b61019b6109e4565b61027c6004803603602081101561025f57600080fd5b503573ffffffffffffffffffffffffffffffffffffffff16610a5c565b6040805192835260208301919091528051918290030190f35b61019b600480360360208110156102ab57600080fd5b5035610a9e565b61019b600480360360408110156102c857600080fd5b8101906020810181356401000000008111156102e357600080fd5b8201836020820111156102f557600080fd5b8035906020019184602083028401116401000000008311171561031757600080fd5b91939092909160208101903564010000000081111561033557600080fd5b82018360208201111561034757600080fd5b8035906020019184602083028401116401000000008311171561036957600080fd5b509092509050610b90565b6103e46004803603602081101561038a57600080fd5b8101906020810181356401000000008111156103a557600080fd5b8201836020820111156103b757600080fd5b803590602001918460208302840111640100000000831117156103d957600080fd5b509092509050611106565b60408051602080825283518183015283519192839290830191858101910280838360005b83811015610420578181015183820152602001610408565b505050509050019250505060405180910390f35b6101f56004803603602081101561044a57600080fd5b50356111ae565b6104596112b0565b8281146104b1576040517f08c379a000000000000000000000000000000000000000000000000000000000815260040180806020018281038252602e815260200180611905602e913960400191505060405180910390fd5b60005b8381101561059757600080808787858181106104cc57fe5b9050602002013573ffffffffffffffffffffffffffffffffffffffff1673ffffffffffffffffffffffffffffffffffffffff1673ffffffffffffffffffffffffffffffffffffffff168152602001908152602001600020905083838381811061053157fe5b60200291909101356cffffffffffffffffffffffffff1660058301555060020180547fffffffffffffffffffffffffffffff0000000000ffffffffffffffffffffffff166c010000000000000000000000004264ffffffffff16021790556001016104b4565b5050505050565b6105a6611315565b336000908152602081905260409020600301548061060f576040517f08c379a00000000000000000000000000000000000000000000000000000000081526004018080602001828103825260278152602001806119876027913960400191505060405180910390fd5b33600090815260208190526040812060038101919091556004015481811015610683576040517f08c379a000000000000000000000000000000000000000000000000000000000815260040180806020018281038252602e8152602001806119ae602e913960400191505060405180910390fd5b33600081815260208181526040808320868603600490910155805186815290519293927fddf252ad1be2c89b69c2b068fc378daa952ba7f163c4a11628f55a4df523b3ef929181900390910190a36003546106f59073ffffffffffffffffffffffffffffffffffffffff163384611376565b5050565b610701611315565b336000908152602081905260409020600301548181101561076d576040517f08c379a00000000000000000000000000000000000000000000000000000000081526004018080602001828103825260348152602001806119dc6034913960400191505060405180910390fd5b336000908152602081905260409020828203600382015560058054849003905560040154828110156107ea576040517f08c379a000000000000000000000000000000000000000000000000000000000815260040180806020018281038252602e8152602001806119ae602e913960400191505060405180910390fd5b33600081815260208181526040808320878603600490910155805187815290519293927fddf252ad1be2c89b69c2b068fc378daa952ba7f163c4a11628f55a4df523b3ef929181900390910190a360035461085c9073ffffffffffffffffffffffffffffffffffffffff163385611376565b505050565b73ffffffffffffffffffffffffffffffffffffffff166000908152602081905260409020600281015460058201546004909201546201518064ffffffffff6c0100000000000000000000000084041642039182026064028190049093016bffffffffffffffffffffffff90921602919091040190565b6108df611315565b336000818152602081815260408083206003810180548701905560048101805487019055600580548701905581518681529151909493927fddf252ad1be2c89b69c2b068fc378daa952ba7f163c4a11628f55a4df523b3ef928290030190a36003546106f59073ffffffffffffffffffffffffffffffffffffffff16333085611537565b61096b611315565b336000818152602081905260409020600290810180546bffffffffffffffffffffffff8082168601167fffffffffffffffffffffffffffffffffffffffff000000000000000000000000909116179055546109e19173ffffffffffffffffffffffffffffffffffffffff91909116903084611537565b50565b6109ec611315565b336000818152602081905260409020600290810180547fffffffffffffffffffffffffffffffffffffffff000000000000000000000000811690915590546bffffffffffffffffffffffff909116916109e19173ffffffffffffffffffffffffffffffffffffffff169083611376565b73ffffffffffffffffffffffffffffffffffffffff16600090815260208190526040902060028101546004909101546bffffffffffffffffffffffff90911691565b610aa6611315565b336000908152602081905260409020600201546bffffffffffffffffffffffff1681811015610b20576040517f08c379a0000000000000000000000000000000000000000000000000000000008152600401808060200182810382526024815260200180611a106024913960400191505060405180910390fd5b336000818152602081905260409020600290810180547fffffffffffffffffffffffffffffffffffffffff000000000000000000000000168585036bffffffffffffffffffffffff16179055546106f59173ffffffffffffffffffffffffffffffffffffffff9091169084611376565b828114610be8576040517f08c379a000000000000000000000000000000000000000000000000000000000815260040180806020018281038252602c81526020018061195b602c913960400191505060405180910390fd5b610bf0611315565b33600090815260208190526040812060050154905b84811015610d9d576000868683818110610c1b57fe5b9050602002013590506000858584818110610c3257fe5b90506020020135905060068210610caa57604080517f08c379a000000000000000000000000000000000000000000000000000000000815260206004820152601960248201527f5374616b696e673a205469636b6574206e6f7420666f756e6400000000000000604482015290519081900360640190fd5b600081610cb6846111ae565b02905080851015610d2857604080517f08c379a000000000000000000000000000000000000000000000000000000000815260206004820181905260248201527f5374616b696e673a204e6f7420656e6f756768206672656e7320706f696e7473604482015290519081900360640190fd5b6000838152600160208181526040808420338552808352908420805487019055959092529081905292830180547fffffffffffffffffffffffffffffffffffffffff00000000000000000000000081166bffffffffffffffffffffffff91821690940116929092179091559092039101610c05565b5033600081815260208181526040808320600501859055805181815290810188905283917f4a39dc06d4c0dbc64b70af90fd698a233a518aa5d07e595d983b8c0526c8f7fb918a918a918a918a919081908181019060608301908890880280828437600083820152601f017fffffffffffffffffffffffffffffffffffffffffffffffffffffffffffffffe0169091018481038352858152602090810191508690860280828437600083820152604051601f9091017fffffffffffffffffffffffffffffffffffffffffffffffffffffffffffffffe0169092018290039850909650505050505050a433803b9081156110fd573363bc197c818160008a8a8a8a846040519080825280601f01601f191660200182016040528015610ec8576020820181803683370190505b506040518863ffffffff1660e01b8152600401808873ffffffffffffffffffffffffffffffffffffffff1681526020018773ffffffffffffffffffffffffffffffffffffffff1681526020018060200180602001806020018481038452898982818152602001925060200280828437600083820152601f017fffffffffffffffffffffffffffffffffffffffffffffffffffffffffffffffe01690910185810384528781526020908101915088908802808284376000838201819052601f9091017fffffffffffffffffffffffffffffffffffffffffffffffffffffffffffffffe01690920186810384528751815287516020918201939189019250908190849084905b83811015610fe4578181015183820152602001610fcc565b50505050905090810190601f1680156110115780820380516001836020036101000a031916815260200191505b509a5050505050505050505050602060405180830381600087803b15801561103857600080fd5b505af115801561104c573d6000803e3d6000fd5b505050506040513d602081101561106257600080fd5b50517fffffffff00000000000000000000000000000000000000000000000000000000167fbc197c8100000000000000000000000000000000000000000000000000000000146110fd576040517f08c379a00000000000000000000000000000000000000000000000000000000081526004018080602001828103825260288152602001806119336028913960400191505060405180910390fd5b50505050505050565b60608167ffffffffffffffff8111801561111f57600080fd5b50604051908082528060200260200182016040528015611149578160200160208202803683370190505b50905060005b828110156111a75761118884848381811061116657fe5b9050602002013573ffffffffffffffffffffffffffffffffffffffff16610861565b82828151811061119457fe5b602090810291909101015260010161114f565b5092915050565b6000816111c557506802b5e3af16b18800006112ab565b81600114156111de5750680d8d726b7177a800006112ab565b81600214156111f75750681b1ae4d6e2ef5000006112ab565b8160031415611210575068878678326eac9000006112ab565b816004141561122a575069021e19e0c9bab24000006112ab565b81600514156112445750690a968163f0a57b4000006112ab565b604080517f08c379a000000000000000000000000000000000000000000000000000000000815260206004820152601b60248201527f5374616b696e673a205f696420646f6573206e6f742065786973740000000000604482015290519081900360640190fd5b919050565b6112b86116f8565b6004015473ffffffffffffffffffffffffffffffffffffffff163314611313576040517f08c379a000000000000000000000000000000000000000000000000000000000815260040161130a906118a7565b60405180910390fd5b565b3360008181526020819052604090209061132e90610861565b600582015560020180547fffffffffffffffffffffffffffffff0000000000ffffffffffffffffffffffff166c010000000000000000000000004264ffffffffff1602179055565b823b806113e457604080517f08c379a000000000000000000000000000000000000000000000000000000000815260206004820152601d60248201527f4c696245524332303a204164647265737320686173206e6f20636f6465000000604482015290519081900360640190fd5b6040805173ffffffffffffffffffffffffffffffffffffffff8581166024830152604480830186905283518084039091018152606490920183526020820180517bffffffffffffffffffffffffffffffffffffffffffffffffffffffff167fa9059cbb00000000000000000000000000000000000000000000000000000000178152925182516000948594938a169392918291908083835b602083106114b957805182527fffffffffffffffffffffffffffffffffffffffffffffffffffffffffffffffe0909201916020918201910161147c565b6001836020036101000a0380198251168184511680821785525050505050509050019150506000604051808303816000865af19150503d806000811461151b576040519150601f19603f3d011682016040523d82523d6000602084013e611520565b606091505b509150915061152f828261171c565b505050505050565b833b806115a557604080517f08c379a000000000000000000000000000000000000000000000000000000000815260206004820152601d60248201527f4c696245524332303a204164647265737320686173206e6f20636f6465000000604482015290519081900360640190fd5b6040805173ffffffffffffffffffffffffffffffffffffffff86811660248301528581166044830152606480830186905283518084039091018152608490920183526020820180517bffffffffffffffffffffffffffffffffffffffffffffffffffffffff167f23b872dd00000000000000000000000000000000000000000000000000000000178152925182516000948594938b169392918291908083835b6020831061168257805182527fffffffffffffffffffffffffffffffffffffffffffffffffffffffffffffffe09092019160209182019101611645565b6001836020036101000a0380198251168184511680821785525050505050509050019150506000604051808303816000865af19150503d80600081146116e4576040519150601f19603f3d011682016040523d82523d6000602084013e6116e9565b606091505b50915091506110fd828261171c565b7fc8fcad8db84d3cc18b4c41d551ea0ee66dd599cde068d998e57d5e09332c131c90565b811561179a578051156117955780806020019051602081101561173e57600080fd5b5051611795576040517f08c379a0000000000000000000000000000000000000000000000000000000008152600401808060200182810382526026815260200180611a346026913960400191505060405180910390fd5b6106f5565b80511561184057806040517f08c379a00000000000000000000000000000000000000000000000000000000081526004018080602001828103825283818151815260200191508051906020019080838360005b838110156118055781810151838201526020016117ed565b50505050905090810190601f1680156118325780820380516001836020036101000a031916815260200191505b509250505060405180910390fd5b604080517f08c379a000000000000000000000000000000000000000000000000000000000815260206004820181905260248201527f4c696245524332303a20636f6e74726163742063616c6c207265766572746564604482015290519081900360640190fd5b60208082526022908201527f4c69624469616d6f6e643a204d75737420626520636f6e7472616374206f776e60408201527f657200000000000000000000000000000000000000000000000000000000000060608201526080019056fe5374616b696e6746616365743a207374616b657273206e6f742073616d65206c656e677468206173206672656e735374616b696e673a205469636b6574207472616e736665722072656a65637465642f6661696c65645374616b696e673a205f696473206e6f74207468652073616d65206c656e677468206173205f76616c75657343616e6e6f74207769746864726177207a65726f20706f6f6c207374616b652062616c616e636543616e2774207769746864726177206d6f726520706f6f6c546f6b656e73207468616e20696e206163636f756e7443616e2774207769746864726177206d6f726520676873745374616b696e67546f6b656e207468616e20696e206163636f756e7443616e2774207769746864726177206d6f72652047485354207468616e207374616b65644c696245524332303a20636f6e74726163742063616c6c2072657475726e65642066616c7365a2646970667358221220ec84bff5a81a3c2c95e7d3a96af6693c98718b4834f9334975c2a9210158087f64736f6c63430007060033",
  "linkReferences": {},
  "deployedLinkReferences": {}
}