{
  "_format": "hh-sol-artifact-1",
  "contractName": "StakingFacet",
  "sourceName": "contracts/facets/StakingFacet.sol",
  "abi": [
    {
      "anonymous": false,
      "inputs": [
        {
          "indexed": true,
          "internalType": "address",
          "name": "_operator",
          "type": "address"
        },
        {
          "indexed": true,
          "internalType": "address",
          "name": "_from",
          "type": "address"
        },
        {
          "indexed": true,
          "internalType": "address",
          "name": "_to",
          "type": "address"
        },
        {
          "indexed": false,
          "internalType": "uint256[]",
          "name": "_ids",
          "type": "uint256[]"
        },
        {
          "indexed": false,
          "internalType": "uint256[]",
          "name": "_values",
          "type": "uint256[]"
        }
      ],
      "name": "TransferBatch",
      "type": "event"
    },
    {
      "inputs": [
        {
          "internalType": "address[]",
          "name": "_accounts",
          "type": "address[]"
        }
      ],
      "name": "bulkFrens",
      "outputs": [
        {
          "internalType": "uint256[]",
          "name": "frens_",
          "type": "uint256[]"
        }
      ],
      "stateMutability": "view",
      "type": "function"
    },
    {
      "inputs": [
        {
          "internalType": "uint256[]",
          "name": "_ids",
          "type": "uint256[]"
        },
        {
          "internalType": "uint256[]",
          "name": "_values",
          "type": "uint256[]"
        }
      ],
      "name": "claimTickets",
      "outputs": [],
      "stateMutability": "nonpayable",
      "type": "function"
    },
    {
      "inputs": [
        {
          "internalType": "address",
          "name": "_account",
          "type": "address"
        }
      ],
      "name": "frens",
      "outputs": [
        {
          "internalType": "uint256",
          "name": "frens_",
          "type": "uint256"
        }
      ],
      "stateMutability": "view",
      "type": "function"
    },
    {
      "inputs": [
        {
          "internalType": "address[]",
          "name": "_stakers",
          "type": "address[]"
        },
        {
          "internalType": "uint256[]",
          "name": "_frens",
          "type": "uint256[]"
        }
      ],
      "name": "migrateFrens",
      "outputs": [],
      "stateMutability": "nonpayable",
      "type": "function"
    },
    {
      "inputs": [
        {
          "internalType": "uint256",
          "name": "_ghstValue",
          "type": "uint256"
        }
      ],
      "name": "stakeGhst",
      "outputs": [],
      "stateMutability": "nonpayable",
      "type": "function"
    },
    {
      "inputs": [
        {
          "internalType": "uint256",
          "name": "_uniV2PoolTokens",
          "type": "uint256"
        }
      ],
      "name": "stakeUniV2PoolTokens",
      "outputs": [],
      "stateMutability": "nonpayable",
      "type": "function"
    },
    {
      "inputs": [
        {
          "internalType": "address",
          "name": "_account",
          "type": "address"
        }
      ],
      "name": "staked",
      "outputs": [
        {
          "internalType": "uint256",
          "name": "ghst_",
          "type": "uint256"
        },
        {
          "internalType": "uint256",
          "name": "uniV2PoolTokens_",
          "type": "uint256"
        }
      ],
      "stateMutability": "view",
      "type": "function"
    },
    {
      "inputs": [
        {
          "internalType": "uint256",
          "name": "_id",
          "type": "uint256"
        }
      ],
      "name": "ticketCost",
      "outputs": [
        {
          "internalType": "uint256",
          "name": "_frensCost",
          "type": "uint256"
        }
      ],
      "stateMutability": "pure",
      "type": "function"
    },
    {
      "inputs": [],
      "name": "withdrawGhstStake",
      "outputs": [],
      "stateMutability": "nonpayable",
      "type": "function"
    },
    {
      "inputs": [
        {
          "internalType": "uint256",
          "name": "_ghstValue",
          "type": "uint256"
        }
      ],
      "name": "withdrawGhstStake",
      "outputs": [],
      "stateMutability": "nonpayable",
      "type": "function"
    },
    {
      "inputs": [],
      "name": "withdrawUniV2PoolStake",
      "outputs": [],
      "stateMutability": "nonpayable",
      "type": "function"
    },
    {
      "inputs": [
        {
          "internalType": "uint256",
          "name": "_uniV2PoolTokens",
          "type": "uint256"
        }
      ],
      "name": "withdrawUniV2PoolStake",
      "outputs": [],
      "stateMutability": "nonpayable",
      "type": "function"
    }
  ],
  "bytecode": "0x608060405234801561001057600080fd5b50611a0e806100206000396000f3fe608060405234801561001057600080fd5b50600436106100d45760003560e01c80639c0dfa0111610081578063d097298e1161005b578063d097298e14610357578063eb74726014610417578063f8a6103f14610434576100d4565b80639c0dfa0114610270578063aa061d091461028d578063c51c02ed1461034f576100d4565b806388fa5b04116100b257806388fa5b04146101ff5780639119f1501461021c57806398807d8414610224576100d4565b80630fe6ed26146100d9578063338d88ca1461019d5780634b334ef6146101ba575b600080fd5b61019b600480360360408110156100ef57600080fd5b81019060208101813564010000000081111561010a57600080fd5b82018360208201111561011c57600080fd5b8035906020019184602083028401116401000000008311171561013e57600080fd5b91939092909160208101903564010000000081111561015c57600080fd5b82018360208201111561016e57600080fd5b8035906020019184602083028401116401000000008311171561019057600080fd5b509092509050610451565b005b61019b600480360360208110156101b357600080fd5b50356105d5565b6101ed600480360360208110156101d057600080fd5b503573ffffffffffffffffffffffffffffffffffffffff16610666565b60408051918252519081900360200190f35b61019b6004803603602081101561021557600080fd5b5035610750565b61019b6107cb565b6102576004803603602081101561023a57600080fd5b503573ffffffffffffffffffffffffffffffffffffffff1661083f565b6040805192835260208301919091528051918290030190f35b61019b6004803603602081101561028657600080fd5b503561088a565b61019b600480360360408110156102a357600080fd5b8101906020810181356401000000008111156102be57600080fd5b8201836020820111156102d057600080fd5b803590602001918460208302840111640100000000831117156102f257600080fd5b91939092909160208101903564010000000081111561031057600080fd5b82018360208201111561032257600080fd5b8035906020019184602083028401116401000000008311171561034457600080fd5b50909250905061097a565b61019b610f34565b6103c76004803603602081101561036d57600080fd5b81019060208101813564010000000081111561038857600080fd5b82018360208201111561039a57600080fd5b803590602001918460208302840111640100000000831117156103bc57600080fd5b509092509050610fb7565b60408051602080825283518183015283519192839290830191858101910280838360005b838110156104035781810151838201526020016103eb565b505050509050019250505060405180910390f35b61019b6004803603602081101561042d57600080fd5b503561105f565b6101ed6004803603602081101561044a57600080fd5b503561116a565b61045961126c565b8281146104b1576040517f08c379a000000000000000000000000000000000000000000000000000000000815260040180806020018281038252602e8152602001806118e7602e913960400191505060405180910390fd5b60005b838110156105ce5760006001818787858181106104cd57fe5b9050602002013573ffffffffffffffffffffffffffffffffffffffff1673ffffffffffffffffffffffffffffffffffffffff1673ffffffffffffffffffffffffffffffffffffffff168152602001908152602001600020905083838381811061053257fe5b600184810180547fffffffffffffffffffffffffffffffffffffff000000000000000000000000001660209390930294909401356cffffffffffffffffffffffffff16919091179092555081547fffffff0000000000ffffffffffffffffffffffffffffffffffffffffffffffff1678010000000000000000000000000000000000000000000000004264ffffffffff160217909155016104b4565b5050505050565b6105dd6112e7565b33600081815260016020526040902080546bffffffffffffffffffffffff6c0100000000000000000000000080830482168601909116027fffffffffffffffff000000000000000000000000ffffffffffffffffffffffff9091161790556004546106639173ffffffffffffffffffffffffffffffffffffffff9190911690308461138c565b50565b60006106706118bf565b505073ffffffffffffffffffffffffffffffffffffffff8116600090815260016020818152604092839020835160808101855281546bffffffffffffffffffffffff80821683526c0100000000000000000000000082041693820184905264ffffffffff7801000000000000000000000000000000000000000000000000909104169481018590529201546cffffffffffffffffffffffffff166060830181905292420390620151809082026064020483019250620151808183600001516bffffffffffffffffffffffff16028161074457fe5b04830192505050919050565b6107586112e7565b33600081815260016020526040902080546bffffffffffffffffffffffff8082168501167fffffffffffffffffffffffffffffffffffffffff0000000000000000000000009091161790556003546106639173ffffffffffffffffffffffffffffffffffffffff9190911690308461138c565b6107d36112e7565b33600081815260016020526040902080547fffffffffffffffffffffffffffffffffffffffff00000000000000000000000081169091556003546bffffffffffffffffffffffff909116916106639173ffffffffffffffffffffffffffffffffffffffff16908361154e565b73ffffffffffffffffffffffffffffffffffffffff166000908152600160205260409020546bffffffffffffffffffffffff808216926c010000000000000000000000009092041690565b6108926112e7565b336000908152600160205260409020546bffffffffffffffffffffffff1681811015610909576040517f08c379a000000000000000000000000000000000000000000000000000000000815260040180806020018281038252602881526020018061198b6028913960400191505060405180910390fd5b33600081815260016020526040902080547fffffffffffffffffffffffffffffffffffffffff000000000000000000000000168484036bffffffffffffffffffffffff161790556003546109769173ffffffffffffffffffffffffffffffffffffffff909116908461154e565b5050565b8281146109d2576040517f08c379a000000000000000000000000000000000000000000000000000000000815260040180806020018281038252602c81526020018061195f602c913960400191505060405180910390fd5b6109da6112e7565b336000908152600160208190526040822001546cffffffffffffffffffffffffff16905b84811015610b96576000868683818110610a1457fe5b9050602002013590506000858584818110610a2b57fe5b90506020020135905060068210610aa357604080517f08c379a000000000000000000000000000000000000000000000000000000000815260206004820152601960248201527f5374616b696e673a205469636b6574206e6f7420666f756e6400000000000000604482015290519081900360640190fd5b600081610aaf8461116a565b02905080851015610b2157604080517f08c379a000000000000000000000000000000000000000000000000000000000815260206004820181905260248201527f5374616b696e673a204e6f7420656e6f756768206672656e7320706f696e7473604482015290519081900360640190fd5b6000838152600260208181526040808420338552808352908420805487019055959092529052600192830180547fffffffffffffffffffffffffffffffffffffffff00000000000000000000000081166bffffffffffffffffffffffff918216909401169290921790915590920391016109fe565b5033600081815260016020818152604080842090920180547fffffffffffffffffffffffffffffffffffffff00000000000000000000000000166cffffffffffffffffffffffffff8716179055815182815291820188905283917f4a39dc06d4c0dbc64b70af90fd698a233a518aa5d07e595d983b8c0526c8f7fb918a918a918a918a9181908181019060608301908890880280828437600083820152601f017fffffffffffffffffffffffffffffffffffffffffffffffffffffffffffffffe0169091018481038352858152602090810191508690860280828437600083820152604051601f9091017fffffffffffffffffffffffffffffffffffffffffffffffffffffffffffffffe0169092018290039850909650505050505050a433803b908115610f2b573363bc197c818160008a8a8a8a846040519080825280601f01601f191660200182016040528015610cf6576020820181803683370190505b506040518863ffffffff1660e01b8152600401808873ffffffffffffffffffffffffffffffffffffffff1681526020018773ffffffffffffffffffffffffffffffffffffffff1681526020018060200180602001806020018481038452898982818152602001925060200280828437600083820152601f017fffffffffffffffffffffffffffffffffffffffffffffffffffffffffffffffe01690910185810384528781526020908101915088908802808284376000838201819052601f9091017fffffffffffffffffffffffffffffffffffffffffffffffffffffffffffffffe01690920186810384528751815287516020918201939189019250908190849084905b83811015610e12578181015183820152602001610dfa565b50505050905090810190601f168015610e3f5780820380516001836020036101000a031916815260200191505b509a5050505050505050505050602060405180830381600087803b158015610e6657600080fd5b505af1158015610e7a573d6000803e3d6000fd5b505050506040513d6020811015610e9057600080fd5b50517fffffffff00000000000000000000000000000000000000000000000000000000167fbc197c810000000000000000000000000000000000000000000000000000000014610f2b576040517f08c379a00000000000000000000000000000000000000000000000000000000081526004018080602001828103825260288152602001806119376028913960400191505060405180910390fd5b50505050505050565b610f3c6112e7565b33600081815260016020526040902080547fffffffffffffffff000000000000000000000000ffffffffffffffffffffffff81169091556004546c010000000000000000000000009091046bffffffffffffffffffffffff16916106639173ffffffffffffffffffffffffffffffffffffffff16908361154e565b60608167ffffffffffffffff81118015610fd057600080fd5b50604051908082528060200260200182016040528015610ffa578160200160208202803683370190505b50905060005b828110156110585761103984848381811061101757fe5b9050602002013573ffffffffffffffffffffffffffffffffffffffff16610666565b82828151811061104557fe5b6020908102919091010152600101611000565b5092915050565b6110676112e7565b336000908152600160205260409020546c0100000000000000000000000090046bffffffffffffffffffffffff16818110156110ee576040517f08c379a000000000000000000000000000000000000000000000000000000000815260040180806020018281038252602881526020018061198b6028913960400191505060405180910390fd5b33600081815260016020526040902080547fffffffffffffffff000000000000000000000000ffffffffffffffffffffffff166c010000000000000000000000008585036bffffffffffffffffffffffff16021790556004546109769173ffffffffffffffffffffffffffffffffffffffff909116908461154e565b60008161118157506802b5e3af16b1880000611267565b816001141561119a5750680d8d726b7177a80000611267565b81600214156111b35750681b1ae4d6e2ef500000611267565b81600314156111cc575068878678326eac900000611267565b81600414156111e6575069021e19e0c9bab2400000611267565b81600514156112005750690a968163f0a57b400000611267565b604080517f08c379a000000000000000000000000000000000000000000000000000000000815260206004820152601b60248201527f5374616b696e673a205f696420646f6573206e6f742065786973740000000000604482015290519081900360640190fd5b919050565b611274611710565b6004015473ffffffffffffffffffffffffffffffffffffffff1633146112e5576040517f08c379a00000000000000000000000000000000000000000000000000000000081526004018080602001828103825260228152602001806119156022913960400191505060405180910390fd5b565b3360008181526001602052604090209061130090610666565b6001820180547fffffffffffffffffffffffffffffffffffffff00000000000000000000000000166cffffffffffffffffffffffffff9290921691909117905580547fffffff0000000000ffffffffffffffffffffffffffffffffffffffffffffffff1678010000000000000000000000000000000000000000000000004264ffffffffff1602179055565b833b806113fa57604080517f08c379a000000000000000000000000000000000000000000000000000000000815260206004820152601d60248201527f4c696245524332303a204164647265737320686173206e6f20636f6465000000604482015290519081900360640190fd5b6040805173ffffffffffffffffffffffffffffffffffffffff86811660248301528581166044830152606480830186905283518084039091018152608490920183526020820180517bffffffffffffffffffffffffffffffffffffffffffffffffffffffff167f23b872dd0000000000000000000000000000000000000000000000000000000017815292518251600094606094938b169392918291908083835b602083106114d857805182527fffffffffffffffffffffffffffffffffffffffffffffffffffffffffffffffe0909201916020918201910161149b565b6001836020036101000a0380198251168184511680821785525050505050509050019150506000604051808303816000865af19150503d806000811461153a576040519150601f19603f3d011682016040523d82523d6000602084013e61153f565b606091505b5091509150610f2b8282611734565b823b806115bc57604080517f08c379a000000000000000000000000000000000000000000000000000000000815260206004820152601d60248201527f4c696245524332303a204164647265737320686173206e6f20636f6465000000604482015290519081900360640190fd5b6040805173ffffffffffffffffffffffffffffffffffffffff8581166024830152604480830186905283518084039091018152606490920183526020820180517bffffffffffffffffffffffffffffffffffffffffffffffffffffffff167fa9059cbb0000000000000000000000000000000000000000000000000000000017815292518251600094606094938a169392918291908083835b6020831061169257805182527fffffffffffffffffffffffffffffffffffffffffffffffffffffffffffffffe09092019160209182019101611655565b6001836020036101000a0380198251168184511680821785525050505050509050019150506000604051808303816000865af19150503d80600081146116f4576040519150601f19603f3d011682016040523d82523d6000602084013e6116f9565b606091505b50915091506117088282611734565b505050505050565b7fc8fcad8db84d3cc18b4c41d551ea0ee66dd599cde068d998e57d5e09332c131c90565b81156117b2578051156117ad5780806020019051602081101561175657600080fd5b50516117ad576040517f08c379a00000000000000000000000000000000000000000000000000000000081526004018080602001828103825260268152602001806119b36026913960400191505060405180910390fd5b610976565b80511561185857806040517f08c379a00000000000000000000000000000000000000000000000000000000081526004018080602001828103825283818151815260200191508051906020019080838360005b8381101561181d578181015183820152602001611805565b50505050905090810190601f16801561184a5780820380516001836020036101000a031916815260200191505b509250505060405180910390fd5b604080517f08c379a000000000000000000000000000000000000000000000000000000000815260206004820181905260248201527f4c696245524332303a20636f6e74726163742063616c6c207265766572746564604482015290519081900360640190fd5b6040805160808101825260008082526020820181905291810182905260608101919091529056fe5374616b696e6746616365743a207374616b657273206e6f742073616d65206c656e677468206173206672656e734c69624469616d6f6e643a204d75737420626520636f6e7472616374206f776e65725374616b696e673a205469636b6574207472616e736665722072656a65637465642f6661696c65645374616b696e673a205f696473206e6f74207468652073616d65206c656e677468206173205f76616c7565735374616b696e673a2043616e2774207769746864726177206d6f7265207468616e207374616b65644c696245524332303a20636f6e74726163742063616c6c2072657475726e65642066616c7365a264697066735822122091f1eaf9776704c3838f9f0d45ddd22e4a55b2a26f3c5d85e2506f743f5c29eb64736f6c63430007030033",
  "linkReferences": {},
  "deployedLinkReferences": {}
}