{
  "_format": "hh-sol-artifact-1",
  "contractName": "WrappedAToken",
  "sourceName": "contracts/WrappedAToken.sol",
  "abi": [
    {
      "inputs": [
        {
          "internalType": "address",
          "name": "owner",
          "type": "address"
        }
      ],
      "name": "InvalidOwner",
      "type": "error"
    },
    {
      "inputs": [
        {
          "internalType": "address",
          "name": "receiver",
          "type": "address"
        }
      ],
      "name": "InvalidReceiver",
      "type": "error"
    },
    {
      "inputs": [
        {
          "internalType": "address",
          "name": "token",
          "type": "address"
        }
      ],
      "name": "InvalidRescue",
      "type": "error"
    },
    {
      "anonymous": false,
      "inputs": [
        {
          "indexed": true,
          "internalType": "address",
          "name": "owner",
          "type": "address"
        },
        {
          "indexed": true,
          "internalType": "address",
          "name": "spender",
          "type": "address"
        },
        {
          "indexed": false,
          "internalType": "uint256",
          "name": "value",
          "type": "uint256"
        }
      ],
      "name": "Approval",
      "type": "event"
    },
    {
      "anonymous": false,
      "inputs": [
        {
          "indexed": true,
          "internalType": "address",
          "name": "caller",
          "type": "address"
        },
        {
          "indexed": true,
          "internalType": "address",
          "name": "owner",
          "type": "address"
        },
        {
          "indexed": false,
          "internalType": "uint256",
          "name": "assets",
          "type": "uint256"
        },
        {
          "indexed": false,
          "internalType": "uint256",
          "name": "shares",
          "type": "uint256"
        }
      ],
      "name": "Deposit",
      "type": "event"
    },
    {
      "anonymous": false,
      "inputs": [
        {
          "indexed": false,
          "internalType": "address",
          "name": "aToken",
          "type": "address"
        },
        {
          "indexed": false,
          "internalType": "address",
          "name": "rewardsController",
          "type": "address"
        },
        {
          "indexed": false,
          "internalType": "address",
          "name": "treasury",
          "type": "address"
        },
        {
          "indexed": false,
          "internalType": "address",
          "name": "owner",
          "type": "address"
        },
        {
          "indexed": false,
          "internalType": "string",
          "name": "name",
          "type": "string"
        },
        {
          "indexed": false,
          "internalType": "string",
          "name": "symbol",
          "type": "string"
        }
      ],
      "name": "Initialized",
      "type": "event"
    },
    {
      "anonymous": false,
      "inputs": [
        {
          "indexed": false,
          "internalType": "uint8",
          "name": "version",
          "type": "uint8"
        }
      ],
      "name": "Initialized",
      "type": "event"
    },
    {
      "anonymous": false,
      "inputs": [
        {
          "indexed": true,
          "internalType": "address",
          "name": "previousOwner",
          "type": "address"
        },
        {
          "indexed": true,
          "internalType": "address",
          "name": "newOwner",
          "type": "address"
        }
      ],
      "name": "OwnershipTransferred",
      "type": "event"
    },
    {
      "anonymous": false,
      "inputs": [
        {
          "indexed": true,
          "internalType": "address",
          "name": "from",
          "type": "address"
        },
        {
          "indexed": true,
          "internalType": "address",
          "name": "to",
          "type": "address"
        },
        {
          "indexed": false,
          "internalType": "uint256",
          "name": "value",
          "type": "uint256"
        }
      ],
      "name": "Transfer",
      "type": "event"
    },
    {
      "anonymous": false,
      "inputs": [
        {
          "indexed": true,
          "internalType": "address",
          "name": "caller",
          "type": "address"
        },
        {
          "indexed": true,
          "internalType": "address",
          "name": "receiver",
          "type": "address"
        },
        {
          "indexed": true,
          "internalType": "address",
          "name": "owner",
          "type": "address"
        },
        {
          "indexed": false,
          "internalType": "uint256",
          "name": "assets",
          "type": "uint256"
        },
        {
          "indexed": false,
          "internalType": "uint256",
          "name": "shares",
          "type": "uint256"
        }
      ],
      "name": "Withdraw",
      "type": "event"
    },
    {
      "inputs": [],
      "name": "DOMAIN_SEPARATOR",
      "outputs": [
        {
          "internalType": "bytes32",
          "name": "",
          "type": "bytes32"
        }
      ],
      "stateMutability": "view",
      "type": "function"
    },
    {
      "inputs": [
        {
          "internalType": "contract ERC20Upgradeable",
          "name": "_asset",
          "type": "address"
        },
        {
          "internalType": "string",
          "name": "_name",
          "type": "string"
        },
        {
          "internalType": "string",
          "name": "_symbol",
          "type": "string"
        }
      ],
      "name": "__ERC4626_init",
      "outputs": [],
      "stateMutability": "nonpayable",
      "type": "function"
    },
    {
      "inputs": [
        {
          "internalType": "contract ERC20Upgradeable",
          "name": "_asset",
          "type": "address"
        }
      ],
      "name": "__ERC4626_init_unchained",
      "outputs": [],
      "stateMutability": "nonpayable",
      "type": "function"
    },
    {
      "inputs": [
        {
          "internalType": "address",
          "name": "owner",
          "type": "address"
        },
        {
          "internalType": "address",
          "name": "spender",
          "type": "address"
        }
      ],
      "name": "allowance",
      "outputs": [
        {
          "internalType": "uint256",
          "name": "",
          "type": "uint256"
        }
      ],
      "stateMutability": "view",
      "type": "function"
    },
    {
      "inputs": [
        {
          "internalType": "address",
          "name": "spender",
          "type": "address"
        },
        {
          "internalType": "uint256",
          "name": "amount",
          "type": "uint256"
        }
      ],
      "name": "approve",
      "outputs": [
        {
          "internalType": "bool",
          "name": "",
          "type": "bool"
        }
      ],
      "stateMutability": "nonpayable",
      "type": "function"
    },
    {
      "inputs": [],
      "name": "asset",
      "outputs": [
        {
          "internalType": "contract ERC20Upgradeable",
          "name": "",
          "type": "address"
        }
      ],
      "stateMutability": "view",
      "type": "function"
    },
    {
      "inputs": [
        {
          "internalType": "address",
          "name": "account",
          "type": "address"
        }
      ],
      "name": "balanceOf",
      "outputs": [
        {
          "internalType": "uint256",
          "name": "",
          "type": "uint256"
        }
      ],
      "stateMutability": "view",
      "type": "function"
    },
    {
      "inputs": [
        {
          "internalType": "address",
          "name": "_treasury",
          "type": "address"
        }
      ],
      "name": "changeTreasury",
      "outputs": [],
      "stateMutability": "nonpayable",
      "type": "function"
    },
    {
      "inputs": [
        {
          "internalType": "address[]",
          "name": "assets",
          "type": "address[]"
        }
      ],
      "name": "claimRewardTokensToTreasury",
      "outputs": [],
      "stateMutability": "nonpayable",
      "type": "function"
    },
    {
      "inputs": [
        {
          "internalType": "uint256",
          "name": "shares",
          "type": "uint256"
        }
      ],
      "name": "convertToAssets",
      "outputs": [
        {
          "internalType": "uint256",
          "name": "",
          "type": "uint256"
        }
      ],
      "stateMutability": "view",
      "type": "function"
    },
    {
      "inputs": [
        {
          "internalType": "uint256",
          "name": "assets",
          "type": "uint256"
        }
      ],
      "name": "convertToShares",
      "outputs": [
        {
          "internalType": "uint256",
          "name": "",
          "type": "uint256"
        }
      ],
      "stateMutability": "view",
      "type": "function"
    },
    {
      "inputs": [],
      "name": "decimals",
      "outputs": [
        {
          "internalType": "uint8",
          "name": "",
          "type": "uint8"
        }
      ],
      "stateMutability": "view",
      "type": "function"
    },
    {
      "inputs": [
        {
          "internalType": "address",
          "name": "spender",
          "type": "address"
        },
        {
          "internalType": "uint256",
          "name": "subtractedValue",
          "type": "uint256"
        }
      ],
      "name": "decreaseAllowance",
      "outputs": [
        {
          "internalType": "bool",
          "name": "",
          "type": "bool"
        }
      ],
      "stateMutability": "nonpayable",
      "type": "function"
    },
    {
      "inputs": [
        {
          "internalType": "uint256",
          "name": "assets",
          "type": "uint256"
        },
        {
          "internalType": "address",
          "name": "receiver",
          "type": "address"
        }
      ],
      "name": "deposit",
      "outputs": [
        {
          "internalType": "uint256",
          "name": "shares",
          "type": "uint256"
        }
      ],
      "stateMutability": "nonpayable",
      "type": "function"
    },
    {
      "inputs": [
        {
          "internalType": "uint256",
          "name": "assets",
          "type": "uint256"
        }
      ],
      "name": "enter",
      "outputs": [],
      "stateMutability": "nonpayable",
      "type": "function"
    },
    {
      "inputs": [
        {
          "internalType": "uint256",
          "name": "assets",
          "type": "uint256"
        }
      ],
      "name": "enterWithUnderlying",
      "outputs": [
        {
          "internalType": "uint256",
          "name": "shares",
          "type": "uint256"
        }
      ],
      "stateMutability": "nonpayable",
      "type": "function"
    },
    {
      "inputs": [],
      "name": "getRewardsController",
      "outputs": [
        {
          "internalType": "address",
          "name": "",
          "type": "address"
        }
      ],
      "stateMutability": "view",
      "type": "function"
    },
    {
      "inputs": [
        {
          "internalType": "address",
          "name": "spender",
          "type": "address"
        },
        {
          "internalType": "uint256",
          "name": "addedValue",
          "type": "uint256"
        }
      ],
      "name": "increaseAllowance",
      "outputs": [
        {
          "internalType": "bool",
          "name": "",
          "type": "bool"
        }
      ],
      "stateMutability": "nonpayable",
      "type": "function"
    },
    {
      "inputs": [
        {
          "internalType": "address",
          "name": "_asset",
          "type": "address"
        },
        {
          "internalType": "address",
          "name": "_underlying",
          "type": "address"
        },
        {
          "internalType": "address",
          "name": "_lendingPool",
          "type": "address"
        },
        {
          "internalType": "address",
          "name": "_rewardsController",
          "type": "address"
        },
        {
          "internalType": "address",
          "name": "_treasury",
          "type": "address"
        },
        {
          "internalType": "address",
          "name": "_owner",
          "type": "address"
        },
        {
          "internalType": "uint256",
          "name": "_initialSeed",
          "type": "uint256"
        },
        {
          "internalType": "string",
          "name": "_name",
          "type": "string"
        },
        {
          "internalType": "string",
          "name": "_symbol",
          "type": "string"
        }
      ],
      "name": "initialize",
      "outputs": [],
      "stateMutability": "nonpayable",
      "type": "function"
    },
    {
      "inputs": [
        {
          "internalType": "uint256",
          "name": "shares",
          "type": "uint256"
        }
      ],
      "name": "leave",
      "outputs": [],
      "stateMutability": "nonpayable",
      "type": "function"
    },
    {
      "inputs": [
        {
          "internalType": "uint256",
          "name": "shares",
          "type": "uint256"
        }
      ],
      "name": "leaveToUnderlying",
      "outputs": [
        {
          "internalType": "uint256",
          "name": "assets",
          "type": "uint256"
        }
      ],
      "stateMutability": "nonpayable",
      "type": "function"
    },
    {
      "inputs": [],
      "name": "lendingPool",
      "outputs": [
        {
          "internalType": "contract ILendingPool",
          "name": "",
          "type": "address"
        }
      ],
      "stateMutability": "view",
      "type": "function"
    },
    {
      "inputs": [
        {
          "internalType": "address",
          "name": "",
          "type": "address"
        }
      ],
      "name": "maxDeposit",
      "outputs": [
        {
          "internalType": "uint256",
          "name": "",
          "type": "uint256"
        }
      ],
      "stateMutability": "view",
      "type": "function"
    },
    {
      "inputs": [
        {
          "internalType": "address",
          "name": "",
          "type": "address"
        }
      ],
      "name": "maxMint",
      "outputs": [
        {
          "internalType": "uint256",
          "name": "",
          "type": "uint256"
        }
      ],
      "stateMutability": "view",
      "type": "function"
    },
    {
      "inputs": [
        {
          "internalType": "address",
          "name": "owner",
          "type": "address"
        }
      ],
      "name": "maxRedeem",
      "outputs": [
        {
          "internalType": "uint256",
          "name": "",
          "type": "uint256"
        }
      ],
      "stateMutability": "view",
      "type": "function"
    },
    {
      "inputs": [
        {
          "internalType": "address",
          "name": "owner",
          "type": "address"
        }
      ],
      "name": "maxWithdraw",
      "outputs": [
        {
          "internalType": "uint256",
          "name": "",
          "type": "uint256"
        }
      ],
      "stateMutability": "view",
      "type": "function"
    },
    {
      "inputs": [
        {
          "internalType": "uint256",
          "name": "shares",
          "type": "uint256"
        },
        {
          "internalType": "address",
          "name": "receiver",
          "type": "address"
        }
      ],
      "name": "mint",
      "outputs": [
        {
          "internalType": "uint256",
          "name": "assets",
          "type": "uint256"
        }
      ],
      "stateMutability": "nonpayable",
      "type": "function"
    },
    {
      "inputs": [],
      "name": "name",
      "outputs": [
        {
          "internalType": "string",
          "name": "",
          "type": "string"
        }
      ],
      "stateMutability": "view",
      "type": "function"
    },
    {
      "inputs": [
        {
          "internalType": "address",
          "name": "owner",
          "type": "address"
        }
      ],
      "name": "nonces",
      "outputs": [
        {
          "internalType": "uint256",
          "name": "",
          "type": "uint256"
        }
      ],
      "stateMutability": "view",
      "type": "function"
    },
    {
      "inputs": [],
      "name": "owner",
      "outputs": [
        {
          "internalType": "address",
          "name": "",
          "type": "address"
        }
      ],
      "stateMutability": "view",
      "type": "function"
    },
    {
      "inputs": [
        {
          "internalType": "address",
          "name": "owner",
          "type": "address"
        },
        {
          "internalType": "address",
          "name": "spender",
          "type": "address"
        },
        {
          "internalType": "uint256",
          "name": "value",
          "type": "uint256"
        },
        {
          "internalType": "uint256",
          "name": "deadline",
          "type": "uint256"
        },
        {
          "internalType": "uint8",
          "name": "v",
          "type": "uint8"
        },
        {
          "internalType": "bytes32",
          "name": "r",
          "type": "bytes32"
        },
        {
          "internalType": "bytes32",
          "name": "s",
          "type": "bytes32"
        }
      ],
      "name": "permit",
      "outputs": [],
      "stateMutability": "nonpayable",
      "type": "function"
    },
    {
      "inputs": [
        {
          "internalType": "uint256",
          "name": "assets",
          "type": "uint256"
        }
      ],
      "name": "previewDeposit",
      "outputs": [
        {
          "internalType": "uint256",
          "name": "",
          "type": "uint256"
        }
      ],
      "stateMutability": "view",
      "type": "function"
    },
    {
      "inputs": [
        {
          "internalType": "uint256",
          "name": "shares",
          "type": "uint256"
        }
      ],
      "name": "previewMint",
      "outputs": [
        {
          "internalType": "uint256",
          "name": "",
          "type": "uint256"
        }
      ],
      "stateMutability": "view",
      "type": "function"
    },
    {
      "inputs": [
        {
          "internalType": "uint256",
          "name": "shares",
          "type": "uint256"
        }
      ],
      "name": "previewRedeem",
      "outputs": [
        {
          "internalType": "uint256",
          "name": "",
          "type": "uint256"
        }
      ],
      "stateMutability": "view",
      "type": "function"
    },
    {
      "inputs": [
        {
          "internalType": "uint256",
          "name": "assets",
          "type": "uint256"
        }
      ],
      "name": "previewWithdraw",
      "outputs": [
        {
          "internalType": "uint256",
          "name": "",
          "type": "uint256"
        }
      ],
      "stateMutability": "view",
      "type": "function"
    },
    {
      "inputs": [
        {
          "internalType": "uint256",
          "name": "shares",
          "type": "uint256"
        },
        {
          "internalType": "address",
          "name": "receiver",
          "type": "address"
        },
        {
          "internalType": "address",
          "name": "owner",
          "type": "address"
        }
      ],
      "name": "redeem",
      "outputs": [
        {
          "internalType": "uint256",
          "name": "assets",
          "type": "uint256"
        }
      ],
      "stateMutability": "nonpayable",
      "type": "function"
    },
    {
      "inputs": [],
      "name": "renounceOwnership",
      "outputs": [],
      "stateMutability": "nonpayable",
      "type": "function"
    },
    {
      "inputs": [
        {
          "internalType": "address",
          "name": "token",
          "type": "address"
        },
        {
          "internalType": "uint256",
          "name": "amount",
          "type": "uint256"
        }
      ],
      "name": "rescueTokens",
      "outputs": [],
      "stateMutability": "nonpayable",
      "type": "function"
    },
    {
      "inputs": [],
      "name": "rewardsController",
      "outputs": [
        {
          "internalType": "contract IRewardsController",
          "name": "",
          "type": "address"
        }
      ],
      "stateMutability": "view",
      "type": "function"
    },
    {
      "inputs": [],
      "name": "symbol",
      "outputs": [
        {
          "internalType": "string",
          "name": "",
          "type": "string"
        }
      ],
      "stateMutability": "view",
      "type": "function"
    },
    {
      "inputs": [],
      "name": "totalAssets",
      "outputs": [
        {
          "internalType": "uint256",
          "name": "",
          "type": "uint256"
        }
      ],
      "stateMutability": "view",
      "type": "function"
    },
    {
      "inputs": [],
      "name": "totalSupply",
      "outputs": [
        {
          "internalType": "uint256",
          "name": "",
          "type": "uint256"
        }
      ],
      "stateMutability": "view",
      "type": "function"
    },
    {
      "inputs": [
        {
          "internalType": "address",
          "name": "to",
          "type": "address"
        },
        {
          "internalType": "uint256",
          "name": "amount",
          "type": "uint256"
        }
      ],
      "name": "transfer",
      "outputs": [
        {
          "internalType": "bool",
          "name": "",
          "type": "bool"
        }
      ],
      "stateMutability": "nonpayable",
      "type": "function"
    },
    {
      "inputs": [
        {
          "internalType": "address",
          "name": "from",
          "type": "address"
        },
        {
          "internalType": "address",
          "name": "to",
          "type": "address"
        },
        {
          "internalType": "uint256",
          "name": "amount",
          "type": "uint256"
        }
      ],
      "name": "transferFrom",
      "outputs": [
        {
          "internalType": "bool",
          "name": "",
          "type": "bool"
        }
      ],
      "stateMutability": "nonpayable",
      "type": "function"
    },
    {
      "inputs": [
        {
          "internalType": "address",
          "name": "newOwner",
          "type": "address"
        }
      ],
      "name": "transferOwnership",
      "outputs": [],
      "stateMutability": "nonpayable",
      "type": "function"
    },
    {
      "inputs": [],
      "name": "treasury",
      "outputs": [
        {
          "internalType": "address",
          "name": "",
          "type": "address"
        }
      ],
      "stateMutability": "view",
      "type": "function"
    },
    {
      "inputs": [],
      "name": "underlying",
      "outputs": [
        {
          "internalType": "contract ERC20Upgradeable",
          "name": "",
          "type": "address"
        }
      ],
      "stateMutability": "view",
      "type": "function"
    },
    {
      "inputs": [
        {
          "internalType": "uint256",
          "name": "assets",
          "type": "uint256"
        },
        {
          "internalType": "address",
          "name": "receiver",
          "type": "address"
        },
        {
          "internalType": "address",
          "name": "owner",
          "type": "address"
        }
      ],
      "name": "withdraw",
      "outputs": [
        {
          "internalType": "uint256",
          "name": "shares",
          "type": "uint256"
        }
      ],
      "stateMutability": "nonpayable",
      "type": "function"
    }
  ],
  "bytecode": "0x608060405234801561001057600080fd5b50612e31806100206000396000f3fe608060405234801561001057600080fd5b50600436106102a05760003560e01c80637ecebe0011610167578063c63d75b6116100ce578063dd62ed3e11610087578063dd62ed3e146105cd578063de262738146105e0578063e1c4a03d146105f1578063ed0dc83614610604578063ef8b30f714610617578063f2fde38b1461062a57600080fd5b8063c63d75b6146103b6578063c6e6f5921461056e578063ce96cb7714610581578063d505accf14610594578063d735149c146105a7578063d905777e146105ba57600080fd5b8063a59f3e0c11610120578063a59f3e0c146104fc578063a9059cbb1461050f578063b14f2a3914610522578063b3d7f6b914610535578063b460af9414610548578063ba0876521461055b57600080fd5b80637ecebe00146104965780638da5cb5b146104a957806394bf804d146104ba57806395d89b41146104cd578063a457c2d7146104d5578063a59a9973146104e857600080fd5b80633d1396eb1161020b5780636bb65f53116101c45780636bb65f53146104185780636e553f651461042b5780636f307dc31461043e57806370a0823114610452578063715018a61461047b578063747661ab1461048357600080fd5b80633d1396eb146103a3578063402d267d146103b65780634cdad506146103cb57806357376198146103de57806361d027b3146103f157806367dfd4c91461040557600080fd5b806323b872dd1161025d57806323b872dd146103265780632e014b6414610339578063313ce5671461034e5780633644e5151461035d57806338d52e0f14610365578063395093511461039057600080fd5b806301e1d114146102a557806306fdde03146102c057806307a2d13a146102d5578063095ea7b3146102e85780630a28a4771461030b57806318160ddd1461031e575b600080fd5b6102ad61063d565b6040519081526020015b60405180910390f35b6102c86106af565b6040516102b79190612522565b6102ad6102e3366004612555565b610741565b6102fb6102f636600461258e565b610776565b60405190151581526020016102b7565b6102ad610319366004612555565b610790565b6067546102ad565b6102fb6103343660046125ba565b6107b8565b61034c6103473660046125fb565b6107dc565b005b604051601281526020016102b7565b6102ad61082e565b60fe54610378906001600160a01b031681565b6040516001600160a01b0390911681526020016102b7565b6102fb61039e36600461258e565b610838565b61034c6103b13660046126cf565b61085a565b6102ad6103c43660046125fb565b5060001990565b6102ad6103d9366004612555565b6108b8565b61034c6103ec36600461258e565b6108c3565b61010254610378906001600160a01b031681565b61034c610413366004612555565b61091c565b60ff54610378906001600160a01b031681565b6102ad610439366004612745565b61092d565b61010154610378906001600160a01b031681565b6102ad6104603660046125fb565b6001600160a01b031660009081526065602052604090205490565b61034c6109e6565b6102ad610491366004612555565b610a1c565b6102ad6104a43660046125fb565b610b44565b6033546001600160a01b0316610378565b6102ad6104c8366004612745565b610b62565b6102c8610bd5565b6102fb6104e336600461258e565b610be4565b61010054610378906001600160a01b031681565b61034c61050a366004612555565b610c5f565b6102fb61051d36600461258e565b610c69565b61034c6105303660046125fb565b610c77565b6102ad610543366004612555565b610cc4565b6102ad610556366004612775565b610ceb565b6102ad610569366004612775565b610d9c565b6102ad61057c366004612555565b610e8b565b6102ad61058f3660046125fb565b610eb3565b61034c6105a23660046127b7565b610ed5565b61034c6105b5366004612877565b611039565b6102ad6105c83660046125fb565b61125f565b6102ad6105db366004612965565b61127d565b60ff546001600160a01b0316610378565b61034c6105ff366004612993565b6112a8565b6102ad610612366004612555565b61132d565b6102ad610625366004612555565b611460565b61034c6106383660046125fb565b61146b565b60fe546040516370a0823160e01b81523060048201526000916001600160a01b0316906370a0823190602401602060405180830381865afa158015610686573d6000803e3d6000fd5b505050506040513d601f19601f820116820180604052508101906106aa9190612a08565b905090565b6060606880546106be90612a21565b80601f01602080910402602001604051908101604052809291908181526020018280546106ea90612a21565b80156107375780601f1061070c57610100808354040283529160200191610737565b820191906000526020600020905b81548152906001019060200180831161071a57829003601f168201915b5050505050905090565b60008061074d60675490565b9050801561076d5761076861076061063d565b849083611506565b61076f565b825b9392505050565b600033610784818585611525565b60019150505b92915050565b60008061079c60675490565b9050801561076d57610768816107b061063d565b859190611649565b6000336107c6858285611677565b6107d18585856116eb565b506001949350505050565b600054610100900460ff1661080c5760405162461bcd60e51b815260040161080390612a55565b60405180910390fd5b60fe80546001600160a01b0319166001600160a01b0392909216919091179055565b60006106aa6118b9565b60003361078481858561084b838361127d565b6108559190612ab6565b611525565b600054610100900460ff166108815760405162461bcd60e51b815260040161080390612a55565b61088b8282611934565b61089482611982565b505060fe80546001600160a01b0319166001600160a01b0392909216919091179055565b600061078a82610741565b60fe546001600160a01b03908116908316036108fd5760405163e80184bf60e01b81526001600160a01b0383166004820152602401610803565b61010254610918906001600160a01b038481169116836119cc565b5050565b33610928828280610d9c565b505050565b600061093883611460565b9050806000036109785760405162461bcd60e51b815260206004820152600b60248201526a5a45524f5f53484152455360a81b6044820152606401610803565b60fe54610990906001600160a01b0316333086611a2f565b61099a8282611a67565b60408051848152602081018390526001600160a01b0384169133917fdcbc1c05240f31ff3ad067ef1ee35ce4997762752e3a095284754544f4c709d791015b60405180910390a361078a565b6033546001600160a01b03163314610a105760405162461bcd60e51b815260040161080390612ace565b610a1a6000611b46565b565b600033610a28836108b8565b915081600003610a685760405162461bcd60e51b815260206004820152600b60248201526a5a45524f5f41535345545360a81b6044820152606401610803565b610a728184611b98565b60408051838152602081018590526001600160a01b03831691829182917ffbde797d201c681b91056529119e0b02407c7bb96a4a2c75c01fc9667232c8db910160405180910390a46101005461010154604051631a4ca37b60e21b81526001600160a01b0391821660048201526024810185905283821660448201529116906369328dec906064016020604051808303816000875af1158015610b19573d6000803e3d6000fd5b505050506040513d601f19601f82011682018060405250810190610b3d9190612a08565b5050919050565b6001600160a01b038116600090815260cb602052604081205461078a565b6000610b6d83610cc4565b60fe54909150610b88906001600160a01b0316333084611a2f565b610b928284611a67565b60408051828152602081018590526001600160a01b0384169133917fdcbc1c05240f31ff3ad067ef1ee35ce4997762752e3a095284754544f4c709d791016109d9565b6060606980546106be90612a21565b60003381610bf2828661127d565b905083811015610c525760405162461bcd60e51b815260206004820152602560248201527f45524332303a2064656372656173656420616c6c6f77616e63652062656c6f77604482015264207a65726f60d81b6064820152608401610803565b6107d18286868403611525565b610918813361092d565b6000336107848185856116eb565b6033546001600160a01b03163314610ca15760405162461bcd60e51b815260040161080390612ace565b61010280546001600160a01b0319166001600160a01b0392909216919091179055565b600080610cd060675490565b9050801561076d57610768610ce361063d565b849083611649565b6000610cf684610790565b9050336001600160a01b03831614610d30576000610d14833361127d565b90506000198114610d2e57610d2e83336108558585612b03565b505b610d3a8282611b98565b60408051858152602081018390526001600160a01b03808516929086169133917ffbde797d201c681b91056529119e0b02407c7bb96a4a2c75c01fc9667232c8db910160405180910390a460fe5461076f906001600160a01b031684866119cc565b6000336001600160a01b03831614610dd6576000610dba833361127d565b90506000198114610dd457610dd483336108558885612b03565b505b610ddf846108b8565b905080600003610e1f5760405162461bcd60e51b815260206004820152600b60248201526a5a45524f5f41535345545360a81b6044820152606401610803565b610e298285611b98565b60408051828152602081018690526001600160a01b03808516929086169133917ffbde797d201c681b91056529119e0b02407c7bb96a4a2c75c01fc9667232c8db910160405180910390a460fe5461076f906001600160a01b031684836119cc565b600080610e9760675490565b9050801561076d5761076881610eab61063d565b859190611506565b6001600160a01b03811660009081526065602052604081205461078a90610741565b83421115610f255760405162461bcd60e51b815260206004820152601d60248201527f45524332305065726d69743a206578706972656420646561646c696e650000006044820152606401610803565b60007f6e71edae12b1b97f4d1f60370fef10105fa2faae0126114a169c64845d6126c9888888610f548c611ce6565b6040805160208101969096526001600160a01b0394851690860152929091166060840152608083015260a082015260c0810186905260e0016040516020818303038152906040528051906020012090506000610faf82611d0e565b90506000610fbf82878787611d5c565b9050896001600160a01b0316816001600160a01b0316146110225760405162461bcd60e51b815260206004820152601e60248201527f45524332305065726d69743a20696e76616c6964207369676e617475726500006044820152606401610803565b61102d8a8a8a611525565b50505050505050505050565b60006110456001611d84565b9050801561105d576000805461ff0019166101001790555b6110d085858080601f01602080910402602001604051908101604052809392919081815260200183838082843760009201919091525050604080516020601f8901819004810282018101909252878152925087915086908190840183828082843760009201919091525061193492505050565b61110f85858080601f01602080910402602001604051908101604052809392919081815260200183838082843760009201919091525061198292505050565b6111188c6107dc565b61112187611b46565b61010180546001600160a01b03808e166001600160a01b0319928316811790935561010080548e831690841617905560ff80548d83169084161790556101028054918c16919092161790551580159061118c57508b6001600160a01b03168b6001600160a01b031614155b156111b25761010054610101546111b2916001600160a01b039182169116600019611e11565b85156111c6576111c48661dead61092d565b505b7f39b4cb5afbdad47d3fe587c27735190d406c5d4cfe525882f2ea55199a8649068c8a8a8a89898989604051611203989796959493929190612b43565b60405180910390a18015611251576000805461ff0019169055604051600181527f7f26b83ff96e1f2b6a682f133852f6798a09c465da95921460cefb38474024989060200160405180910390a15b505050505050505050505050565b6001600160a01b03811660009081526065602052604081205461078a565b6001600160a01b03918216600090815260666020908152604080832093909416825291909152205490565b60ff546101025460405163bb492bf560e01b81526001600160a01b039283169263bb492bf5926112e092879287921690600401612ba2565b6000604051808303816000875af11580156112ff573d6000803e3d6000fd5b505050506040513d6000823e601f3d908101601f191682016040526113279190810190612c94565b50505050565b600061133882611460565b9050806000036113785760405162461bcd60e51b815260206004820152600b60248201526a5a45524f5f53484152455360a81b6044820152606401610803565b610101543390611393906001600160a01b0316823086611a2f565b610100546101015460405163e8eda9df60e01b81526001600160a01b039182166004820152602481018690523060448201526000606482015291169063e8eda9df90608401600060405180830381600087803b1580156113f257600080fd5b505af1158015611406573d6000803e3d6000fd5b505050506114148183611a67565b60408051848152602081018490526001600160a01b0383169182917fdcbc1c05240f31ff3ad067ef1ee35ce4997762752e3a095284754544f4c709d7910160405180910390a350919050565b600061078a82610e8b565b6033546001600160a01b031633146114955760405162461bcd60e51b815260040161080390612ace565b6001600160a01b0381166114fa5760405162461bcd60e51b815260206004820152602660248201527f4f776e61626c653a206e6577206f776e657220697320746865207a65726f206160448201526564647265737360d01b6064820152608401610803565b61150381611b46565b50565b82820281151584158583048514171661151e57600080fd5b0492915050565b6001600160a01b0383166115875760405162461bcd60e51b8152602060048201526024808201527f45524332303a20617070726f76652066726f6d20746865207a65726f206164646044820152637265737360e01b6064820152608401610803565b6001600160a01b0382166115e85760405162461bcd60e51b815260206004820152602260248201527f45524332303a20617070726f766520746f20746865207a65726f206164647265604482015261737360f01b6064820152608401610803565b6001600160a01b0383811660008181526066602090815260408083209487168084529482529182902085905590518481527f8c5be1e5ebec7d5bd14f71427d1e84f3dd0314c0f7b2291e5b200ac8c7c3b925910160405180910390a3505050565b82820281151584158583048514171661166157600080fd5b6001826001830304018115150290509392505050565b6000611683848461127d565b9050600019811461132757818110156116de5760405162461bcd60e51b815260206004820152601d60248201527f45524332303a20696e73756666696369656e7420616c6c6f77616e63650000006044820152606401610803565b6113278484848403611525565b6001600160a01b03831661174f5760405162461bcd60e51b815260206004820152602560248201527f45524332303a207472616e736665722066726f6d20746865207a65726f206164604482015264647265737360d81b6064820152608401610803565b6001600160a01b0382166117b15760405162461bcd60e51b815260206004820152602360248201527f45524332303a207472616e7366657220746f20746865207a65726f206164647260448201526265737360e81b6064820152608401610803565b6001600160a01b038316600090815260656020526040902054818110156118295760405162461bcd60e51b815260206004820152602660248201527f45524332303a207472616e7366657220616d6f756e7420657863656564732062604482015265616c616e636560d01b6064820152608401610803565b6001600160a01b03808516600090815260656020526040808220858503905591851681529081208054849290611860908490612ab6565b92505081905550826001600160a01b0316846001600160a01b03167fddf252ad1be2c89b69c2b068fc378daa952ba7f163c4a11628f55a4df523b3ef846040516118ac91815260200190565b60405180910390a3611327565b60006106aa7f8b73c3c69bb8fe3d512ecc4cf759cc79239f7b179b0ffacaa9a75d522b39400f6118e860975490565b6098546040805160208101859052908101839052606081018290524660808201523060a082015260009060c0016040516020818303038152906040528051906020012090509392505050565b600054610100900460ff1661195b5760405162461bcd60e51b815260040161080390612a55565b815161196e90606890602085019061245d565b50805161092890606990602084019061245d565b600054610100900460ff166119a95760405162461bcd60e51b815260040161080390612a55565b61150381604051806040016040528060018152602001603160f81b815250611f26565b6040516001600160a01b03831660248201526044810182905261092890849063a9059cbb60e01b906064015b60408051601f198184030181529190526020810180516001600160e01b03166001600160e01b031990931692909217909152611f67565b6040516001600160a01b03808516602483015283166044820152606481018290526113279085906323b872dd60e01b906084016119f8565b6001600160a01b038216611abd5760405162461bcd60e51b815260206004820152601f60248201527f45524332303a206d696e7420746f20746865207a65726f2061646472657373006044820152606401610803565b8060676000828254611acf9190612ab6565b90915550506001600160a01b03821660009081526065602052604081208054839290611afc908490612ab6565b90915550506040518181526001600160a01b038316906000907fddf252ad1be2c89b69c2b068fc378daa952ba7f163c4a11628f55a4df523b3ef9060200160405180910390a35050565b603380546001600160a01b038381166001600160a01b0319831681179093556040519116919082907f8be0079c531659141344cd1fd0a4f28419497f9722a3daafe3b4186f6b6457e090600090a35050565b6001600160a01b038216611bf85760405162461bcd60e51b815260206004820152602160248201527f45524332303a206275726e2066726f6d20746865207a65726f206164647265736044820152607360f81b6064820152608401610803565b6001600160a01b03821660009081526065602052604090205481811015611c6c5760405162461bcd60e51b815260206004820152602260248201527f45524332303a206275726e20616d6f756e7420657863656564732062616c616e604482015261636560f01b6064820152608401610803565b6001600160a01b0383166000908152606560205260408120838303905560678054849290611c9b908490612b03565b90915550506040518281526000906001600160a01b038516907fddf252ad1be2c89b69c2b068fc378daa952ba7f163c4a11628f55a4df523b3ef9060200160405180910390a3505050565b6001600160a01b038116600090815260cb602052604090208054600181018255905b50919050565b600061078a611d1b6118b9565b8360405161190160f01b6020820152602281018390526042810182905260009060620160405160208183030381529060405280519060200120905092915050565b6000806000611d6d87878787612039565b91509150611d7a81612126565b5095945050505050565b60008054610100900460ff1615611dcb578160ff166001148015611da75750303b155b611dc35760405162461bcd60e51b815260040161080390612d59565b506000919050565b60005460ff808416911610611df25760405162461bcd60e51b815260040161080390612d59565b506000805460ff191660ff92909216919091179055600190565b919050565b801580611e8b5750604051636eb1769f60e11b81523060048201526001600160a01b03838116602483015284169063dd62ed3e90604401602060405180830381865afa158015611e65573d6000803e3d6000fd5b505050506040513d601f19601f82011682018060405250810190611e899190612a08565b155b611ef65760405162461bcd60e51b815260206004820152603660248201527f5361666545524332303a20617070726f76652066726f6d206e6f6e2d7a65726f60448201527520746f206e6f6e2d7a65726f20616c6c6f77616e636560501b6064820152608401610803565b6040516001600160a01b03831660248201526044810182905261092890849063095ea7b360e01b906064016119f8565b600054610100900460ff16611f4d5760405162461bcd60e51b815260040161080390612a55565b815160209283012081519190920120609791909155609855565b6000611fbc826040518060400160405280602081526020017f5361666545524332303a206c6f772d6c6576656c2063616c6c206661696c6564815250856001600160a01b03166122dc9092919063ffffffff16565b8051909150156109285780806020019051810190611fda9190612da7565b6109285760405162461bcd60e51b815260206004820152602a60248201527f5361666545524332303a204552433230206f7065726174696f6e20646964206e6044820152691bdd081cdd58d8d9595960b21b6064820152608401610803565b6000807f7fffffffffffffffffffffffffffffff5d576e7357a4501ddfe92f46681b20a0831115612070575060009050600361211d565b8460ff16601b1415801561208857508460ff16601c14155b15612099575060009050600461211d565b6040805160008082526020820180845289905260ff881692820192909252606081018690526080810185905260019060a0016020604051602081039080840390855afa1580156120ed573d6000803e3d6000fd5b5050604051601f1901519150506001600160a01b0381166121165760006001925092505061211d565b9150600090505b94509492505050565b600081600481111561213a5761213a612dc9565b036121425750565b600181600481111561215657612156612dc9565b036121a35760405162461bcd60e51b815260206004820152601860248201527f45434453413a20696e76616c6964207369676e617475726500000000000000006044820152606401610803565b60028160048111156121b7576121b7612dc9565b036122045760405162461bcd60e51b815260206004820152601f60248201527f45434453413a20696e76616c6964207369676e6174757265206c656e677468006044820152606401610803565b600381600481111561221857612218612dc9565b036122705760405162461bcd60e51b815260206004820152602260248201527f45434453413a20696e76616c6964207369676e6174757265202773272076616c604482015261756560f01b6064820152608401610803565b600481600481111561228457612284612dc9565b036115035760405162461bcd60e51b815260206004820152602260248201527f45434453413a20696e76616c6964207369676e6174757265202776272076616c604482015261756560f01b6064820152608401610803565b60606122eb84846000856122f3565b949350505050565b6060824710156123545760405162461bcd60e51b815260206004820152602660248201527f416464726573733a20696e73756666696369656e742062616c616e636520666f6044820152651c8818d85b1b60d21b6064820152608401610803565b6001600160a01b0385163b6123ab5760405162461bcd60e51b815260206004820152601d60248201527f416464726573733a2063616c6c20746f206e6f6e2d636f6e74726163740000006044820152606401610803565b600080866001600160a01b031685876040516123c79190612ddf565b60006040518083038185875af1925050503d8060008114612404576040519150601f19603f3d011682016040523d82523d6000602084013e612409565b606091505b5091509150612419828286612424565b979650505050505050565b6060831561243357508161076f565b8251156124435782518084602001fd5b8160405162461bcd60e51b81526004016108039190612522565b82805461246990612a21565b90600052602060002090601f01602090048101928261248b57600085556124d1565b82601f106124a457805160ff19168380011785556124d1565b828001600101855582156124d1579182015b828111156124d15782518255916020019190600101906124b6565b506124dd9291506124e1565b5090565b5b808211156124dd57600081556001016124e2565b60005b838110156125115781810151838201526020016124f9565b838111156113275750506000910152565b60208152600082518060208401526125418160408501602087016124f6565b601f01601f19169190910160400192915050565b60006020828403121561256757600080fd5b5035919050565b6001600160a01b038116811461150357600080fd5b8035611e0c8161256e565b600080604083850312156125a157600080fd5b82356125ac8161256e565b946020939093013593505050565b6000806000606084860312156125cf57600080fd5b83356125da8161256e565b925060208401356125ea8161256e565b929592945050506040919091013590565b60006020828403121561260d57600080fd5b813561076f8161256e565b634e487b7160e01b600052604160045260246000fd5b604051601f8201601f1916810167ffffffffffffffff8111828210171561265757612657612618565b604052919050565b600082601f83011261267057600080fd5b813567ffffffffffffffff81111561268a5761268a612618565b61269d601f8201601f191660200161262e565b8181528460208386010111156126b257600080fd5b816020850160208301376000918101602001919091529392505050565b6000806000606084860312156126e457600080fd5b83356126ef8161256e565b9250602084013567ffffffffffffffff8082111561270c57600080fd5b6127188783880161265f565b9350604086013591508082111561272e57600080fd5b5061273b8682870161265f565b9150509250925092565b6000806040838503121561275857600080fd5b82359150602083013561276a8161256e565b809150509250929050565b60008060006060848603121561278a57600080fd5b83359250602084013561279c8161256e565b915060408401356127ac8161256e565b809150509250925092565b600080600080600080600060e0888a0312156127d257600080fd5b87356127dd8161256e565b965060208801356127ed8161256e565b95506040880135945060608801359350608088013560ff8116811461281157600080fd5b9699959850939692959460a0840135945060c09093013592915050565b60008083601f84011261284057600080fd5b50813567ffffffffffffffff81111561285857600080fd5b60208301915083602082850101111561287057600080fd5b9250929050565b60008060008060008060008060008060006101208c8e03121561289957600080fd5b6128a38c3561256e565b8b359a506128b460208d013561256e565b60208c013599506128c760408d01612583565b98506128d560608d01612583565b97506128e360808d01612583565b96506128f160a08d01612583565b955060c08c0135945067ffffffffffffffff8060e08e0135111561291457600080fd5b6129248e60e08f01358f0161282e565b90955093506101008d013581101561293b57600080fd5b5061294d8d6101008e01358e0161282e565b81935080925050509295989b509295989b9093969950565b6000806040838503121561297857600080fd5b82356129838161256e565b9150602083013561276a8161256e565b600080602083850312156129a657600080fd5b823567ffffffffffffffff808211156129be57600080fd5b818501915085601f8301126129d257600080fd5b8135818111156129e157600080fd5b8660208260051b85010111156129f657600080fd5b60209290920196919550909350505050565b600060208284031215612a1a57600080fd5b5051919050565b600181811c90821680612a3557607f821691505b602082108103611d0857634e487b7160e01b600052602260045260246000fd5b6020808252602b908201527f496e697469616c697a61626c653a20636f6e7472616374206973206e6f74206960408201526a6e697469616c697a696e6760a81b606082015260800190565b634e487b7160e01b600052601160045260246000fd5b60008219821115612ac957612ac9612aa0565b500190565b6020808252818101527f4f776e61626c653a2063616c6c6572206973206e6f7420746865206f776e6572604082015260600190565b600082821015612b1557612b15612aa0565b500390565b81835281816020850137506000828201602090810191909152601f909101601f19169091010190565b6001600160a01b038981168252888116602083015287811660408301528616606082015260c060808201819052600090612b809083018688612b1a565b82810360a0840152612b93818587612b1a565b9b9a5050505050505050505050565b6040808252810183905260008460608301825b86811015612be5578235612bc88161256e565b6001600160a01b0316825260209283019290910190600101612bb5565b506001600160a01b03949094166020939093019290925250909392505050565b600067ffffffffffffffff821115612c1f57612c1f612618565b5060051b60200190565b600082601f830112612c3a57600080fd5b81516020612c4f612c4a83612c05565b61262e565b82815260059290921b84018101918181019086841115612c6e57600080fd5b8286015b84811015612c895780518352918301918301612c72565b509695505050505050565b60008060408385031215612ca757600080fd5b825167ffffffffffffffff80821115612cbf57600080fd5b818501915085601f830112612cd357600080fd5b81516020612ce3612c4a83612c05565b82815260059290921b84018101918181019089841115612d0257600080fd5b948201945b83861015612d29578551612d1a8161256e565b82529482019490820190612d07565b91880151919650909350505080821115612d4257600080fd5b50612d4f85828601612c29565b9150509250929050565b6020808252602e908201527f496e697469616c697a61626c653a20636f6e747261637420697320616c72656160408201526d191e481a5b9a5d1a585b1a5e995960921b606082015260800190565b600060208284031215612db957600080fd5b8151801515811461076f57600080fd5b634e487b7160e01b600052602160045260246000fd5b60008251612df18184602087016124f6565b919091019291505056fea2646970667358221220f1995317de9e415d10377f997407efb6769c1f9b451e3e99f483cb1ed5a942f164736f6c634300080d0033",
  "linkReferences": {},
  "deployedLinkReferences": {}
}