{
  "_format": "hh-sol-artifact-1",
  "contractName": "TicketsFacet",
  "sourceName": "contracts/facets/TicketsFacet.sol",
  "abi": [
    {
      "anonymous": false,
      "inputs": [
        {
          "indexed": true,
          "internalType": "address",
          "name": "_owner",
          "type": "address"
        },
        {
          "indexed": true,
          "internalType": "address",
          "name": "_operator",
          "type": "address"
        },
        {
          "indexed": false,
          "internalType": "bool",
          "name": "_approved",
          "type": "bool"
        }
      ],
      "name": "ApprovalForAll",
      "type": "event"
    },
    {
      "anonymous": false,
      "inputs": [
        {
          "indexed": true,
          "internalType": "address",
          "name": "_operator",
          "type": "address"
        },
        {
          "indexed": true,
          "internalType": "address",
          "name": "_from",
          "type": "address"
        },
        {
          "indexed": true,
          "internalType": "address",
          "name": "_to",
          "type": "address"
        },
        {
          "indexed": false,
          "internalType": "uint256[]",
          "name": "_ids",
          "type": "uint256[]"
        },
        {
          "indexed": false,
          "internalType": "uint256[]",
          "name": "_values",
          "type": "uint256[]"
        }
      ],
      "name": "TransferBatch",
      "type": "event"
    },
    {
      "anonymous": false,
      "inputs": [
        {
          "indexed": true,
          "internalType": "address",
          "name": "_operator",
          "type": "address"
        },
        {
          "indexed": true,
          "internalType": "address",
          "name": "_from",
          "type": "address"
        },
        {
          "indexed": true,
          "internalType": "address",
          "name": "_to",
          "type": "address"
        },
        {
          "indexed": false,
          "internalType": "uint256",
          "name": "_id",
          "type": "uint256"
        },
        {
          "indexed": false,
          "internalType": "uint256",
          "name": "_value",
          "type": "uint256"
        }
      ],
      "name": "TransferSingle",
      "type": "event"
    },
    {
      "anonymous": false,
      "inputs": [
        {
          "indexed": false,
          "internalType": "string",
          "name": "_value",
          "type": "string"
        },
        {
          "indexed": true,
          "internalType": "uint256",
          "name": "_id",
          "type": "uint256"
        }
      ],
      "name": "URI",
      "type": "event"
    },
    {
      "inputs": [
        {
          "internalType": "address",
          "name": "_owner",
          "type": "address"
        },
        {
          "internalType": "uint256",
          "name": "_id",
          "type": "uint256"
        }
      ],
      "name": "balanceOf",
      "outputs": [
        {
          "internalType": "uint256",
          "name": "balance_",
          "type": "uint256"
        }
      ],
      "stateMutability": "view",
      "type": "function"
    },
    {
      "inputs": [
        {
          "internalType": "address",
          "name": "_owner",
          "type": "address"
        }
      ],
      "name": "balanceOfAll",
      "outputs": [
        {
          "internalType": "uint256[]",
          "name": "balances_",
          "type": "uint256[]"
        }
      ],
      "stateMutability": "view",
      "type": "function"
    },
    {
      "inputs": [
        {
          "internalType": "address[]",
          "name": "_owners",
          "type": "address[]"
        },
        {
          "internalType": "uint256[]",
          "name": "_ids",
          "type": "uint256[]"
        }
      ],
      "name": "balanceOfBatch",
      "outputs": [
        {
          "internalType": "uint256[]",
          "name": "balances_",
          "type": "uint256[]"
        }
      ],
      "stateMutability": "view",
      "type": "function"
    },
    {
      "inputs": [
        {
          "internalType": "address",
          "name": "_owner",
          "type": "address"
        },
        {
          "internalType": "address",
          "name": "_operator",
          "type": "address"
        }
      ],
      "name": "isApprovedForAll",
      "outputs": [
        {
          "internalType": "bool",
          "name": "",
          "type": "bool"
        }
      ],
      "stateMutability": "view",
      "type": "function"
    },
    {
      "inputs": [
        {
          "components": [
            {
              "internalType": "address",
              "name": "owner",
              "type": "address"
            },
            {
              "internalType": "uint256[]",
              "name": "ids",
              "type": "uint256[]"
            },
            {
              "internalType": "uint256[]",
              "name": "values",
              "type": "uint256[]"
            }
          ],
          "internalType": "struct TicketsFacet.TicketOwner[]",
          "name": "_ticketOwners",
          "type": "tuple[]"
        }
      ],
      "name": "migrateTickets",
      "outputs": [],
      "stateMutability": "nonpayable",
      "type": "function"
    },
    {
      "inputs": [
        {
          "internalType": "address",
          "name": "_from",
          "type": "address"
        },
        {
          "internalType": "address",
          "name": "_to",
          "type": "address"
        },
        {
          "internalType": "uint256[]",
          "name": "_ids",
          "type": "uint256[]"
        },
        {
          "internalType": "uint256[]",
          "name": "_values",
          "type": "uint256[]"
        },
        {
          "internalType": "bytes",
          "name": "_data",
          "type": "bytes"
        }
      ],
      "name": "safeBatchTransferFrom",
      "outputs": [],
      "stateMutability": "nonpayable",
      "type": "function"
    },
    {
      "inputs": [
        {
          "internalType": "address",
          "name": "_from",
          "type": "address"
        },
        {
          "internalType": "address",
          "name": "_to",
          "type": "address"
        },
        {
          "internalType": "uint256",
          "name": "_id",
          "type": "uint256"
        },
        {
          "internalType": "uint256",
          "name": "_value",
          "type": "uint256"
        },
        {
          "internalType": "bytes",
          "name": "_data",
          "type": "bytes"
        }
      ],
      "name": "safeTransferFrom",
      "outputs": [],
      "stateMutability": "nonpayable",
      "type": "function"
    },
    {
      "inputs": [
        {
          "internalType": "address",
          "name": "_aavegotchiDiamond",
          "type": "address"
        }
      ],
      "name": "setAavegotchiDiamond",
      "outputs": [],
      "stateMutability": "nonpayable",
      "type": "function"
    },
    {
      "inputs": [
        {
          "internalType": "address",
          "name": "_operator",
          "type": "address"
        },
        {
          "internalType": "bool",
          "name": "_approved",
          "type": "bool"
        }
      ],
      "name": "setApprovalForAll",
      "outputs": [],
      "stateMutability": "nonpayable",
      "type": "function"
    },
    {
      "inputs": [
        {
          "internalType": "string",
          "name": "_value",
          "type": "string"
        }
      ],
      "name": "setBaseURI",
      "outputs": [],
      "stateMutability": "nonpayable",
      "type": "function"
    },
    {
      "inputs": [],
      "name": "totalSupplies",
      "outputs": [
        {
          "internalType": "uint256[]",
          "name": "totalSupplies_",
          "type": "uint256[]"
        }
      ],
      "stateMutability": "view",
      "type": "function"
    },
    {
      "inputs": [
        {
          "internalType": "uint256",
          "name": "_id",
          "type": "uint256"
        }
      ],
      "name": "totalSupply",
      "outputs": [
        {
          "internalType": "uint256",
          "name": "totalSupply_",
          "type": "uint256"
        }
      ],
      "stateMutability": "view",
      "type": "function"
    },
    {
      "inputs": [
        {
          "internalType": "uint256",
          "name": "_id",
          "type": "uint256"
        }
      ],
      "name": "uri",
      "outputs": [
        {
          "internalType": "string",
          "name": "",
          "type": "string"
        }
      ],
      "stateMutability": "view",
      "type": "function"
    }
  ],
  "bytecode": "0x608060405234801561001057600080fd5b50611a87806100206000396000f3fe608060405234801561001057600080fd5b50600436106100ce5760003560e01c80637d59bf971161008c578063d068cdc511610066578063d068cdc5146101b0578063e985e9c5146101b8578063f242432a146101d8578063fe992c98146101eb576100ce565b80637d59bf9714610177578063a22cb4651461018a578063bd85b0391461019d576100ce565b8062fdd58e146100d35780630e89341c146100fc5780632eb2c2d61461011c5780634e1273f41461013157806355f804b314610151578063691d716c14610164575b600080fd5b6100e66100e136600461129f565b6101fe565b6040516100f391906119a8565b60405180910390f35b61010f61010a36600461142e565b610224565b6040516100f391906116d1565b61012f61012a366004611138565b610282565b005b61014461013f3660046112c8565b61060f565b6040516100f39190611682565b61012f61015f366004611399565b610713565b61012f610172366004611331565b6107a6565b61012f6101853660046110e5565b610988565b61012f610198366004611265565b6109b2565b6100e66101ab36600461142e565b610a34565b610144610a76565b6101cb6101c6366004611106565b610aea565b6040516100f391906116c6565b61012f6101e63660046111ef565b610b1a565b6101446101f93660046110e5565b610dab565b60009081526001602090815260408083206001600160a01b039094168352929052205490565b60606007821061024f5760405162461bcd60e51b815260040161024690611813565b60405180910390fd5b600461025a83610e25565b60405160200161026b9291906114d3565b60405160208183030381529060405290505b919050565b6001600160a01b0387166102a85760405162461bcd60e51b815260040161024690611881565b8483146102c75760405162461bcd60e51b81526004016102469061195c565b60006102d1610ef7565b9050806001600160a01b0316896001600160a01b0316148061031a57506001600160a01b03808a16600090815260208181526040808320938516835260019093019052205460ff165b6103365760405162461bcd60e51b8152600401610246906117d2565b60005b8681101561046c57600088888381811061034f57fe5b905060200201359050600087878481811061036657fe5b905060200201359050600080600101600084815260200190815260200160002060000160008e6001600160a01b03166001600160a01b03168152602001908152602001600020549050818110156103cf5760405162461bcd60e51b815260040161024690611746565b8181036000600101600085815260200190815260200160002060000160008f6001600160a01b03166001600160a01b0316815260200190815260200160002081905550816000600101600085815260200190815260200160002060000160008e6001600160a01b03166001600160a01b03168152602001908152602001600020600082825401925050819055505050508080600101915050610339565b50876001600160a01b0316896001600160a01b0316826001600160a01b03167f4a39dc06d4c0dbc64b70af90fd698a233a518aa5d07e595d983b8c0526c8f7fb8a8a8a8a6040516104c09493929190611650565b60405180910390a4600c546001600160a01b0316801561053f57806001600160a01b031663fac43c85308a8a8e6040518563ffffffff1660e01b815260040161050c94939291906115f6565b600060405180830381600087803b15801561052657600080fd5b505af115801561053a573d6000803e3d6000fd5b505050505b883b80156106025760405163bc197c8160e01b81526001600160a01b038b169063bc197c81906105819086908f908e908e908e908e908e908e9060040161154b565b602060405180830381600087803b15801561059b57600080fd5b505af11580156105af573d6000803e3d6000fd5b505050506040513d601f19601f820116820180604052508101906105d39190611371565b6001600160e01b03191663bc197c8160e01b146106025760405162461bcd60e51b815260040161024690611914565b5050505050505050505050565b60608382146106305760405162461bcd60e51b81526004016102469061178a565b8367ffffffffffffffff8111801561064757600080fd5b50604051908082528060200260200182016040528015610671578160200160208202803683370190505b50905060005b8481101561070a576001600085858481811061068f57fe5b90506020020135815260200190815260200160002060000160008787848181106106b557fe5b90506020020160208101906106ca91906110e5565b6001600160a01b03166001600160a01b03168152602001908152602001600020548282815181106106f757fe5b6020908102919091010152600101610677565b50949350505050565b61071b610f54565b805161072e906004906020840190610fad565b5060005b60078110156107a257807f6bb7ff708619ba0610cba295a58592e0451dee2622938c8755667688daf3529b8361076784610e25565b6040516020016107789291906114a4565b60408051601f1981840301815290829052610792916116d1565b60405180910390a2600101610732565b5050565b6107ae610f54565b60006107b8610ef7565b905060005b8281101561098257368484838181106107d257fe5b90506020028101906107e49190611a06565b90506107f360408201826119bf565b905061080260208301836119bf565b9050146108215760405162461bcd60e51b8152600401610246906118c5565b60005b61083160208301836119bf565b905081101561090757600061084960208401846119bf565b8381811061085357fe5b905060200201359050600083806040019061086e91906119bf565b8481811061087857fe5b60008581526001602090815260408220928102949094013594508493919250906108a4908801886110e5565b6001600160a01b0316815260208082019290925260409081016000908120805494909401909355938252600190819052929020820180546bffffffffffffffffffffffff1981166001600160601b03918216939093011691909117905501610824565b5061091560208201826110e5565b6001600160a01b039081169060009085167f4a39dc06d4c0dbc64b70af90fd698a233a518aa5d07e595d983b8c0526c8f7fb61095460208601866119bf565b61096160408801886119bf565b6040516109719493929190611650565b60405180910390a4506001016107bd565b50505050565b610990610f54565b600c80546001600160a01b0319166001600160a01b0392909216919091179055565b60006109bc610ef7565b6001600160a01b03818116600081815260208181526040808320948916808452600190950190915290819020805460ff19168715151790555192935090917f17307eab39ab6107e8899845ad3d59bd9653f200f220920489ca2b5937696c3190610a279086906116c6565b60405180910390a3505050565b600060078210610a565760405162461bcd60e51b81526004016102469061184a565b50600090815260016020819052604090912001546001600160601b031690565b60408051600780825261010082019092526060916020820160e08036833701905050905060005b6007811015610ae6576000818152600160208190526040909120015482516001600160601b0390911690839083908110610ad357fe5b6020908102919091010152600101610a9d565b5090565b6001600160a01b039182166000908152602081815260408083209390941682526001909201909152205460ff1690565b6001600160a01b038516610b405760405162461bcd60e51b815260040161024690611881565b6000610b4a610ef7565b9050806001600160a01b0316876001600160a01b03161480610b9357506001600160a01b03808816600090815260208181526040808320938516835260019093019052205460ff165b610baf5760405162461bcd60e51b8152600401610246906117d2565b60008581526001602090815260408083206001600160a01b038b16845290915290205484811015610bf25760405162461bcd60e51b815260040161024690611746565b60008681526001602090815260408083206001600160a01b038c81168086529190935281842089860390558a83168085529382902080548a019055905190918516907fc3d58168c5ae7397731d063d5bbf3d657854427343f4c083240f7aacaa2d0f6290610c63908b908b906119b1565b60405180910390a4600c546001600160a01b03168015610ce05760405163e9a8887f60e01b81526001600160a01b0382169063e9a8887f90610cad9030908b908e9060040161162d565b600060405180830381600087803b158015610cc757600080fd5b505af1158015610cdb573d6000803e3d6000fd5b505050505b873b8015610d9f5760405163f23a6e6160e01b81526001600160a01b038a169063f23a6e6190610d1e9087908e908d908d908d908d906004016115af565b602060405180830381600087803b158015610d3857600080fd5b505af1158015610d4c573d6000803e3d6000fd5b505050506040513d601f19601f82011682018060405250810190610d709190611371565b6001600160e01b03191663f23a6e6160e01b14610d9f5760405162461bcd60e51b815260040161024690611914565b50505050505050505050565b60408051600780825261010082019092526060916020820160e08036833701905050905060005b6007811015610e1f5760008181526001602090815260408083206001600160a01b03871684529091529020548251839083908110610e0c57fe5b6020908102919091010152600101610dd2565b50919050565b606081610e4a57506040805180820190915260018152600360fc1b602082015261027d565b8160005b8115610e6257600101600a82049150610e4e565b60008167ffffffffffffffff81118015610e7b57600080fd5b506040519080825280601f01601f191660200182016040528015610ea6576020820181803683370190505b50859350905060001982015b831561070a57600a840660300160f81b82828060019003935081518110610ed557fe5b60200101906001600160f81b031916908160001a905350600a84049350610eb2565b600033301415610f4e57600080368080601f0160208091040260200160405190810160405280939291908181526020018383808284376000920191909152505050503601516001600160a01b03169150610f519050565b50335b90565b610f5c610f89565b600401546001600160a01b03163314610f875760405162461bcd60e51b815260040161024690611704565b565b7fc8fcad8db84d3cc18b4c41d551ea0ee66dd599cde068d998e57d5e09332c131c90565b828054600181600116156101000203166002900490600052602060002090601f016020900481019282610fe35760008555611029565b82601f10610ffc57805160ff1916838001178555611029565b82800160010185558215611029579182015b8281111561102957825182559160200191906001019061100e565b50610ae69291505b80821115610ae65760008155600101611031565b80356001600160a01b038116811461027d57600080fd5b60008083601f84011261106d578081fd5b50813567ffffffffffffffff811115611084578182fd5b602083019150836020808302850101111561109e57600080fd5b9250929050565b60008083601f8401126110b6578182fd5b50813567ffffffffffffffff8111156110cd578182fd5b60208301915083602082850101111561109e57600080fd5b6000602082840312156110f6578081fd5b6110ff82611045565b9392505050565b60008060408385031215611118578081fd5b61112183611045565b915061112f60208401611045565b90509250929050565b60008060008060008060008060a0898b031215611153578384fd5b61115c89611045565b975061116a60208a01611045565b9650604089013567ffffffffffffffff80821115611186578586fd5b6111928c838d0161105c565b909850965060608b01359150808211156111aa578586fd5b6111b68c838d0161105c565b909650945060808b01359150808211156111ce578384fd5b506111db8b828c016110a5565b999c989b5096995094979396929594505050565b60008060008060008060a08789031215611207578182fd5b61121087611045565b955061121e60208801611045565b94506040870135935060608701359250608087013567ffffffffffffffff811115611247578283fd5b61125389828a016110a5565b979a9699509497509295939492505050565b60008060408385031215611277578182fd5b61128083611045565b915060208301358015158114611294578182fd5b809150509250929050565b600080604083850312156112b1578182fd5b6112ba83611045565b946020939093013593505050565b600080600080604085870312156112dd578384fd5b843567ffffffffffffffff808211156112f4578586fd5b6113008883890161105c565b90965094506020870135915080821115611318578384fd5b506113258782880161105c565b95989497509550505050565b60008060208385031215611343578182fd5b823567ffffffffffffffff811115611359578283fd5b6113658582860161105c565b90969095509350505050565b600060208284031215611382578081fd5b81516001600160e01b0319811681146110ff578182fd5b600060208083850312156113ab578182fd5b823567ffffffffffffffff808211156113c2578384fd5b818501915085601f8301126113d5578384fd5b8135818111156113e157fe5b604051601f8201601f19168101850183811182821017156113fe57fe5b6040528181528382018501881015611414578586fd5b818585018683013790810190930193909352509392505050565b60006020828403121561143f578081fd5b5035919050565b81835260006001600160fb1b0383111561145e578081fd5b6020830280836020870137939093016020019283525090919050565b60008284528282602086013780602084860101526020601f19601f85011685010190509392505050565b600083516114b6818460208801611a25565b8351908301906114ca818360208801611a25565b01949350505050565b60008084546001808216600081146114f2576001811461150957611538565b60ff198316865260028304607f1686019350611538565b600283048886526020808720875b838110156115305781548a820152908501908201611517565b505050860193505b50505083516114ca818360208801611a25565b6001600160a01b0389811682528816602082015260a060408201819052600090611578908301888a611446565b828103606084015261158b818789611446565b905082810360808401526115a081858761147a565b9b9a5050505050505050505050565b6001600160a01b03878116825286166020820152604081018590526060810184905260a0608082018190526000906115ea908301848661147a565b98975050505050505050565b600060018060a01b03808716835260606020840152611619606084018688611446565b915080841660408401525095945050505050565b6001600160a01b0393841681526020810192909252909116604082015260600190565b600060408252611664604083018688611446565b8281036020840152611677818587611446565b979650505050505050565b6020808252825182820181905260009190848201906040850190845b818110156116ba5783518352928401929184019160010161169e565b50909695505050505050565b901515815260200190565b60006020825282518060208401526116f0816040850160208701611a25565b601f01601f19169190910160400192915050565b60208082526022908201527f4c69624469616d6f6e643a204d75737420626520636f6e7472616374206f776e60408201526132b960f11b606082015260800190565b60208082526024908201527f5469636b6574733a205f76616c75652067726561746572207468616e2062616c604082015263616e636560e01b606082015260800190565b60208082526028908201527f5469636b6574733a205f6f776e657273206e6f742073616d65206c656e677468604082015267206173205f69647360c01b606082015260800190565b60208082526021908201527f5469636b6574733a204e6f7420617070726f76656420746f207472616e7366656040820152603960f91b606082015260800190565b60208082526019908201527f5f6964206e6f7420666f756e6420666f7220207469636b657400000000000000604082015260600190565b6020808252601a908201527f5469636b6574733a20205469636b6574206e6f7420666f756e64000000000000604082015260600190565b60208082526024908201527f5469636b6574733a2043616e2774207472616e7366657220746f2030206164646040820152637265737360e01b606082015260800190565b6020808252602f908201527f5469636b657446616365743a2069647320616e642076616c756573206e6f742060408201526e0e8d0ca40e6c2daca40d8cadccee8d608b1b606082015260800190565b60208082526028908201527f5469636b6574733a205472616e736665722072656a65637465642f6661696c6560408201526764206279205f746f60c01b606082015260800190565b6020808252602c908201527f5469636b6574733a205f696473206e6f74207468652073616d65206c656e677460408201526b68206173205f76616c75657360a01b606082015260800190565b90815260200190565b918252602082015260400190565b6000808335601e198436030181126119d5578283fd5b83018035915067ffffffffffffffff8211156119ef578283fd5b602090810192508102360382131561109e57600080fd5b60008235605e19833603018112611a1b578182fd5b9190910192915050565b60005b83811015611a40578181015183820152602001611a28565b83811115610982575050600091015256fea264697066735822122015dbcc0dc6d2139397ce0c540133fa6c506cf3c1d24b9d4d57bf109cf64cf56164736f6c63430007060033",
  "linkReferences": {},
  "deployedLinkReferences": {}
}