{
  "_format": "hh-sol-artifact-1",
  "contractName": "TicketsFacet",
  "sourceName": "contracts/facets/TicketsFacet.sol",
  "abi": [
    {
      "anonymous": false,
      "inputs": [
        {
          "indexed": true,
          "internalType": "address",
          "name": "_owner",
          "type": "address"
        },
        {
          "indexed": true,
          "internalType": "address",
          "name": "_operator",
          "type": "address"
        },
        {
          "indexed": false,
          "internalType": "bool",
          "name": "_approved",
          "type": "bool"
        }
      ],
      "name": "ApprovalForAll",
      "type": "event"
    },
    {
      "anonymous": false,
      "inputs": [
        {
          "indexed": true,
          "internalType": "address",
          "name": "_operator",
          "type": "address"
        },
        {
          "indexed": true,
          "internalType": "address",
          "name": "_from",
          "type": "address"
        },
        {
          "indexed": true,
          "internalType": "address",
          "name": "_to",
          "type": "address"
        },
        {
          "indexed": false,
          "internalType": "uint256[]",
          "name": "_ids",
          "type": "uint256[]"
        },
        {
          "indexed": false,
          "internalType": "uint256[]",
          "name": "_values",
          "type": "uint256[]"
        }
      ],
      "name": "TransferBatch",
      "type": "event"
    },
    {
      "anonymous": false,
      "inputs": [
        {
          "indexed": true,
          "internalType": "address",
          "name": "_operator",
          "type": "address"
        },
        {
          "indexed": true,
          "internalType": "address",
          "name": "_from",
          "type": "address"
        },
        {
          "indexed": true,
          "internalType": "address",
          "name": "_to",
          "type": "address"
        },
        {
          "indexed": false,
          "internalType": "uint256",
          "name": "_id",
          "type": "uint256"
        },
        {
          "indexed": false,
          "internalType": "uint256",
          "name": "_value",
          "type": "uint256"
        }
      ],
      "name": "TransferSingle",
      "type": "event"
    },
    {
      "anonymous": false,
      "inputs": [
        {
          "indexed": false,
          "internalType": "string",
          "name": "_value",
          "type": "string"
        },
        {
          "indexed": true,
          "internalType": "uint256",
          "name": "_id",
          "type": "uint256"
        }
      ],
      "name": "URI",
      "type": "event"
    },
    {
      "inputs": [
        {
          "internalType": "address",
          "name": "_owner",
          "type": "address"
        },
        {
          "internalType": "uint256",
          "name": "_id",
          "type": "uint256"
        }
      ],
      "name": "balanceOf",
      "outputs": [
        {
          "internalType": "uint256",
          "name": "balance_",
          "type": "uint256"
        }
      ],
      "stateMutability": "view",
      "type": "function"
    },
    {
      "inputs": [
        {
          "internalType": "address",
          "name": "_owner",
          "type": "address"
        }
      ],
      "name": "balanceOfAll",
      "outputs": [
        {
          "internalType": "uint256[]",
          "name": "balances_",
          "type": "uint256[]"
        }
      ],
      "stateMutability": "view",
      "type": "function"
    },
    {
      "inputs": [
        {
          "internalType": "address[]",
          "name": "_owners",
          "type": "address[]"
        },
        {
          "internalType": "uint256[]",
          "name": "_ids",
          "type": "uint256[]"
        }
      ],
      "name": "balanceOfBatch",
      "outputs": [
        {
          "internalType": "uint256[]",
          "name": "balances_",
          "type": "uint256[]"
        }
      ],
      "stateMutability": "view",
      "type": "function"
    },
    {
      "inputs": [
        {
          "internalType": "address",
          "name": "_owner",
          "type": "address"
        },
        {
          "internalType": "address",
          "name": "_operator",
          "type": "address"
        }
      ],
      "name": "isApprovedForAll",
      "outputs": [
        {
          "internalType": "bool",
          "name": "",
          "type": "bool"
        }
      ],
      "stateMutability": "view",
      "type": "function"
    },
    {
      "inputs": [
        {
          "components": [
            {
              "internalType": "address",
              "name": "owner",
              "type": "address"
            },
            {
              "internalType": "uint256[]",
              "name": "ids",
              "type": "uint256[]"
            },
            {
              "internalType": "uint256[]",
              "name": "values",
              "type": "uint256[]"
            }
          ],
          "internalType": "struct TicketsFacet.TicketOwner[]",
          "name": "_ticketOwners",
          "type": "tuple[]"
        }
      ],
      "name": "migrateTickets",
      "outputs": [],
      "stateMutability": "nonpayable",
      "type": "function"
    },
    {
      "inputs": [
        {
          "internalType": "address",
          "name": "_from",
          "type": "address"
        },
        {
          "internalType": "address",
          "name": "_to",
          "type": "address"
        },
        {
          "internalType": "uint256[]",
          "name": "_ids",
          "type": "uint256[]"
        },
        {
          "internalType": "uint256[]",
          "name": "_values",
          "type": "uint256[]"
        },
        {
          "internalType": "bytes",
          "name": "_data",
          "type": "bytes"
        }
      ],
      "name": "safeBatchTransferFrom",
      "outputs": [],
      "stateMutability": "nonpayable",
      "type": "function"
    },
    {
      "inputs": [
        {
          "internalType": "address",
          "name": "_from",
          "type": "address"
        },
        {
          "internalType": "address",
          "name": "_to",
          "type": "address"
        },
        {
          "internalType": "uint256",
          "name": "_id",
          "type": "uint256"
        },
        {
          "internalType": "uint256",
          "name": "_value",
          "type": "uint256"
        },
        {
          "internalType": "bytes",
          "name": "_data",
          "type": "bytes"
        }
      ],
      "name": "safeTransferFrom",
      "outputs": [],
      "stateMutability": "nonpayable",
      "type": "function"
    },
    {
      "inputs": [
        {
          "internalType": "address",
          "name": "_operator",
          "type": "address"
        },
        {
          "internalType": "bool",
          "name": "_approved",
          "type": "bool"
        }
      ],
      "name": "setApprovalForAll",
      "outputs": [],
      "stateMutability": "nonpayable",
      "type": "function"
    },
    {
      "inputs": [
        {
          "internalType": "string",
          "name": "_value",
          "type": "string"
        }
      ],
      "name": "setBaseURI",
      "outputs": [],
      "stateMutability": "nonpayable",
      "type": "function"
    },
    {
      "inputs": [],
      "name": "totalSupplies",
      "outputs": [
        {
          "internalType": "uint256[]",
          "name": "totalSupplies_",
          "type": "uint256[]"
        }
      ],
      "stateMutability": "view",
      "type": "function"
    },
    {
      "inputs": [
        {
          "internalType": "uint256",
          "name": "_id",
          "type": "uint256"
        }
      ],
      "name": "totalSupply",
      "outputs": [
        {
          "internalType": "uint256",
          "name": "totalSupply_",
          "type": "uint256"
        }
      ],
      "stateMutability": "view",
      "type": "function"
    },
    {
      "inputs": [
        {
          "internalType": "uint256",
          "name": "_id",
          "type": "uint256"
        }
      ],
      "name": "uri",
      "outputs": [
        {
          "internalType": "string",
          "name": "",
          "type": "string"
        }
      ],
      "stateMutability": "view",
      "type": "function"
    }
  ],
  "bytecode": "0x608060405234801561001057600080fd5b50611e25806100206000396000f3fe608060405234801561001057600080fd5b50600436106100d35760003560e01c8063a22cb46511610081578063e985e9c51161005b578063e985e9c5146101aa578063f242432a146101ca578063fe992c98146101dd576100d3565b8063a22cb4651461017c578063bd85b0391461018f578063d068cdc5146101a2576100d3565b80634e1273f4116100b25780634e1273f41461013657806355f804b314610156578063691d716c14610169576100d3565b8062fdd58e146100d85780630e89341c146101015780632eb2c2d614610121575b600080fd5b6100eb6100e63660046114e4565b6101f0565b6040516100f89190611d06565b60405180910390f35b61011461010f3660046116a9565b610223565b6040516100f8919061195f565b61013461012f36600461137d565b61029b565b005b61014961014436600461150d565b61070c565b6040516100f89190611910565b6101346101643660046115f6565b610844565b610134610177366004611576565b6108f5565b61013461018a3660046114aa565b610b09565b6100eb61019d3660046116a9565b610ba7565b610149610c08565b6101bd6101b836600461134b565b610c80565b6040516100f89190611954565b6101346101d8366004611434565b610cbd565b6101496101eb36600461132a565b610fbb565b600090815260016020908152604080832073ffffffffffffffffffffffffffffffffffffffff9094168352929052205490565b606060068210610268576040517f08c379a000000000000000000000000000000000000000000000000000000000815260040161025f90611b24565b60405180910390fd5b600461027383611041565b604051602001610284929190611785565b60405160208183030381529060405290505b919050565b73ffffffffffffffffffffffffffffffffffffffff87166102e8576040517f08c379a000000000000000000000000000000000000000000000000000000000815260040161025f90611b92565b848314610321576040517f08c379a000000000000000000000000000000000000000000000000000000000815260040161025f90611ca9565b73ffffffffffffffffffffffffffffffffffffffff8816331480610376575073ffffffffffffffffffffffffffffffffffffffff881660009081526020818152604080832033845260010190915290205460ff165b6103ac576040517f08c379a000000000000000000000000000000000000000000000000000000000815260040161025f90611ac7565b60005b8581101561054a5760008787838181106103c557fe5b90506020020135905060008686848181106103dc57fe5b905060200201359050600080600101600084815260200190815260200160002060000160008d73ffffffffffffffffffffffffffffffffffffffff1673ffffffffffffffffffffffffffffffffffffffff16815260200190815260200160002054905081811015610479576040517f08c379a000000000000000000000000000000000000000000000000000000000815260040161025f90611a0d565b8181036000600101600085815260200190815260200160002060000160008e73ffffffffffffffffffffffffffffffffffffffff1673ffffffffffffffffffffffffffffffffffffffff16815260200190815260200160002081905550816000600101600085815260200190815260200160002060000160008d73ffffffffffffffffffffffffffffffffffffffff1673ffffffffffffffffffffffffffffffffffffffff1681526020019081526020016000206000828254019250508190555050505080806001019150506103af565b508673ffffffffffffffffffffffffffffffffffffffff168873ffffffffffffffffffffffffffffffffffffffff163373ffffffffffffffffffffffffffffffffffffffff167f4a39dc06d4c0dbc64b70af90fd698a233a518aa5d07e595d983b8c0526c8f7fb898989896040516105c594939291906118de565b60405180910390a4863b8015610701576040517fbc197c8100000000000000000000000000000000000000000000000000000000815273ffffffffffffffffffffffffffffffffffffffff89169063bc197c81906106359033908d908c908c908c908c908c908c9060040161181b565b602060405180830381600087803b15801561064f57600080fd5b505af1158015610663573d6000803e3d6000fd5b505050506040513d601f19601f8201168201806040525081019061068791906115b6565b7fffffffff00000000000000000000000000000000000000000000000000000000167fbc197c810000000000000000000000000000000000000000000000000000000014610701576040517f08c379a000000000000000000000000000000000000000000000000000000000815260040161025f90611c4c565b505050505050505050565b6060838214610747576040517f08c379a000000000000000000000000000000000000000000000000000000000815260040161025f90611a6a565b8367ffffffffffffffff8111801561075e57600080fd5b50604051908082528060200260200182016040528015610788578160200160208202803683370190505b50905060005b8481101561083b57600160008585848181106107a657fe5b90506020020135815260200190815260200160002060000160008787848181106107cc57fe5b90506020020160208101906107e1919061132a565b73ffffffffffffffffffffffffffffffffffffffff1673ffffffffffffffffffffffffffffffffffffffff1681526020019081526020016000205482828151811061082857fe5b602090810291909101015260010161078e565b50949350505050565b61084c611165565b805161085f9060049060208401906111e5565b5060005b60068110156108f157807f6bb7ff708619ba0610cba295a58592e0451dee2622938c8755667688daf3529b8361089884611041565b6040516020016108a9929190611756565b604080517fffffffffffffffffffffffffffffffffffffffffffffffffffffffffffffffe0818403018152908290526108e19161195f565b60405180910390a2600101610863565b5050565b60005b81811015610b04573683838381811061090d57fe5b905060200281019061091f9190611d82565b905061092e6040820182611d1d565b905061093d6020830183611d1d565b905014610976576040517f08c379a000000000000000000000000000000000000000000000000000000000815260040161025f90611bef565b60005b6109866020830183611d1d565b9050811015610a8157600061099e6020840184611d1d565b838181106109a857fe5b90506020020135905060008380604001906109c39190611d1d565b848181106109cd57fe5b60008581526001602090815260408220928102949094013594508493919250906109f99088018861132a565b73ffffffffffffffffffffffffffffffffffffffff16815260208082019290925260409081016000908120805494909401909355938252600190819052929020820180547fffffffffffffffffffffffffffffffffffffffff00000000000000000000000081166bffffffffffffffffffffffff918216939093011691909117905501610979565b50610a8f602082018261132a565b73ffffffffffffffffffffffffffffffffffffffff166000337f4a39dc06d4c0dbc64b70af90fd698a233a518aa5d07e595d983b8c0526c8f7fb610ad66020860186611d1d565b610ae36040880188611d1d565b604051610af394939291906118de565b60405180910390a4506001016108f8565b505050565b3360008181526020818152604080832073ffffffffffffffffffffffffffffffffffffffff871680855260019091019092529182902080547fffffffffffffffffffffffffffffffffffffffffffffffffffffffffffffff001685151517905590519091907f17307eab39ab6107e8899845ad3d59bd9653f200f220920489ca2b5937696c3190610b9b908590611954565b60405180910390a35050565b600060068210610be3576040517f08c379a000000000000000000000000000000000000000000000000000000000815260040161025f90611b5b565b50600090815260016020819052604090912001546bffffffffffffffffffffffff1690565b60408051600680825260e082019092526060916020820160c08036833701905050905060005b6006811015610c7c576000818152600160208190526040909120015482516bffffffffffffffffffffffff90911690839083908110610c6957fe5b6020908102919091010152600101610c2e565b5090565b73ffffffffffffffffffffffffffffffffffffffff9182166000908152602081815260408083209390941682526001909201909152205460ff1690565b73ffffffffffffffffffffffffffffffffffffffff8516610d0a576040517f08c379a000000000000000000000000000000000000000000000000000000000815260040161025f90611b92565b73ffffffffffffffffffffffffffffffffffffffff8616331480610d5f575073ffffffffffffffffffffffffffffffffffffffff861660009081526020818152604080832033845260010190915290205460ff165b610d95576040517f08c379a000000000000000000000000000000000000000000000000000000000815260040161025f90611ac7565b600084815260016020908152604080832073ffffffffffffffffffffffffffffffffffffffff8a16845290915290205483811015610dff576040517f08c379a000000000000000000000000000000000000000000000000000000000815260040161025f90611a0d565b600085815260016020908152604080832073ffffffffffffffffffffffffffffffffffffffff8b8116808652919093528184208886039055918916808452928190208054880190555133907fc3d58168c5ae7397731d063d5bbf3d657854427343f4c083240f7aacaa2d0f6290610e79908a908a90611d0f565b60405180910390a4853b8015610fb1576040517ff23a6e6100000000000000000000000000000000000000000000000000000000815273ffffffffffffffffffffffffffffffffffffffff88169063f23a6e6190610ee59033908c908b908b908b908b9060040161188c565b602060405180830381600087803b158015610eff57600080fd5b505af1158015610f13573d6000803e3d6000fd5b505050506040513d601f19601f82011682018060405250810190610f3791906115b6565b7fffffffff00000000000000000000000000000000000000000000000000000000167ff23a6e610000000000000000000000000000000000000000000000000000000014610fb1576040517f08c379a000000000000000000000000000000000000000000000000000000000815260040161025f90611c4c565b5050505050505050565b60408051600680825260e082019092526060916020820160c08036833701905050905060005b600681101561103b57600081815260016020908152604080832073ffffffffffffffffffffffffffffffffffffffff87168452909152902054825183908390811061102857fe5b6020908102919091010152600101610fe1565b50919050565b606081611082575060408051808201909152600181527f30000000000000000000000000000000000000000000000000000000000000006020820152610296565b8160005b811561109a57600101600a82049150611086565b60008167ffffffffffffffff811180156110b357600080fd5b506040519080825280601f01601f1916602001820160405280156110de576020820181803683370190505b5085935090507fffffffffffffffffffffffffffffffffffffffffffffffffffffffffffffffff82015b831561083b57600a840660300160f81b8282806001900393508151811061112b57fe5b60200101907effffffffffffffffffffffffffffffffffffffffffffffffffffffffffffff1916908160001a905350600a84049350611108565b61116d6111c1565b6004015473ffffffffffffffffffffffffffffffffffffffff1633146111bf576040517f08c379a000000000000000000000000000000000000000000000000000000000815260040161025f906119b0565b565b7fc8fcad8db84d3cc18b4c41d551ea0ee66dd599cde068d998e57d5e09332c131c90565b828054600181600116156101000203166002900490600052602060002090601f01602090048101928261121b5760008555611261565b82601f1061123457805160ff1916838001178555611261565b82800160010185558215611261579182015b82811115611261578251825591602001919060010190611246565b50610c7c9291505b80821115610c7c5760008155600101611269565b803573ffffffffffffffffffffffffffffffffffffffff8116811461029657600080fd5b60008083601f8401126112b2578081fd5b50813567ffffffffffffffff8111156112c9578182fd5b60208301915083602080830285010111156112e357600080fd5b9250929050565b60008083601f8401126112fb578182fd5b50813567ffffffffffffffff811115611312578182fd5b6020830191508360208285010111156112e357600080fd5b60006020828403121561133b578081fd5b6113448261127d565b9392505050565b6000806040838503121561135d578081fd5b6113668361127d565b91506113746020840161127d565b90509250929050565b60008060008060008060008060a0898b031215611398578384fd5b6113a18961127d565b97506113af60208a0161127d565b9650604089013567ffffffffffffffff808211156113cb578586fd5b6113d78c838d016112a1565b909850965060608b01359150808211156113ef578586fd5b6113fb8c838d016112a1565b909650945060808b0135915080821115611413578384fd5b506114208b828c016112ea565b999c989b5096995094979396929594505050565b60008060008060008060a0878903121561144c578182fd5b6114558761127d565b95506114636020880161127d565b94506040870135935060608701359250608087013567ffffffffffffffff81111561148c578283fd5b61149889828a016112ea565b979a9699509497509295939492505050565b600080604083850312156114bc578182fd5b6114c58361127d565b9150602083013580151581146114d9578182fd5b809150509250929050565b600080604083850312156114f6578182fd5b6114ff8361127d565b946020939093013593505050565b60008060008060408587031215611522578384fd5b843567ffffffffffffffff80821115611539578586fd5b611545888389016112a1565b9096509450602087013591508082111561155d578384fd5b5061156a878288016112a1565b95989497509550505050565b60008060208385031215611588578182fd5b823567ffffffffffffffff81111561159e578283fd5b6115aa858286016112a1565b90969095509350505050565b6000602082840312156115c7578081fd5b81517fffffffff0000000000000000000000000000000000000000000000000000000081168114611344578182fd5b60006020808385031215611608578182fd5b823567ffffffffffffffff8082111561161f578384fd5b818501915085601f830112611632578384fd5b81358181111561163e57fe5b604051847fffffffffffffffffffffffffffffffffffffffffffffffffffffffffffffffe0601f840116820101818110848211171561167957fe5b604052818152838201850188101561168f578586fd5b818585018683013790810190930193909352509392505050565b6000602082840312156116ba578081fd5b5035919050565b60008284527f07ffffffffffffffffffffffffffffffffffffffffffffffffffffffffffffff8311156116f2578081fd5b6020830280836020870137939093016020019283525090919050565b600082845282826020860137806020848601015260207fffffffffffffffffffffffffffffffffffffffffffffffffffffffffffffffe0601f85011685010190509392505050565b60008351611768818460208801611dbf565b83519083019061177c818360208801611dbf565b01949350505050565b60008084546001808216600081146117a457600181146117d957611808565b7fffffffffffffffffffffffffffffffffffffffffffffffffffffffffffffff0083168652607f600284041686019350611808565b600283048886526020808720875b838110156118005781548a8201529085019082016117e7565b505050860193505b505050835161177c818360208801611dbf565b600073ffffffffffffffffffffffffffffffffffffffff808b168352808a1660208401525060a0604083015261185560a08301888a6116c1565b82810360608401526118688187896116c1565b9050828103608084015261187d81858761170e565b9b9a5050505050505050505050565b600073ffffffffffffffffffffffffffffffffffffffff808916835280881660208401525085604083015284606083015260a060808301526118d260a08301848661170e565b98975050505050505050565b6000604082526118f26040830186886116c1565b82810360208401526119058185876116c1565b979650505050505050565b6020808252825182820181905260009190848201906040850190845b818110156119485783518352928401929184019160010161192c565b50909695505050505050565b901515815260200190565b600060208252825180602084015261197e816040850160208701611dbf565b601f017fffffffffffffffffffffffffffffffffffffffffffffffffffffffffffffffe0169190910160400192915050565b60208082526022908201527f4c69624469616d6f6e643a204d75737420626520636f6e7472616374206f776e60408201527f6572000000000000000000000000000000000000000000000000000000000000606082015260800190565b60208082526024908201527f5469636b6574733a205f76616c75652067726561746572207468616e2062616c60408201527f616e636500000000000000000000000000000000000000000000000000000000606082015260800190565b60208082526028908201527f5469636b6574733a205f6f776e657273206e6f742073616d65206c656e67746860408201527f206173205f696473000000000000000000000000000000000000000000000000606082015260800190565b60208082526021908201527f5469636b6574733a204e6f7420617070726f76656420746f207472616e73666560408201527f7200000000000000000000000000000000000000000000000000000000000000606082015260800190565b60208082526019908201527f5f6964206e6f7420666f756e6420666f7220207469636b657400000000000000604082015260600190565b6020808252601a908201527f5469636b6574733a20205469636b6574206e6f7420666f756e64000000000000604082015260600190565b60208082526024908201527f5469636b6574733a2043616e2774207472616e7366657220746f20302061646460408201527f7265737300000000000000000000000000000000000000000000000000000000606082015260800190565b6020808252602f908201527f5469636b657446616365743a2069647320616e642076616c756573206e6f742060408201527f7468652073616d65206c656e6774680000000000000000000000000000000000606082015260800190565b60208082526028908201527f5469636b6574733a205472616e736665722072656a65637465642f6661696c6560408201527f64206279205f746f000000000000000000000000000000000000000000000000606082015260800190565b6020808252602c908201527f5469636b6574733a205f696473206e6f74207468652073616d65206c656e677460408201527f68206173205f76616c7565730000000000000000000000000000000000000000606082015260800190565b90815260200190565b918252602082015260400190565b60008083357fffffffffffffffffffffffffffffffffffffffffffffffffffffffffffffffe1843603018112611d51578283fd5b83018035915067ffffffffffffffff821115611d6b578283fd5b60209081019250810236038213156112e357600080fd5b600082357fffffffffffffffffffffffffffffffffffffffffffffffffffffffffffffffa1833603018112611db5578182fd5b9190910192915050565b60005b83811015611dda578181015183820152602001611dc2565b83811115611de9576000848401525b5050505056fea26469706673582212205ec8fd3c82f61f9ec8e108368ce24696d61c236aef65fa09ae94dcd4fa7b001364736f6c63430007060033",
  "linkReferences": {},
  "deployedLinkReferences": {}
}